{"abi":[{"type":"constructor","inputs":[{"name":"_callbreaker","type":"address","internalType":"address"},{"name":"_dai","type":"address","internalType":"address"},{"name":"_weth","type":"address","internalType":"address"}],"stateMutability":"nonpayable"},{"type":"function","name":"DECIMAL","inputs":[],"outputs":[{"name":"","type":"uint256","internalType":"uint256"}],"stateMutability":"view"},{"type":"function","name":"assertFutureCallTo","inputs":[{"name":"callObj","type":"tuple","internalType":"struct CallObject","components":[{"name":"amount","type":"uint256","internalType":"uint256"},{"name":"gas","type":"uint256","internalType":"uint256"},{"name":"addr","type":"address","internalType":"address"},{"name":"callvalue","type":"bytes","internalType":"bytes"}]},{"name":"hintdex","type":"uint256","internalType":"uint256"}],"outputs":[],"stateMutability":"view"},{"type":"function","name":"assertFutureCallTo","inputs":[{"name":"callObj","type":"tuple","internalType":"struct CallObject","components":[{"name":"amount","type":"uint256","internalType":"uint256"},{"name":"gas","type":"uint256","internalType":"uint256"},{"name":"addr","type":"address","internalType":"address"},{"name":"callvalue","type":"bytes","internalType":"bytes"}]}],"outputs":[],"stateMutability":"view"},{"type":"function","name":"assertNextCallTo","inputs":[{"name":"callObj","type":"tuple","internalType":"struct CallObject","components":[{"name":"amount","type":"uint256","internalType":"uint256"},{"name":"gas","type":"uint256","internalType":"uint256"},{"name":"addr","type":"address","internalType":"address"},{"name":"callvalue","type":"bytes","internalType":"bytes"}]}],"outputs":[],"stateMutability":"view"},{"type":"function","name":"backrunBlocker","inputs":[],"outputs":[],"stateMutability":"view"},{"type":"function","name":"callbreaker","inputs":[],"outputs":[{"name":"","type":"address","internalType":"contract CallBreaker"}],"stateMutability":"view"},{"type":"function","name":"checkSlippage","inputs":[{"name":"maxDeviationPercentage","type":"uint256","internalType":"uint256"}],"outputs":[],"stateMutability":"view"},{"type":"function","name":"dai","inputs":[],"outputs":[{"name":"","type":"address","internalType":"contract IMintableERC20"}],"stateMutability":"view"},{"type":"function","name":"frontrunBlocker","inputs":[],"outputs":[],"stateMutability":"view"},{"type":"function","name":"getCurrentExecutingPair","inputs":[],"outputs":[{"name":"","type":"tuple","internalType":"struct CallObject","components":[{"name":"amount","type":"uint256","internalType":"uint256"},{"name":"gas","type":"uint256","internalType":"uint256"},{"name":"addr","type":"address","internalType":"address"},{"name":"callvalue","type":"bytes","internalType":"bytes"}]},{"name":"","type":"tuple","internalType":"struct ReturnObject","components":[{"name":"returnvalue","type":"bytes","internalType":"bytes"}]}],"stateMutability":"view"},{"type":"function","name":"getPriceOfWeth","inputs":[],"outputs":[{"name":"","type":"uint256","internalType":"uint256"}],"stateMutability":"view"},{"type":"function","name":"mintInitialLiquidity","inputs":[],"outputs":[{"name":"","type":"uint256","internalType":"uint256"},{"name":"","type":"uint256","internalType":"uint256"}],"stateMutability":"nonpayable"},{"type":"function","name":"owner","inputs":[],"outputs":[{"name":"","type":"address","internalType":"address"}],"stateMutability":"view"},{"type":"function","name":"provideLiquidityToDAIETHPool","inputs":[{"name":"provider","type":"address","internalType":"address"},{"name":"_amount0In","type":"uint256","internalType":"uint256"},{"name":"_amount1In","type":"uint256","internalType":"uint256"}],"outputs":[],"stateMutability":"nonpayable"},{"type":"function","name":"setExactLiquidity","inputs":[{"name":"amount0","type":"uint256","internalType":"uint256"},{"name":"amount1","type":"uint256","internalType":"uint256"}],"outputs":[],"stateMutability":"nonpayable"},{"type":"function","name":"soloExecuteBlocker","inputs":[],"outputs":[],"stateMutability":"view"},{"type":"function","name":"swapDAIForWETH","inputs":[{"name":"_amountIn","type":"uint256","internalType":"uint256"},{"name":"slippagePercent","type":"uint256","internalType":"uint256"}],"outputs":[],"stateMutability":"nonpayable"},{"type":"function","name":"weth","inputs":[],"outputs":[{"name":"","type":"address","internalType":"contract IMintableERC20"}],"stateMutability":"view"},{"type":"function","name":"withdrawLiquidityFromDAIETHPool","inputs":[{"name":"provider","type":"address","internalType":"address"},{"name":"_amount0Out","type":"uint256","internalType":"uint256"},{"name":"_amount1Out","type":"uint256","internalType":"uint256"}],"outputs":[],"stateMutability":"nonpayable"},{"type":"event","name":"LiquiditySetForPriceTest","inputs":[],"anonymous":false},{"type":"error","name":"AddressZero","inputs":[]},{"type":"error","name":"CallMismatch","inputs":[]},{"type":"error","name":"FutureCallExpected","inputs":[]},{"type":"error","name":"IllegalBackrun","inputs":[]},{"type":"error","name":"IllegalFrontrun","inputs":[]},{"type":"error","name":"InvalidPriceLimit","inputs":[]},{"type":"error","name":"NotApproved","inputs":[]},{"type":"error","name":"PortalClosed","inputs":[]},{"type":"error","name":"Unaudited","inputs":[]}],"bytecode":{"object":"0x608060405234801561000f575f80fd5b50604051611b61380380611b6183398101604081905261002e916100c2565b826001600160a01b03811661005657604051639fabe1c160e01b815260040160405180910390fd5b5f80546001600160a01b039283166001600160a01b03199182161790915560058054948316948216949094179093556004805492909116918316919091179055600380549091163317905550610102565b80516001600160a01b03811681146100bd575f80fd5b919050565b5f805f606084860312156100d4575f80fd5b6100dd846100a7565b92506100eb602085016100a7565b91506100f9604085016100a7565b90509250925092565b611a528061010f5f395ff3fe608060405234801561000f575f80fd5b506004361061011b575f3560e01c8063801e0f42116100a9578063b64841a81161006e578063b64841a814610238578063d3ce2fab14610255578063d743118414610268578063f320d0a914610270578063f4b9fa7514610282575f80fd5b8063801e0f42146101e45780638da5cb5b146101f7578063921a62e21461020a578063b21025231461021d578063b5ba436214610230575f80fd5b806347c62bfb116100ef57806347c62bfb146101915780635075e4b2146101a45780635dccf4c4146101ac578063670053c8146101b45780636ab55fd9146101c7575f80fd5b806236945f1461011f5780631db72bc91461013457806325b1af12146101535780633fc8cef314610166575b5f80fd5b61013261012d366004611406565b610295565b005b61013c6104eb565b60405161014a929190611496565b60405180910390f35b610132610161366004611406565b61060a565b600454610179906001600160a01b031681565b6040516001600160a01b03909116815260200161014a565b61013261019f3660046114e4565b6108e9565b610132610aca565b610132610adc565b6101326101c2366004611516565b610be5565b6101d6670de0b6b3a764000081565b60405190815260200161014a565b6101326101f236600461166a565b610c76565b600354610179906001600160a01b031681565b6101326102183660046116ab565b610dc5565b61013261022b3660046116ab565b610f02565b610132611041565b6102406110d1565b6040805192835260208301919091520161014a565b6101326102633660046114e4565b61120f565b6101d66113f0565b5f54610179906001600160a01b031681565b600554610179906001600160a01b031681565b5f6102a883670de0b6b3a76400006116f0565b90505f6102bd83670de0b6b3a76400006116f0565b905060025482111561033e575f600254836102d8919061170d565b6005546040516340c10f1960e01b8152306004820152602481018390529192506001600160a01b0316906340c10f19906044015f604051808303815f87803b158015610322575f80fd5b505af1158015610334573d5f803e3d5ffd5b50505050506103b9565b6002548210156103b9575f82600254610357919061170d565b600554604051632770a7eb60e21b8152306004820152602481018390529192506001600160a01b031690639dc29fac906044015f604051808303815f87803b1580156103a1575f80fd5b505af11580156103b3573d5f803e3d5ffd5b50505050505b60015481111561043d575f600154826103d2919061170d565b600480546040516340c10f1960e01b81523092810192909252602482018390529192506001600160a01b03909116906340c10f19906044015f604051808303815f87803b158015610421575f80fd5b505af1158015610433573d5f803e3d5ffd5b50505050506104bd565b6001548110156104bd575f81600154610456919061170d565b60048054604051632770a7eb60e21b81523092810192909252602482018390529192506001600160a01b0390911690639dc29fac906044015f604051808303815f87803b1580156104a5575f80fd5b505af11580156104b7573d5f803e3d5ffd5b50505050505b6040517f4a4b7ed1ecd14fd8561085ca39e8e6adf07076a6c9100ece315516d18ae44513905f90a150505050565b61051c60405180608001604052805f81526020015f81526020015f6001600160a01b03168152602001606081525090565b6040805160208082018352606082525f8054845163145f1c8960e31b81529451939491936001600160a01b039091169263a2f8e44892600480820193918290030181865afa158015610570573d5f803e3d5ffd5b505050506040513d601f19601f820116820180604052508101906105949190611720565b5f54604051632f7ce47360e21b8152600481018390529192506001600160a01b03169063bdf391cc906024015f60405180830381865afa1580156105da573d5f803e3d5ffd5b505050506040513d5f823e601f3d908101601f1916820160405261060191908101906117e9565b92509250509091565b5f61061d83670de0b6b3a76400006116f0565b6005546040516323b872dd60e01b8152336004820152306024820152604481018390529192506001600160a01b0316906323b872dd906064016020604051808303815f875af1158015610672573d5f803e3d5ffd5b505050506040513d601f19601f8201168201806040525081019061069691906118a6565b6106de5760405162461bcd60e51b81526020600482015260146024820152733a3930b739b332b9233937b6903330b4b632b21760611b60448201526064015b60405180910390fd5b8060025f8282546106ef91906118cc565b90915550506002546001545f919061070790846116f0565b61071191906118df565b90508060015f828254610724919061170d565b90915550506004805460405163a9059cbb60e01b81523392810192909252602482018390526001600160a01b03169063a9059cbb906044016020604051808303815f875af1158015610778573d5f803e3d5ffd5b505050506040513d601f19601f8201168201806040525081019061079c91906118a6565b6107df5760405162461bcd60e51b81526020600482015260146024820152733a3930b739b332b9233937b6903330b4b632b21760611b60448201526064016106d5565b6040805160018082528183019092525f91816020015b61082660405180608001604052805f81526020015f81526020015f6001600160a01b03168152602001606081525090565b8152602001906001900390816107f557905050905060405180608001604052805f8152602001629896808152602001306001600160a01b031681526020018560405160240161087791815260200190565b60408051601f198184030181529190526020810180516001600160e01b0316630ce00a7960e31b1790529052815182905f906108b5576108b56118fe565b60200260200101819052506108e2815f815181106108d5576108d56118fe565b6020026020010151610dc5565b5050505050565b5f6108fc83670de0b6b3a76400006116f0565b90505f61091183670de0b6b3a76400006116f0565b60055460405163a9059cbb60e01b81526001600160a01b0388811660048301526024820186905292935091169063a9059cbb906044016020604051808303815f875af1158015610963573d5f803e3d5ffd5b505050506040513d601f19601f8201168201806040525081019061098791906118a6565b6109d35760405162461bcd60e51b815260206004820181905260248201527f7472616e7366657246726f6d205f616d6f756e74304f7574206661696c65642e60448201526064016106d5565b6004805460405163a9059cbb60e01b81526001600160a01b03888116938201939093526024810184905291169063a9059cbb906044016020604051808303815f875af1158015610a25573d5f803e3d5ffd5b505050506040513d601f19601f82011682018060405250810190610a4991906118a6565b610a955760405162461bcd60e51b815260206004820181905260248201527f7472616e7366657246726f6d205f616d6f756e74314f7574206661696c65642e60448201526064016106d5565b8160025f828254610aa6919061170d565b925050819055508060015f828254610abe919061170d565b90915550505050505050565b610ad2611041565b610ada610adc565b565b5f805f9054906101000a90046001600160a01b03166001600160a01b031663a2f8e4486040518163ffffffff1660e01b8152600401602060405180830381865afa158015610b2c573d5f803e3d5ffd5b505050506040513d601f19601f82011682018060405250810190610b509190611720565b5f805460405163631d606160e11b81526004810184905292935090916001600160a01b039091169063c63ac0c290602401602060405180830381865afa158015610b9c573d5f803e3d5ffd5b505050506040513d601f19601f82011682018060405250810190610bc09190611720565b90508015610be15760405163d1cb360d60e01b815260040160405180910390fd5b5050565b5f600154670de0b6b3a7640000600254610bff91906116f0565b610c0991906118df565b90505f610c1f670de0b6b3a7640000600a6116f0565b90505f81828411610c3957610c34848461170d565b610c43565b610c43838561170d565b610c4d91906118df565b905083811115610c7057604051632d4eeeb360e21b815260040160405180910390fd5b50505050565b5f805f9054906101000a90046001600160a01b03166001600160a01b031663a2f8e4486040518163ffffffff1660e01b8152600401602060405180830381865afa158015610cc6573d5f803e3d5ffd5b505050506040513d601f19601f82011682018060405250810190610cea9190611720565b90505f83604051602001610cfe9190611912565b60408051808303601f190181529082905280516020909101205f8054630213637b60e51b845260048401879052919350916001600160a01b039091169063426c6f60906024016040805180830381865afa158015610d5e573d5f803e3d5ffd5b505050506040513d601f19601f82011682018060405250810190610d829190611924565b519050828411610da55760405163ab63c58360e01b815260040160405180910390fd5b8181146108e25760405163a7ee168560e01b815260040160405180910390fd5b5f8054604051631ae7330560e11b81526001600160a01b03909116906335ce660a90610df5908590600401611912565b5f60405180830381865afa158015610e0f573d5f803e3d5ffd5b505050506040513d5f823e601f3d908101601f19168201604052610e369190810190611972565b90505f805f9054906101000a90046001600160a01b03166001600160a01b031663a2f8e4486040518163ffffffff1660e01b8152600401602060405180830381865afa158015610e88573d5f803e3d5ffd5b505050506040513d601f19601f82011682018060405250810190610eac9190611720565b90505f5b8251811015610ee85781838281518110610ecc57610ecc6118fe565b60200260200101511115610ee05750505050565b600101610eb0565b5060405163ab63c58360e01b815260040160405180910390fd5b5f805f9054906101000a90046001600160a01b03166001600160a01b031663a2f8e4486040518163ffffffff1660e01b8152600401602060405180830381865afa158015610f52573d5f803e3d5ffd5b505050506040513d601f19601f82011682018060405250810190610f769190611720565b90505f82604051602001610f8a9190611912565b60408051601f1981840301815291905280516020909101205f8054919250906001600160a01b031663426c6f60610fc28560016118cc565b6040518263ffffffff1660e01b8152600401610fe091815260200190565b6040805180830381865afa158015610ffa573d5f803e3d5ffd5b505050506040513d601f19601f8201168201806040525081019061101e9190611924565b519050818114610c705760405163a7ee168560e01b815260040160405180910390fd5b5f8054906101000a90046001600160a01b03166001600160a01b031663a2f8e4486040518163ffffffff1660e01b8152600401602060405180830381865afa15801561108f573d5f803e3d5ffd5b505050506040513d601f19601f820116820180604052508101906110b39190611720565b15610ada57604051631efbf1ab60e11b815260040160405180910390fd5b6005545f9081906001600160a01b03166340c10f19306110fa670de0b6b3a764000060646116f0565b6040516001600160e01b031960e085901b1681526001600160a01b03909216600483015260248201526044015f604051808303815f87803b15801561113d575f80fd5b505af115801561114f573d5f803e3d5ffd5b50506004546001600160a01b031691506340c10f1990503061117a670de0b6b3a7640000600a6116f0565b6040516001600160e01b031960e085901b1681526001600160a01b03909216600483015260248201526044015f604051808303815f87803b1580156111bd575f80fd5b505af11580156111cf573d5f803e3d5ffd5b50505050670de0b6b3a7640000600a6111e891906116f0565b6001556111fe670de0b6b3a764000060646116f0565b600281905560015490939092509050565b5f61122283670de0b6b3a76400006116f0565b90505f61123783670de0b6b3a76400006116f0565b6005546040516323b872dd60e01b81526001600160a01b038881166004830152306024830152604482018690529293509116906323b872dd906064016020604051808303815f875af115801561128f573d5f803e3d5ffd5b505050506040513d601f19601f820116820180604052508101906112b391906118a6565b6112ff5760405162461bcd60e51b815260206004820152601f60248201527f7472616e7366657246726f6d205f616d6f756e7430496e206661696c65642e0060448201526064016106d5565b600480546040516323b872dd60e01b81526001600160a01b0388811693820193909352306024820152604481018490529116906323b872dd906064016020604051808303815f875af1158015611357573d5f803e3d5ffd5b505050506040513d601f19601f8201168201806040525081019061137b91906118a6565b6113c75760405162461bcd60e51b815260206004820152601f60248201527f7472616e7366657246726f6d205f616d6f756e7431496e206661696c65642e0060448201526064016106d5565b8160025f8282546113d891906118cc565b925050819055508060015f828254610abe91906118cc565b5f60015460025461140191906118df565b905090565b5f8060408385031215611417575f80fd5b50508035926020909101359150565b5f81518084528060208401602086015e5f602082860101526020601f19601f83011685010191505092915050565b805182526020810151602083015260018060a01b0360408201511660408301525f60608201516080606085015261148e6080850182611426565b949350505050565b604081525f6114a86040830185611454565b82810360208401528351602082526114c36020830182611426565b9695505050505050565b6001600160a01b03811681146114e1575f80fd5b50565b5f805f606084860312156114f6575f80fd5b8335611501816114cd565b95602085013595506040909401359392505050565b5f60208284031215611526575f80fd5b5035919050565b634e487b7160e01b5f52604160045260245ffd5b604051608081016001600160401b03811182821017156115635761156361152d565b60405290565b604051601f8201601f191681016001600160401b03811182821017156115915761159161152d565b604052919050565b5f6001600160401b038211156115b1576115b161152d565b50601f01601f191660200190565b5f608082840312156115cf575f80fd5b6115d7611541565b8235815260208084013590820152905060408201356115f5816114cd565b604082015260608201356001600160401b03811115611612575f80fd5b8201601f81018413611622575f80fd5b803561163561163082611599565b611569565b818152856020838501011115611649575f80fd5b816020840160208301375f6020838301015280606085015250505092915050565b5f806040838503121561167b575f80fd5b82356001600160401b03811115611690575f80fd5b61169c858286016115bf565b95602094909401359450505050565b5f602082840312156116bb575f80fd5b81356001600160401b038111156116d0575f80fd5b61148e848285016115bf565b634e487b7160e01b5f52601160045260245ffd5b8082028115828204841417611707576117076116dc565b92915050565b81810381811115611707576117076116dc565b5f60208284031215611730575f80fd5b5051919050565b5f82601f830112611746575f80fd5b815161175461163082611599565b818152846020838601011115611768575f80fd5b8160208501602083015e5f918101602001919091529392505050565b5f60208284031215611794575f80fd5b604051602081016001600160401b03811182821017156117b6576117b661152d565b806040525080915082516001600160401b038111156117d3575f80fd5b6117df85828601611737565b8252505092915050565b5f80604083850312156117fa575f80fd5b82516001600160401b0381111561180f575f80fd5b830160808186031215611820575f80fd5b611828611541565b81518152602080830151908201526040820151611844816114cd565b604082015260608201516001600160401b03811115611861575f80fd5b61186d87828501611737565b606083015250809350505060208301516001600160401b03811115611890575f80fd5b61189c85828601611784565b9150509250929050565b5f602082840312156118b6575f80fd5b815180151581146118c5575f80fd5b9392505050565b80820180821115611707576117076116dc565b5f826118f957634e487b7160e01b5f52601260045260245ffd5b500490565b634e487b7160e01b5f52603260045260245ffd5b602081525f6118c56020830184611454565b5f6040828403128015611935575f80fd5b50604080519081016001600160401b03811182821017156119585761195861152d565b604052825181526020928301519281019290925250919050565b5f60208284031215611982575f80fd5b81516001600160401b03811115611997575f80fd5b8201601f810184136119a7575f80fd5b80516001600160401b038111156119c0576119c061152d565b8060051b6119d060208201611569565b918252602081840181019290810190878411156119eb575f80fd5b6020850194505b83851015611a11578451808352602095860195909350909101906119f2565b97965050505050505056fea2646970667358221220af4da2031c018a7f65559663aa0015dfa0ccfc89ac67e48dd1c0ea9c3f695eb864736f6c634300081a0033","linkReferences":{}},"methodIdentifiers":{"DECIMAL()":"6ab55fd9","assertFutureCallTo((uint256,uint256,address,bytes))":"921a62e2","assertFutureCallTo((uint256,uint256,address,bytes),uint256)":"801e0f42","assertNextCallTo((uint256,uint256,address,bytes))":"b2102523","backrunBlocker()":"5dccf4c4","callbreaker()":"f320d0a9","checkSlippage(uint256)":"670053c8","dai()":"f4b9fa75","frontrunBlocker()":"b5ba4362","getCurrentExecutingPair()":"1db72bc9","getPriceOfWeth()":"d7431184","mintInitialLiquidity()":"b64841a8","owner()":"8da5cb5b","provideLiquidityToDAIETHPool(address,uint256,uint256)":"d3ce2fab","setExactLiquidity(uint256,uint256)":"0036945f","soloExecuteBlocker()":"5075e4b2","swapDAIForWETH(uint256,uint256)":"25b1af12","weth()":"3fc8cef3","withdrawLiquidityFromDAIETHPool(address,uint256,uint256)":"47c62bfb"},"storageLayout":{"storage":[{"astId":53967,"contract":"test/examples/DeFi/MockDaiWethPool.sol:MockDaiWethPool","label":"callbreaker","offset":0,"slot":"0","type":"t_contract(CallBreaker)53545"},{"astId":54897,"contract":"test/examples/DeFi/MockDaiWethPool.sol:MockDaiWethPool","label":"_balanceOfWeth","offset":0,"slot":"1","type":"t_uint256"},{"astId":54899,"contract":"test/examples/DeFi/MockDaiWethPool.sol:MockDaiWethPool","label":"_balanceOfDai","offset":0,"slot":"2","type":"t_uint256"},{"astId":54901,"contract":"test/examples/DeFi/MockDaiWethPool.sol:MockDaiWethPool","label":"owner","offset":0,"slot":"3","type":"t_address"},{"astId":54904,"contract":"test/examples/DeFi/MockDaiWethPool.sol:MockDaiWethPool","label":"weth","offset":0,"slot":"4","type":"t_contract(IMintableERC20)57653"},{"astId":54907,"contract":"test/examples/DeFi/MockDaiWethPool.sol:MockDaiWethPool","label":"dai","offset":0,"slot":"5","type":"t_contract(IMintableERC20)57653"}],"types":{"t_address":{"encoding":"inplace","label":"address","numberOfBytes":"20"},"t_contract(CallBreaker)53545":{"encoding":"inplace","label":"contract CallBreaker","numberOfBytes":"20"},"t_contract(IMintableERC20)57653":{"encoding":"inplace","label":"contract IMintableERC20","numberOfBytes":"20"},"t_uint256":{"encoding":"inplace","label":"uint256","numberOfBytes":"32"}}},"id":51}