{"abi":[{"type":"constructor","inputs":[{"name":"_owner","type":"address","internalType":"address"}],"stateMutability":"nonpayable"},{"type":"fallback","stateMutability":"payable"},{"type":"receive","stateMutability":"payable"},{"type":"function","name":"CALL_GRID_LENGTHS_SLOT","inputs":[],"outputs":[{"name":"","type":"bytes32","internalType":"bytes32"}],"stateMutability":"view"},{"type":"function","name":"CALL_ORDER_STORAGE_SLOT","inputs":[],"outputs":[{"name":"","type":"bytes32","internalType":"bytes32"}],"stateMutability":"view"},{"type":"function","name":"CALL_RETURN_LENGTHS_SLOT","inputs":[],"outputs":[{"name":"","type":"bytes32","internalType":"bytes32"}],"stateMutability":"view"},{"type":"function","name":"CALL_RETURN_VALUES_SLOT","inputs":[],"outputs":[{"name":"","type":"bytes32","internalType":"bytes32"}],"stateMutability":"view"},{"type":"function","name":"EMPTY_DATA","inputs":[],"outputs":[{"name":"","type":"bytes32","internalType":"bytes32"}],"stateMutability":"view"},{"type":"function","name":"EXECUTING_CALL_INDEX_SLOT","inputs":[],"outputs":[{"name":"","type":"bytes32","internalType":"bytes32"}],"stateMutability":"view"},{"type":"function","name":"LARGE_VALUE_MARKER","inputs":[],"outputs":[{"name":"","type":"uint256","internalType":"uint256"}],"stateMutability":"view"},{"type":"function","name":"MAX_RETURN_VALUE_SIZE","inputs":[],"outputs":[{"name":"","type":"uint256","internalType":"uint256"}],"stateMutability":"view"},{"type":"function","name":"callGrid","inputs":[{"name":"","type":"uint256","internalType":"uint256"},{"name":"","type":"uint256","internalType":"uint256"}],"outputs":[{"name":"salt","type":"uint256","internalType":"uint256"},{"name":"amount","type":"uint256","internalType":"uint256"},{"name":"gas","type":"uint256","internalType":"uint256"},{"name":"addr","type":"address","internalType":"address"},{"name":"callvalue","type":"bytes","internalType":"bytes"},{"name":"returnvalue","type":"bytes","internalType":"bytes"},{"name":"skippable","type":"bool","internalType":"bool"},{"name":"verifiable","type":"bool","internalType":"bool"},{"name":"exposeReturn","type":"bool","internalType":"bool"}],"stateMutability":"view"},{"type":"function","name":"callObjIndices","inputs":[{"name":"","type":"bytes32","internalType":"bytes32"},{"name":"","type":"uint256","internalType":"uint256"}],"outputs":[{"name":"","type":"uint256","internalType":"uint256"}],"stateMutability":"view"},{"type":"function","name":"deposit","inputs":[],"outputs":[],"stateMutability":"payable"},{"type":"function","name":"executeAndVerify","inputs":[{"name":"_userObjectives","type":"tuple[]","internalType":"struct UserObjective[]","components":[{"name":"appId","type":"bytes","internalType":"bytes"},{"name":"nonce","type":"uint256","internalType":"uint256"},{"name":"tip","type":"uint256","internalType":"uint256"},{"name":"chainId","type":"uint256","internalType":"uint256"},{"name":"maxFeePerGas","type":"uint256","internalType":"uint256"},{"name":"maxPriorityFeePerGas","type":"uint256","internalType":"uint256"},{"name":"sender","type":"address","internalType":"address"},{"name":"signature","type":"bytes","internalType":"bytes"},{"name":"callObjects","type":"tuple[]","internalType":"struct CallObject[]","components":[{"name":"salt","type":"uint256","internalType":"uint256"},{"name":"amount","type":"uint256","internalType":"uint256"},{"name":"gas","type":"uint256","internalType":"uint256"},{"name":"addr","type":"address","internalType":"address"},{"name":"callvalue","type":"bytes","internalType":"bytes"},{"name":"returnvalue","type":"bytes","internalType":"bytes"},{"name":"skippable","type":"bool","internalType":"bool"},{"name":"verifiable","type":"bool","internalType":"bool"},{"name":"exposeReturn","type":"bool","internalType":"bool"}]}]},{"name":"_returnsBytes","type":"bytes[]","internalType":"bytes[]"},{"name":"_orderOfExecution","type":"uint256[]","internalType":"uint256[]"},{"name":"_mevTimeData","type":"tuple","internalType":"struct MevTimeData","components":[{"name":"validatorSignature","type":"bytes","internalType":"bytes"},{"name":"mevTimeDataValues","type":"tuple[]","internalType":"struct AdditionalData[]","components":[{"name":"key","type":"bytes32","internalType":"bytes32"},{"name":"value","type":"bytes","internalType":"bytes"}]}]}],"outputs":[],"stateMutability":"payable"},{"type":"function","name":"expectFutureCall","inputs":[{"name":"callObj","type":"tuple","internalType":"struct CallObject","components":[{"name":"salt","type":"uint256","internalType":"uint256"},{"name":"amount","type":"uint256","internalType":"uint256"},{"name":"gas","type":"uint256","internalType":"uint256"},{"name":"addr","type":"address","internalType":"address"},{"name":"callvalue","type":"bytes","internalType":"bytes"},{"name":"returnvalue","type":"bytes","internalType":"bytes"},{"name":"skippable","type":"bool","internalType":"bool"},{"name":"verifiable","type":"bool","internalType":"bool"},{"name":"exposeReturn","type":"bool","internalType":"bool"}]}],"outputs":[{"name":"isExecutedInFuture","type":"bool","internalType":"bool"}],"stateMutability":"view"},{"type":"function","name":"expectFutureCallAt","inputs":[{"name":"callObj","type":"tuple","internalType":"struct CallObject","components":[{"name":"salt","type":"uint256","internalType":"uint256"},{"name":"amount","type":"uint256","internalType":"uint256"},{"name":"gas","type":"uint256","internalType":"uint256"},{"name":"addr","type":"address","internalType":"address"},{"name":"callvalue","type":"bytes","internalType":"bytes"},{"name":"returnvalue","type":"bytes","internalType":"bytes"},{"name":"skippable","type":"bool","internalType":"bool"},{"name":"verifiable","type":"bool","internalType":"bool"},{"name":"exposeReturn","type":"bool","internalType":"bool"}]},{"name":"index","type":"uint256","internalType":"uint256"}],"outputs":[{"name":"isExecutedAtIndex","type":"bool","internalType":"bool"}],"stateMutability":"view"},{"type":"function","name":"getApprovalAddresses","inputs":[{"name":"appId","type":"bytes","internalType":"bytes"}],"outputs":[{"name":"preApproval","type":"address","internalType":"address"},{"name":"postApproval","type":"address","internalType":"address"}],"stateMutability":"view"},{"type":"function","name":"getCallIndex","inputs":[{"name":"callObj","type":"tuple","internalType":"struct CallObject","components":[{"name":"salt","type":"uint256","internalType":"uint256"},{"name":"amount","type":"uint256","internalType":"uint256"},{"name":"gas","type":"uint256","internalType":"uint256"},{"name":"addr","type":"address","internalType":"address"},{"name":"callvalue","type":"bytes","internalType":"bytes"},{"name":"returnvalue","type":"bytes","internalType":"bytes"},{"name":"skippable","type":"bool","internalType":"bool"},{"name":"verifiable","type":"bool","internalType":"bool"},{"name":"exposeReturn","type":"bool","internalType":"bool"}]}],"outputs":[{"name":"callIndices","type":"uint256[]","internalType":"uint256[]"}],"stateMutability":"view"},{"type":"function","name":"getCurrentlyExecuting","inputs":[],"outputs":[{"name":"callIndex","type":"uint256","internalType":"uint256"}],"stateMutability":"view"},{"type":"function","name":"getMessageHash","inputs":[{"name":"data","type":"bytes","internalType":"bytes"}],"outputs":[{"name":"","type":"bytes32","internalType":"bytes32"}],"stateMutability":"pure"},{"type":"function","name":"getReturnValue","inputs":[{"name":"callObj","type":"tuple","internalType":"struct CallObject","components":[{"name":"salt","type":"uint256","internalType":"uint256"},{"name":"amount","type":"uint256","internalType":"uint256"},{"name":"gas","type":"uint256","internalType":"uint256"},{"name":"addr","type":"address","internalType":"address"},{"name":"callvalue","type":"bytes","internalType":"bytes"},{"name":"returnvalue","type":"bytes","internalType":"bytes"},{"name":"skippable","type":"bool","internalType":"bool"},{"name":"verifiable","type":"bool","internalType":"bool"},{"name":"exposeReturn","type":"bool","internalType":"bool"}]}],"outputs":[{"name":"","type":"bytes","internalType":"bytes"}],"stateMutability":"view"},{"type":"function","name":"getReturnValueHash","inputs":[{"name":"callObj","type":"tuple","internalType":"struct CallObject","components":[{"name":"salt","type":"uint256","internalType":"uint256"},{"name":"amount","type":"uint256","internalType":"uint256"},{"name":"gas","type":"uint256","internalType":"uint256"},{"name":"addr","type":"address","internalType":"address"},{"name":"callvalue","type":"bytes","internalType":"bytes"},{"name":"returnvalue","type":"bytes","internalType":"bytes"},{"name":"skippable","type":"bool","internalType":"bool"},{"name":"verifiable","type":"bool","internalType":"bool"},{"name":"exposeReturn","type":"bool","internalType":"bool"}]}],"outputs":[{"name":"","type":"bytes32","internalType":"bytes32"}],"stateMutability":"view"},{"type":"function","name":"getValidatorAddress","inputs":[{"name":"appId","type":"bytes","internalType":"bytes"}],"outputs":[{"name":"","type":"address","internalType":"address"}],"stateMutability":"view"},{"type":"function","name":"hasReturnValue","inputs":[{"name":"callObj","type":"tuple","internalType":"struct CallObject","components":[{"name":"salt","type":"uint256","internalType":"uint256"},{"name":"amount","type":"uint256","internalType":"uint256"},{"name":"gas","type":"uint256","internalType":"uint256"},{"name":"addr","type":"address","internalType":"address"},{"name":"callvalue","type":"bytes","internalType":"bytes"},{"name":"returnvalue","type":"bytes","internalType":"bytes"},{"name":"skippable","type":"bool","internalType":"bool"},{"name":"verifiable","type":"bool","internalType":"bool"},{"name":"exposeReturn","type":"bool","internalType":"bool"}]}],"outputs":[{"name":"","type":"bool","internalType":"bool"}],"stateMutability":"view"},{"type":"function","name":"hasZeroLengthReturnValue","inputs":[{"name":"callObj","type":"tuple","internalType":"struct CallObject","components":[{"name":"salt","type":"uint256","internalType":"uint256"},{"name":"amount","type":"uint256","internalType":"uint256"},{"name":"gas","type":"uint256","internalType":"uint256"},{"name":"addr","type":"address","internalType":"address"},{"name":"callvalue","type":"bytes","internalType":"bytes"},{"name":"returnvalue","type":"bytes","internalType":"bytes"},{"name":"skippable","type":"bool","internalType":"bool"},{"name":"verifiable","type":"bool","internalType":"bool"},{"name":"exposeReturn","type":"bool","internalType":"bool"}]}],"outputs":[{"name":"","type":"bool","internalType":"bool"}],"stateMutability":"view"},{"type":"function","name":"mevTimeDataKeyList","inputs":[{"name":"","type":"uint256","internalType":"uint256"}],"outputs":[{"name":"","type":"bytes32","internalType":"bytes32"}],"stateMutability":"view"},{"type":"function","name":"mevTimeDataStore","inputs":[{"name":"","type":"bytes32","internalType":"bytes32"}],"outputs":[{"name":"","type":"bytes","internalType":"bytes"}],"stateMutability":"view"},{"type":"function","name":"owner","inputs":[],"outputs":[{"name":"","type":"address","internalType":"address"}],"stateMutability":"view"},{"type":"function","name":"pushUserObjective","inputs":[{"name":"_userObjective","type":"tuple","internalType":"struct UserObjective","components":[{"name":"appId","type":"bytes","internalType":"bytes"},{"name":"nonce","type":"uint256","internalType":"uint256"},{"name":"tip","type":"uint256","internalType":"uint256"},{"name":"chainId","type":"uint256","internalType":"uint256"},{"name":"maxFeePerGas","type":"uint256","internalType":"uint256"},{"name":"maxPriorityFeePerGas","type":"uint256","internalType":"uint256"},{"name":"sender","type":"address","internalType":"address"},{"name":"signature","type":"bytes","internalType":"bytes"},{"name":"callObjects","type":"tuple[]","internalType":"struct CallObject[]","components":[{"name":"salt","type":"uint256","internalType":"uint256"},{"name":"amount","type":"uint256","internalType":"uint256"},{"name":"gas","type":"uint256","internalType":"uint256"},{"name":"addr","type":"address","internalType":"address"},{"name":"callvalue","type":"bytes","internalType":"bytes"},{"name":"returnvalue","type":"bytes","internalType":"bytes"},{"name":"skippable","type":"bool","internalType":"bool"},{"name":"verifiable","type":"bool","internalType":"bool"},{"name":"exposeReturn","type":"bool","internalType":"bool"}]}]},{"name":"_additionalData","type":"tuple[]","internalType":"struct AdditionalData[]","components":[{"name":"key","type":"bytes32","internalType":"bytes32"},{"name":"value","type":"bytes","internalType":"bytes"}]}],"outputs":[{"name":"requestId","type":"bytes32","internalType":"bytes32"}],"stateMutability":"payable"},{"type":"function","name":"renounceOwnership","inputs":[],"outputs":[],"stateMutability":"nonpayable"},{"type":"function","name":"senderBalances","inputs":[{"name":"","type":"address","internalType":"address"}],"outputs":[{"name":"","type":"uint256","internalType":"uint256"}],"stateMutability":"view"},{"type":"function","name":"sequenceCounter","inputs":[],"outputs":[{"name":"","type":"uint256","internalType":"uint256"}],"stateMutability":"view"},{"type":"function","name":"setApprovalAddresses","inputs":[{"name":"appId","type":"bytes","internalType":"bytes"},{"name":"preApproval","type":"address","internalType":"address"},{"name":"postApproval","type":"address","internalType":"address"}],"outputs":[],"stateMutability":"nonpayable"},{"type":"function","name":"setValidatorAddress","inputs":[{"name":"appId","type":"bytes","internalType":"bytes"},{"name":"validatorAddress","type":"address","internalType":"address"}],"outputs":[],"stateMutability":"nonpayable"},{"type":"function","name":"transferOwnership","inputs":[{"name":"newOwner","type":"address","internalType":"address"}],"outputs":[],"stateMutability":"nonpayable"},{"type":"event","name":"ApprovalAddressesSet","inputs":[{"name":"appId","type":"bytes","indexed":true,"internalType":"bytes"},{"name":"preApproval","type":"address","indexed":true,"internalType":"address"},{"name":"postApproval","type":"address","indexed":true,"internalType":"address"}],"anonymous":false},{"type":"event","name":"CallIndicesPopulated","inputs":[],"anonymous":false},{"type":"event","name":"Deposit","inputs":[{"name":"sender","type":"address","indexed":true,"internalType":"address"},{"name":"amount","type":"uint256","indexed":false,"internalType":"uint256"}],"anonymous":false},{"type":"event","name":"OwnershipTransferred","inputs":[{"name":"previousOwner","type":"address","indexed":true,"internalType":"address"},{"name":"newOwner","type":"address","indexed":true,"internalType":"address"}],"anonymous":false},{"type":"event","name":"UserObjectivePushed","inputs":[{"name":"requestId","type":"bytes32","indexed":true,"internalType":"bytes32"},{"name":"sequenceCounter","type":"uint256","indexed":false,"internalType":"uint256"},{"name":"appId","type":"bytes","indexed":true,"internalType":"bytes"},{"name":"chainId","type":"uint256","indexed":true,"internalType":"uint256"},{"name":"blockNumber","type":"uint256","indexed":false,"internalType":"uint256"},{"name":"userObjective","type":"tuple","indexed":false,"internalType":"struct UserObjective","components":[{"name":"appId","type":"bytes","internalType":"bytes"},{"name":"nonce","type":"uint256","internalType":"uint256"},{"name":"tip","type":"uint256","internalType":"uint256"},{"name":"chainId","type":"uint256","internalType":"uint256"},{"name":"maxFeePerGas","type":"uint256","internalType":"uint256"},{"name":"maxPriorityFeePerGas","type":"uint256","internalType":"uint256"},{"name":"sender","type":"address","internalType":"address"},{"name":"signature","type":"bytes","internalType":"bytes"},{"name":"callObjects","type":"tuple[]","internalType":"struct CallObject[]","components":[{"name":"salt","type":"uint256","internalType":"uint256"},{"name":"amount","type":"uint256","internalType":"uint256"},{"name":"gas","type":"uint256","internalType":"uint256"},{"name":"addr","type":"address","internalType":"address"},{"name":"callvalue","type":"bytes","internalType":"bytes"},{"name":"returnvalue","type":"bytes","internalType":"bytes"},{"name":"skippable","type":"bool","internalType":"bool"},{"name":"verifiable","type":"bool","internalType":"bool"},{"name":"exposeReturn","type":"bool","internalType":"bool"}]}]},{"name":"mevTimeData","type":"tuple[]","indexed":false,"internalType":"struct AdditionalData[]","components":[{"name":"key","type":"bytes32","internalType":"bytes32"},{"name":"value","type":"bytes","internalType":"bytes"}]}],"anonymous":false},{"type":"event","name":"ValidatorAddressSet","inputs":[{"name":"appId","type":"bytes","indexed":true,"internalType":"bytes"},{"name":"validatorAddress","type":"address","indexed":true,"internalType":"address"}],"anonymous":false},{"type":"event","name":"VerifyStxn","inputs":[],"anonymous":false},{"type":"error","name":"CallFailed","inputs":[]},{"type":"error","name":"CallNotFound","inputs":[]},{"type":"error","name":"CallPositionFailed","inputs":[{"name":"","type":"tuple","internalType":"struct CallObject","components":[{"name":"salt","type":"uint256","internalType":"uint256"},{"name":"amount","type":"uint256","internalType":"uint256"},{"name":"gas","type":"uint256","internalType":"uint256"},{"name":"addr","type":"address","internalType":"address"},{"name":"callvalue","type":"bytes","internalType":"bytes"},{"name":"returnvalue","type":"bytes","internalType":"bytes"},{"name":"skippable","type":"bool","internalType":"bool"},{"name":"verifiable","type":"bool","internalType":"bool"},{"name":"exposeReturn","type":"bool","internalType":"bool"}]}]},{"type":"error","name":"CallVerificationFailed","inputs":[]},{"type":"error","name":"DirectETHTransferNotAllowed","inputs":[]},{"type":"error","name":"FlatIndexOutOfBounds","inputs":[]},{"type":"error","name":"InvalidAmount","inputs":[]},{"type":"error","name":"LengthMismatch","inputs":[]},{"type":"error","name":"OutOfEther","inputs":[]},{"type":"error","name":"OwnableInvalidOwner","inputs":[{"name":"owner","type":"address","internalType":"address"}]},{"type":"error","name":"OwnableUnauthorizedAccount","inputs":[{"name":"account","type":"address","internalType":"address"}]},{"type":"error","name":"PostApprovalFailed","inputs":[{"name":"appId","type":"bytes","internalType":"bytes"}]},{"type":"error","name":"PreApprovalFailed","inputs":[{"name":"appId","type":"bytes","internalType":"bytes"}]},{"type":"error","name":"ReentrancyGuardReentrantCall","inputs":[]},{"type":"error","name":"UnauthorisedSigner","inputs":[{"name":"recoveredAddress","type":"address","internalType":"address"},{"name":"signer","type":"address","internalType":"address"}]},{"type":"error","name":"UnauthorizedMevTimeData","inputs":[{"name":"mevTimeData","type":"tuple[]","internalType":"struct AdditionalData[]","components":[{"name":"key","type":"bytes32","internalType":"bytes32"},{"name":"value","type":"bytes","internalType":"bytes"}]},{"name":"validatorSignature","type":"bytes","internalType":"bytes"}]}],"bytecode":{"object":"0x60806040523461002f576100196100146100f4565b610115565b610021610034565b615e1161037a8239615e1190f35b61003a565b60405190565b5f80fd5b601f801991011690565b634e487b7160e01b5f52604160045260245ffd5b906100669061003e565b810190811060018060401b0382111761007e57604052565b610048565b9061009661008f610034565b928361005c565b565b5f80fd5b60018060a01b031690565b6100b09061009c565b90565b6100bc816100a7565b036100c357565b5f80fd5b905051906100d4826100b3565b565b906020828203126100ef576100ec915f016100c7565b90565b610098565b61011261618b8038038061010781610083565b9283398101906100d6565b90565b61011e90610170565b565b90565b90565b61013a61013561013f92610120565b610123565b61009c565b90565b61014b90610126565b90565b610157906100a7565b9052565b919061016e905f6020850194019061014e565b565b6101786101ca565b8061019361018d6101885f610142565b6100a7565b916100a7565b146101a3576101a190610318565b565b6101c66101af5f610142565b5f918291631e4fbdf760e01b83526004830161015b565b0390fd5b6101d261025d565b565b90565b90565b6101ee6101e96101f3926101d4565b610123565b6101d7565b90565b61020060016101da565b90565b5f1b90565b906102145f1991610203565b9181191691161790565b61023261022d610237926101d7565b610123565b6101d7565b90565b90565b9061025261024d6102599261021e565b61023a565b8254610208565b9055565b61026e6102686101f6565b5f61023d565b565b5f1c90565b60018060a01b031690565b61028c61029191610270565b610275565b90565b61029e9054610280565b90565b906102b260018060a01b0391610203565b9181191691161790565b6102d06102cb6102d59261009c565b610123565b61009c565b90565b6102e1906102bc565b90565b6102ed906102d8565b90565b90565b9061030861030361030f926102e4565b6102f0565b82546102a1565b9055565b5f0190565b6103226001610294565b61032d8260016102f3565b9061036161035b7f8be0079c531659141344cd1fd0a4f28419497f9722a3daafe3b4186f6b6457e0936102e4565b916102e4565b9161036a610034565b8061037481610313565b0390a356fe60806040526004361015610018575b36613db957613d9d565b6100225f35610231565b806301c53f2c1461022c57806306c938d0146102275780630a1028c4146102225780630ca35aae1461021d578063182861ef14610218578063203efd4d14610213578063275194601461020e5780632dedf69c1461020957806338f2a300146102045780633de84360146101ff57806344935016146101fa5780634727eb7e146101f557806352fad375146101f05780636fc9900d146101eb57806370032094146101e6578063715018a6146101e15780638da5cb5b146101dc57806397c1eef7146101d75780639b35f3cf146101d25780639f792a47146101cd578063a1be8cbd146101c8578063a2f8e448146101c3578063a5494ce5146101be578063b077356b146101b9578063b640dc23146101b4578063ca49a6e4146101af578063ce7de779146101aa578063d0e30db0146101a5578063eda40098146101a0578063f158e8f71461019b578063f2fde38b14610196578063f71c2147146101915763ff5576750361000e57611ab5565b611a2e565b611953565b611927565b611841565b6117e0565b6117ac565b611732565b6116fd565b611676565b6115c1565b61157d565b611547565b611465565b611430565b61135a565b6112cf565b61129c565b61125c565b610f76565b610f40565b610ef6565b610e6f565b610de8565b610db3565b610cd0565b610b9b565b610953565b6108b1565b610815565b610640565b6104cf565b610311565b60e01c90565b60405190565b5f80fd5b5f80fd5b5f80fd5b5f80fd5b5f80fd5b5f80fd5b909182601f8301121561028f5781359167ffffffffffffffff831161028a57602001926001830284011161028557565b610251565b61024d565b610249565b906020828203126102c5575f82013567ffffffffffffffff81116102c0576102bc9201610255565b9091565b610245565b610241565b60018060a01b031690565b6102de906102ca565b90565b6102ea906102d5565b9052565b91602061030f92949361030860408201965f8301906102e1565b01906102e1565b565b346103435761032a610324366004610294565b90611b6d565b9061033f610336610237565b928392836102ee565b0390f35b61023d565b909182601f830112156103825781359167ffffffffffffffff831161037d57602001926020830284011161037857565b610251565b61024d565b610249565b909182601f830112156103c15781359167ffffffffffffffff83116103bc5760200192602083028401116103b757565b610251565b61024d565b610249565b909182601f830112156104005781359167ffffffffffffffff83116103fb5760200192602083028401116103f657565b610251565b61024d565b610249565b5f80fd5b908160409103126104175790565b610405565b90916080828403126104c5575f82013567ffffffffffffffff81116104c05783610447918401610348565b929093602082013567ffffffffffffffff81116104bb578161046a918401610387565b929093604082013567ffffffffffffffff81116104b6578361048d9184016103c6565b929093606082013567ffffffffffffffff81116104b1576104ae9201610409565b90565b610245565b610245565b610245565b610245565b610241565b5f0190565b6104e96104dd36600461041c565b95949094939193612b40565b6104f1610237565b806104fb816104ca565b0390f35b5f80fd5b601f801991011690565b634e487b7160e01b5f52604160045260245ffd5b9061052b90610503565b810190811067ffffffffffffffff82111761054557604052565b61050d565b9061055d610556610237565b9283610521565b565b67ffffffffffffffff811161057d57610579602091610503565b0190565b61050d565b90825f939282370152565b909291926105a261059d8261055f565b61054a565b938185526020850190828401116105be576105bc92610582565b565b6104ff565b9080601f830112156105e1578160206105de9335910161058d565b90565b610249565b90602082820312610616575f82013567ffffffffffffffff81116106115761060e92016105c3565b90565b610245565b610241565b90565b6106279061061b565b9052565b919061063e905f6020850194019061061e565b565b346106705761066c61065b6106563660046105e6565b612bcc565b610663610237565b9182918261062b565b0390f35b61023d565b5f80fd5b5f80fd5b90565b6106898161067d565b0361069057565b5f80fd5b905035906106a182610680565b565b6106ac816102d5565b036106b357565b5f80fd5b905035906106c4826106a3565b565b151590565b6106d4816106c6565b036106db57565b5f80fd5b905035906106ec826106cb565b565b919091610120818403126107db5761070761012061054a565b92610714815f8401610694565b5f8501526107258160208401610694565b60208501526107378160408401610694565b604085015261074981606084016106b7565b6060850152608082013567ffffffffffffffff81116107d6578161076e9184016105c3565b608085015260a08201359167ffffffffffffffff83116107d157610797826107c99483016105c3565b60a08601526107a98260c083016106df565b60c08601526107bb8260e083016106df565b60e0860152610100016106df565b610100830152565b610679565b610679565b610675565b90602082820312610810575f82013567ffffffffffffffff811161080b5761080892016106ee565b90565b610245565b610241565b346108455761084161083061082b3660046107e0565b612dad565b610838610237565b9182918261062b565b0390f35b61023d565b919060408382031261088a575f8301359067ffffffffffffffff821161088557610879816108829386016106ee565b93602001610694565b90565b610245565b610241565b610898906106c6565b9052565b91906108af905f6020850194019061088f565b565b346108e2576108de6108cd6108c736600461084a565b90612ebc565b6108d5610237565b9182918261089c565b0390f35b61023d565b5f9103126108f157565b610241565b90565b90565b61091061090b610915926108f6565b6108f9565b61067d565b90565b6109236001196108fc565b90565b61092e610918565b90565b61093a9061067d565b9052565b9190610951905f60208501940190610931565b565b34610983576109633660046108e7565b61097f61096e610926565b610976610237565b9182918261093e565b0390f35b61023d565b6109918161061b565b0361099857565b5f80fd5b905035906109a982610988565b565b906020828203126109c4576109c1915f0161099c565b90565b610241565b6109d29061061b565b90565b906109df906109c9565b5f5260205260405f2090565b634e487b7160e01b5f525f60045260245ffd5b634e487b7160e01b5f52602260045260245ffd5b9060016002830492168015610a32575b6020831014610a2d57565b6109fe565b91607f1691610a22565b60209181520190565b5f5260205f2090565b905f9291805490610a68610a6183610a12565b8094610a3c565b916001811690815f14610abf5750600114610a83575b505050565b610a909192939450610a45565b915f925b818410610aa757505001905f8080610a7e565b60018160209295939554848601520191019290610a94565b92949550505060ff19168252151560200201905f8080610a7e565b90610ae491610a4e565b90565b90610b07610b0092610af7610237565b93848092610ada565b0383610521565b565b905f10610b1c57610b1990610ae7565b90565b6109eb565b610b3790610b326006915f926109d5565b610b09565b90565b5190565b60209181520190565b90825f9392825e0152565b610b71610b7a602093610b7f93610b6881610b3a565b93848093610b3e565b95869101610b47565b610503565b0190565b610b989160208201915f818403910152610b52565b90565b34610bcb57610bc7610bb6610bb13660046109ab565b610b21565b610bbe610237565b91829182610b83565b0390f35b61023d565b5f1c90565b610be9610be4610bee9261067d565b6108f9565b61067d565b90565b610bfd610c0291610bd0565b610bd5565b90565b90565b610c1c610c17610c2192610c05565b6108f9565b61067d565b90565b634e487b7160e01b5f52601160045260245ffd5b610c47610c4d9193929361067d565b9261067d565b8203918211610c5857565b610c24565b5f1b90565b610c76610c71610c7b9261067d565b610c5d565b61061b565b90565b610cc2610cbd610cad7f8bb9bb3b84ac8d1319776fe8c8fa5411b11ba3de9583df8bb8d50ea2c1d8acb2610bf1565b610cb76001610c08565b90610c38565b610c62565b90565b610ccd610c7e565b90565b34610d0057610ce03660046108e7565b610cfc610ceb610cc5565b610cf3610237565b9182918261062b565b0390f35b61023d565b90602082820312610d1e57610d1b915f016106b7565b90565b610241565b610d37610d32610d3c926102ca565b6108f9565b6102ca565b90565b610d4890610d23565b90565b610d5490610d3f565b90565b90610d6190610d4b565b5f5260205260405f2090565b1c90565b90565b610d84906008610d899302610d6d565b610d71565b90565b90610d979154610d74565b90565b610db090610dab6004915f92610d57565b610d8c565b90565b34610de357610ddf610dce610dc9366004610d05565b610d9a565b610dd6610237565b9182918261093e565b0390f35b61023d565b34610e1857610e14610e03610dfe3660046107e0565b61311d565b610e0b610237565b91829182610b83565b0390f35b61023d565b610e61610e5c610e4c7fc9bb646c762028d2411f99a537ca55d4080767e417080061e997310d2bf0d95b610bf1565b610e566001610c08565b90610c38565b610c62565b90565b610e6c610e1d565b90565b34610e9f57610e7f3660046108e7565b610e9b610e8a610e64565b610e92610237565b9182918261062b565b0390f35b61023d565b610ee8610ee3610ed37fbb9ae6b53197f61b9a222f464f03345cd70a3e2fed5cfb9c8d1a276c0a6a6783610bf1565b610edd6001610c08565b90610c38565b610c62565b90565b610ef3610ea4565b90565b34610f2657610f063660046108e7565b610f22610f11610eeb565b610f19610237565b9182918261062b565b0390f35b61023d565b9190610f3e905f602085019401906102e1565b565b34610f7157610f6d610f5c610f56366004610294565b90613317565b610f64610237565b91829182610f2b565b0390f35b61023d565b34610fa657610fa2610f91610f8c3660046107e0565b61333a565b610f99610237565b9182918261089c565b0390f35b61023d565b9190604083820312610fd35780610fc7610fd0925f8601610694565b93602001610694565b90565b610241565b634e487b7160e01b5f52603260045260245ffd5b5490565b5f5260205f2090565b61100281610fec565b82101561101c57611014600191610ff0565b910201905f90565b610fd8565b5490565b5f5260205f2090565b61103781611021565b82101561105157611049600791611025565b910201905f90565b610fd8565b61106261106791610bd0565b610d71565b90565b6110749054611056565b90565b60018060a01b031690565b61108e61109391610bd0565b611077565b90565b6110a09054611082565b90565b60ff1690565b6110b56110ba91610bd0565b6110a3565b90565b6110c790546110a9565b90565b60081c90565b6110dc6110e1916110ca565b6110a3565b90565b6110ee90546110d0565b90565b60101c90565b611103611108916110f1565b6110a3565b90565b61111590546110f7565b90565b60039061112482610fec565b8110156111c85761113491610ff9565b509061113f82611021565b8110156111c45761114f9161102e565b5061115b5f820161106a565b916111686001830161106a565b916111756002820161106a565b9161118260038301611096565b9161118f60048201610ae7565b9161119c60058301610ae7565b916111a9600682016110bd565b916111c160066111ba8185016110e4565b930161110b565b90565b5f80fd5b5f80fd5b949561123061123e9261010098611223611253989b9e9d9b61121961125a9e9961120f6112499a60208f61120861012082019a5f830190610931565b0190610931565b60408d0190610931565b60608b01906102e1565b88820360808a0152610b52565b9086820360a0880152610b52565b9860c085019061088f565b60e083019061088f565b019061088f565b565b3461129757611293611278611272366004610fab565b90611118565b9561128a999799959195949294610237565b998a998a6111cc565b0390f35b61023d565b346112ca576112ac3660046108e7565b6112b46133ee565b6112bc610237565b806112c6816104ca565b0390f35b61023d565b346112ff576112df3660046108e7565b6112fb6112ea6133f8565b6112f2610237565b91829182610f2b565b0390f35b61023d565b919091606081840312611355575f8101359167ffffffffffffffff8311611350576113348461134d948401610255565b93909461134481602086016106b7565b936040016106b7565b90565b610245565b610241565b3461138c5761137661136d366004611304565b92919091613512565b61137e610237565b80611388816104ca565b0390f35b61023d565b5190565b60209181520190565b60200190565b6113ad9061067d565b9052565b906113be816020936113a4565b0190565b60200190565b906113e56113df6113d884611391565b8093611395565b9261139e565b905f5b8181106113f55750505090565b90919261140e61140860019286516113b1565b946113c2565b91019190916113e8565b61142d9160208201915f8184039101526113c8565b90565b346114605761145c61144b6114463660046107e0565b6135d3565b611453610237565b91829182611418565b0390f35b61023d565b346114955761149161148061147b3660046107e0565b61366a565b611488610237565b9182918261089c565b0390f35b61023d565b91906040838203126114c257806114b66114bf925f860161099c565b93602001610694565b90565b610241565b906114d1906109c9565b5f5260205260405f2090565b5490565b5f5260205f2090565b6114f3816114dd565b82101561150d576115056001916114e1565b910201905f90565b610fd8565b61151d9060076114c7565b611526816114dd565b821015611543576115409161153a916114ea565b90610d8c565b90565b5f80fd5b346115785761157461156361155d36600461149a565b90611512565b61156b610237565b9182918261093e565b0390f35b61023d565b346115ad5761158d3660046108e7565b6115a96115986136ec565b6115a0610237565b9182918261093e565b0390f35b61023d565b6115be60025f90610d8c565b90565b346115f1576115d13660046108e7565b6115ed6115dc6115b2565b6115e4610237565b9182918261093e565b0390f35b61023d565b67ffffffffffffffff811161161457611610602091610503565b0190565b61050d565b9061162b611626836115f6565b61054a565b918252565b6116395f611619565b90565b611644611630565b90565b60200190565b61165561163c565b61166761166182610b3a565b91611647565b2090565b61167361164d565b90565b346116a6576116863660046108e7565b6116a261169161166b565b611699610237565b9182918261062b565b0390f35b61023d565b6116ef6116ea6116da7fcc0b0f8bcbf880e0462c476b991385f275741e85c00e18948c88de59c7e116ab610bf1565b6116e46001610c08565b90610c38565b610c62565b90565b6116fa6116ab565b90565b3461172d5761170d3660046108e7565b6117296117186116f2565b611720610237565b9182918261062b565b0390f35b61023d565b346117625761175e61174d6117483660046107e0565b613709565b611755610237565b9182918261089c565b0390f35b61023d565b916040838303126117a7575f83013567ffffffffffffffff81116117a2576117948361179f928601610255565b9390946020016106b7565b90565b610245565b610241565b346117db576117c56117bf366004611767565b9161382c565b6117cd610237565b806117d7816104ca565b0390f35b61023d565b6117eb3660046108e7565b6117f3613872565b6117fb610237565b80611805816104ca565b0390f35b90565b61182061181b61182592611809565b6108f9565b61067d565b90565b61183361040061180c565b90565b61183e611828565b90565b34611871576118513660046108e7565b61186d61185c611836565b611864610237565b9182918261093e565b0390f35b61023d565b90816101209103126118855790565b610405565b909182601f830112156118c45781359167ffffffffffffffff83116118bf5760200192602083028401116118ba57565b610251565b61024d565b610249565b919091604081840312611922575f81013567ffffffffffffffff811161191d57836118f5918301611876565b92602082013567ffffffffffffffff811161191857611914920161188a565b9091565b610245565b610245565b610241565b61194f61193e6119383660046118c9565b91613b18565b611946610237565b9182918261062b565b0390f35b346119815761196b611966366004610d05565b613d92565b611973610237565b8061197d816104ca565b0390f35b61023d565b9060208282031261199f5761199c915f01610694565b90565b610241565b5490565b5f5260205f2090565b6119ba816119a4565b8210156119d4576119cc6001916119a8565b910201905f90565b610fd8565b90565b6119ec9060086119f19302610d6d565b6119d9565b90565b906119ff91546119dc565b90565b6005611a0d816119a4565b821015611a2a57611a2791611a21916119b1565b906119f4565b90565b5f80fd5b34611a5e57611a5a611a49611a44366004611986565b611a02565b611a51610237565b9182918261062b565b0390f35b61023d565b611aa7611aa2611a927f3fa429af18b96ebd03aa5e8a3630af0779790dd2f41c6727ec4ec56669784f6b610bf1565b611a9c6001610c08565b90610c38565b610c62565b90565b611ab2611a63565b90565b34611ae557611ac53660046108e7565b611ae1611ad0611aaa565b611ad8610237565b9182918261062b565b0390f35b61023d565b5f90565b905090565b909182611b0381611b0a93611aee565b8093610582565b0190565b90565b611b1d611b229161067d565b611b0e565b9052565b611b379060209493611b3e93611af3565b8092611b11565b0190565b9091611b5990611b50610237565b93849384611b26565b03902090565b9091611b6a92611b42565b90565b611ba9611bae91939293611b7f611aea565b50611b88611aea565b50611b9e611b996008838891611b5f565b611096565b946009919091611b5f565b611096565b90565b90611bc8969594939291611bc3613e01565b612896565b611bd0613e64565b565b5f80fd5b5f80fd5b5f80fd5b90359060016101200381360303821215611bf6570190565b611bd2565b90821015611c15576020611c129202810190611bde565b90565b610fd8565b90565b611c31611c2c611c3692611c1a565b6108f9565b61067d565b90565b903590600160200381360303821215611c7b570180359067ffffffffffffffff8211611c7657602001916001820236038313611c7157565b611bda565b611bd6565b611bd2565b611c8b91369161058d565b90565b611cb3611caa92602092611ca181610b3a565b94858093611aee565b93849101610b47565b0190565b611cc7611cce9160209493611c8e565b8092611b11565b0190565b611ce6611cdd610237565b92839283611cb7565b03902090565b611cf591611cd2565b90565b611d0c611d07611d1192611c1a565b6108f9565b6102ca565b90565b611d1d90611cf8565b90565b903590600160200381360303821215611d62570180359067ffffffffffffffff8211611d5d57602001916020820236038313611d5857565b611bda565b611bd6565b611bd2565b60209181520190565b90565b50611d8290602081019061099c565b90565b611d8e9061061b565b9052565b5f80fd5b5f80fd5b5f80fd5b9035600160200382360303811215611ddf57016020813591019167ffffffffffffffff8211611dda576001820236038313611dd557565b611d96565b611d92565b611d9a565b9190611dfe81611df781611e0395610a3c565b8095610582565b610503565b0190565b611e4391611e356040820192611e2b611e225f830183611d73565b5f850190611d85565b6020810190611d9e565b916020818503910152611de4565b90565b90611e5091611e07565b90565b9035600160400382360303811215611e69570190565b611d9a565b60200190565b9181611e7f91611d67565b9081611e9060208302840194611d70565b92835f925b848410611ea55750505050505090565b9091929394956020611ed0611eca8385600195038852611ec58b88611e53565b611e46565b98611e6e565b940194019294939190611e95565b9091611ef59260208301925f818503910152611e74565b90565b67ffffffffffffffff8111611f105760208091020190565b61050d565b67ffffffffffffffff8111611f2d5760208091020190565b61050d565b929190611f46611f4182611f15565b61054a565b9381855260208086019202810191838311611f9d5781905b838210611f6c575050505050565b813567ffffffffffffffff8111611f9857602091611f8d87849387016106ee565b815201910190611f5e565b610249565b610251565b9080601f83011215611fc057816020611fbd93359101611f32565b90565b610249565b919091610120818403126120c957611fde61012061054a565b925f82013567ffffffffffffffff81116120c45781611ffe9184016105c3565b5f85015261200f8160208401610694565b60208501526120218160408401610694565b60408501526120338160608401610694565b60608501526120458160808401610694565b60808501526120578160a08401610694565b60a08501526120698160c084016106b7565b60c085015260e082013567ffffffffffffffff81116120bf578161208e9184016105c3565b60e085015261010082013567ffffffffffffffff81116120ba576120b29201611fa2565b610100830152565b610679565b610679565b610679565b610675565b9291906120e26120dd82611ef8565b61054a565b93818552602080860192028101918383116121395781905b838210612108575050505050565b813567ffffffffffffffff8111612134576020916121298784938701611fc5565b8152019101906120fa565b610249565b610251565b6121499136916120ce565b90565b67ffffffffffffffff81116121645760208091020190565b61050d565b92919061217d6121788261214c565b61054a565b93818552602080860192028101918383116121d45781905b8382106121a3575050505050565b813567ffffffffffffffff81116121cf576020916121c487849387016105c3565b815201910190612195565b610249565b610251565b6121e4913691612169565b90565b67ffffffffffffffff81116121ff5760208091020190565b61050d565b90929192612219612214826121e7565b61054a565b938185526020808601920283019281841161225657915b83831061223d5750505050565b6020809161224b8486610694565b815201920191612230565b610251565b612266913691612204565b90565b67ffffffffffffffff81116122815760208091020190565b61050d565b9190916040818403126122d85761229d604061054a565b926122aa815f840161099c565b5f850152602082013567ffffffffffffffff81116122d3576122cc92016105c3565b6020830152565b610679565b610675565b9291906122f16122ec82612269565b61054a565b93818552602080860192028101918383116123485781905b838210612317575050505050565b813567ffffffffffffffff8111612343576020916123388784938701612286565b815201910190612309565b610249565b610251565b6123589136916122dd565b90565b5090565b61236890610d23565b90565b6123749061235f565b90565b61238090610d3f565b90565b60e01b90565b90505190612396826106cb565b565b906020828203126123b1576123ae915f01612389565b90565b610241565b60209181520190565b90565b506123d1906020810190610694565b90565b506123e39060208101906106b7565b90565b6123ef906102d5565b9052565b903560016020038236030381121561243457016020813591019167ffffffffffffffff821161242f57602082023603831361242a57565b611d96565b611d92565b611d9a565b60209181520190565b90565b506124549060208101906106df565b90565b612460906106c6565b9052565b9061255c906101006125546125166124fb61012085016124926124895f8a018a6123c2565b5f8801906113a4565b6124ac6124a260208a018a6123c2565b60208801906113a4565b6124c66124bc60408a018a6123c2565b60408801906113a4565b6124e06124d660608a018a6123d4565b60608801906123e6565b6124ed6080890189611d9e565b908783036080890152611de4565b61250860a0880188611d9e565b9086830360a0880152611de4565b9461253161252760c0830183612445565b60c0860190612457565b61254b61254160e0830183612445565b60e0860190612457565b82810190612445565b910190612457565b90565b9061256991612464565b90565b903560016101200382360303811215612583570190565b611d9a565b60200190565b918161259991612439565b90816125aa60208302840194612442565b92835f925b8484106125bf5750505050505090565b90919293949560206125ea6125e483856001950388526125df8b8861256c565b61255f565b98612588565b9401940192949391906125af565b6126f5916126e66126da61262361012084016126165f870187611d9e565b908683035f880152611de4565b61263d61263360208701876123c2565b60208601906113a4565b61265761264d60408701876123c2565b60408601906113a4565b61267161266760608701876123c2565b60608601906113a4565b61268b61268160808701876123c2565b60808601906113a4565b6126a561269b60a08701876123c2565b60a08601906113a4565b6126bf6126b560c08701876123d4565b60c08601906123e6565b6126cc60e0860186611d9e565b9085830360e0870152611de4565b926101008101906123f3565b9161010081850391015261258e565b90565b90612702916125f8565b90565b90356001610120038236030381121561271c570190565b611d9a565b60200190565b9181612732916123b6565b9081612743602083028401946123bf565b92835f925b8484106127585750505050505090565b909192939495602061278361277d83856001950388526127788b88612705565b6126f8565b98612721565b940194019294939190612748565b60209181520190565b90565b906127a89291611de4565b90565b60200190565b91816127bc91612791565b90816127cd6020830284019461279a565b92835f925b8484106127e25750505050505090565b909192939495602061280e61280883856001950388526128028b88611d9e565b9061279d565b986127ab565b9401940192949391906127d2565b929061283890612846959360408601918683035f880152612727565b9260208185039101526127b1565b90565b612851610237565b3d5f823e3d90fd5b91906128738161286c8161287895610b3e565b8095610582565b610503565b0190565b90916128939260208301925f818503910152612859565b90565b9461298a61297884966128ee936129508887612991989d61294a6129969b8f612944906128f36128e56128df6128d6848a6128d05f611c1d565b91611bfb565b5f810190611c39565b90611c80565b9d8e600a611cec565b611096565b8061290e6129086129035f611d14565b6102d5565b916102d5565b03612ad9575b509491959361293e8a956129386129308c946020810190611d20565b96909961213e565b986121d9565b9461225b565b9361234d565b9261493d565b9161297261295e8d8d61235b565b939161296c8c948c9261225b565b936121d9565b92614c87565b61298588918a909261213e565b614d70565b6009611cec565b611096565b90816129b26129ac6129a75f611d14565b6102d5565b916102d5565b036129f5575b50505050507f4e7b26406bcc33a8d2611ef36c6bec73db957dc63f520880c9836d30c827973f6129e6610237565b806129f0816104ca565b0390a1565b612a08612a0360209361236b565b612377565b612a2c5f6391b48109612a3788958a98612a20610237565b998a9889978896612383565b86526004860161281c565b03925af18015612ad457612a53915f91612aa6575b50156106c6565b612a5f578080806129b8565b612a8091612a779190612a715f611c1d565b91611bfb565b5f810190611c39565b90612aa2612a8c610237565b928392630789291760e31b84526004840161287c565b0390fd5b612ac7915060203d8111612acd575b612abf8183610521565b810190612398565b5f612a4c565b503d612ab5565b612849565b612b3a90612b1e612b19612af1896020810190611d20565b9190612b0a612afe610237565b93849260208401611ede565b60208201810382520382610521565b612bcc565b612b34612b2e895f810190611c39565b90611c80565b90613f6d565b5f612914565b90612b4f969594939291611bb1565b565b5f90565b905090565b5f7f19457468657265756d205369676e6564204d6573736167653a0a333200000000910152565b612b8d601c8092612b55565b612b9681612b5a565b0190565b90565b612ba9612bae9161061b565b612b9a565b9052565b90612bc8612bc1602093612b81565b8092612b9d565b0190565b612c12612c0391612bdb612b51565b50612bee612be882610b3a565b91611647565b20612bf7610237565b92839160208301612bb2565b60208201810382520382610521565b612c24612c1e82610b3a565b91611647565b2090565b612c47612c50602093612c5593612c3e81610b3a565b93848093610a3c565b95869101610b47565b610503565b0190565b90612d069061010080612cd7612cc56101208501612c7d5f8901515f8801906113a4565b612c8f602089015160208801906113a4565b612ca1604089015160408801906113a4565b612cb3606089015160608801906123e6565b60808801518682036080880152612c28565b60a087015185820360a0870152612c28565b94612cea60c082015160c0860190612457565b612cfc60e082015160e0860190612457565b0151910190612457565b90565b612d1e9160208201915f818403910152612c59565b90565b5f90565b60209181520190565b60207f7368000000000000000000000000000000000000000000000000000000000000917f52657475726e2076616c7565206973206e6f742073746f7265642061732068615f8201520152565b612d886022604092612d25565b612d9181612d2e565b0190565b612daa9060208101905f818303910152612d7b565b90565b612de0612dd191612dbc612b51565b50612dc5610237565b92839160208301612d09565b60208201810382520382610521565b612df2612dec82610b3a565b91611647565b20612e0e612dfe610c7e565b82612e085f611c1d565b91614f20565b612e16612d21565b505c612e2c612e266001196108fc565b9161067d565b14612e5357612e39610237565b62461bcd60e51b815280612e4f60048201612d95565b0390fd5b612e6f90612e5f6116ab565b90612e695f611c1d565b91614f20565b612e77612b51565b505c90565b5f90565b6001612e8c910161067d565b90565b90612e9982611391565b811015612eaa576020809102010190565b610fd8565b612eb9905161067d565b90565b90612ece612ec8612e7c565b926135d3565b612ed6612d21565b5b80612ef2612eec612ee785611391565b61067d565b9161067d565b1015612f3a57612f0b612f06838390612e8f565b612eaf565b612f1d612f178561067d565b9161067d565b14612f3057612f2b90612e80565b612ed7565b505050506001905b565b50505090612f38565b606090565b90612f5a612f558361055f565b61054a565b918252565b369037565b90612f89612f7183612f48565b92602080612f7f869361055f565b9201910390612f5f565b565b90565b612fa2612f9d612fa792612f8b565b6108f9565b61067d565b90565b60407f7374656164000000000000000000000000000000000000000000000000000000917f52657475726e2076616c756520746f6f206c6172676520666f722072657472695f8201527f6576616c202d207573652067657452657475726e56616c75654861736820696e60208201520152565b61302a6045606092612d25565b61303381612faa565b0190565b61304c9060208101905f81830391015261301d565b90565b90565b61306661306161306b9261304f565b6108f9565b61067d565b90565b61307d6130839193929361067d565b9261067d565b820180921161308e57565b610c24565b90565b6130aa6130a56130af92613093565b6108f9565b61067d565b90565b634e487b7160e01b5f52601260045260245ffd5b6130d26130d89161067d565b9161067d565b9081156130e3570490565b6130b2565b6130f76130fd9193929361067d565b9261067d565b9161310983820261067d565b92818404149015171561311857565b610c24565b6131506131419161312c612f43565b50613135610237565b92839160208301612d09565b60208201810382520382610521565b61316261315c82610b3a565b91611647565b209061317f61316f610c7e565b836131795f611c1d565b91614f20565b613187612d21565b505c8061319c6131965f611c1d565b9161067d565b1461330057806131b56131af5f19612f8e565b9161067d565b146132e957806131cf6131c96001196108fc565b9161067d565b146132c7576131fb6131eb826131e5601f613052565b9061306e565b6131f56020613096565b906130c6565b9161320582612f64565b9061320f5f611c1d565b5b8061322361321d8761067d565b9161067d565b10156132be57613298906132406132386116ab565b888391614f20565b613248612b51565b505c61325e826132586020613096565b906130e8565b6132728161326c6020613096565b9061306e565b61328461327e8961067d565b9161067d565b11155f1461329d576020018501525b612e80565b613210565b9060018060086132ae8a8690610c38565b021b031690602001850152613293565b50935091505090565b6132cf610237565b62461bcd60e51b8152806132e560048201613037565b0390fd5b5090506132fd6132f85f611c1d565b612f64565b90565b50905061331461330f5f611c1d565b612f64565b90565b6133329061333792613327611aea565b50600a919091611b5f565b611096565b90565b61334b613345612e7c565b916135d3565b6133536136ec565b9061335c612d21565b5b8061337861337261336d85611391565b61067d565b9161067d565b10156133c05761339161338c838390612e8f565b612eaf565b6133a361339d8561067d565b9161067d565b116133b6576133b190612e80565b61335d565b505050506001905b565b505050906133be565b6133d1614f75565b6133d96133db565b565b6133ec6133e75f611d14565b614fc3565b565b6133f66133c9565b565b613400611aea565b5061340b6001611096565b90565b9061342293929161341d614f75565b61348a565b565b9061343560018060a01b0391610c5d565b9181191691161790565b90565b9061345761345261345e92610d4b565b61343f565b8254613424565b9055565b909161346d92611af3565b90565b61348461347b610237565b92839283613462565b03902090565b6134f46134ee6134fa929593956134ad866134a86008848b91611b5f565b613442565b6134c3856134be6009848b91611b5f565b613442565b959493947fd3a72bc26134af0effafb6bfd539e3481d48d2dccd79254eb4c069b555f6aaaa96613470565b92610d4b565b92610d4b565b92613503610237565b8061350d816104ca565b0390a4565b9061351e93929161340e565b565b606090565b60209181520190565b6135389054611056565b90565b60010190565b9061355e613558613551846114dd565b8093613525565b926114e1565b905f5b81811061356e5750505090565b90919261358e6135886001926135838761352e565b6113b1565b9461353b565b9101919091613561565b906135a291613541565b90565b906135c56135be926135b5610237565b93848092613598565b0383610521565b565b6135d0906135a5565b90565b6136266135fd61360c61362b936135e8613520565b506135f1610237565b92839160208301612d09565b60208201810382520382610521565b61361e61361882610b3a565b91611647565b2060076114c7565b6135c7565b9061363582611391565b6136476136415f611c1d565b9161067d565b1461364e57565b5f6334dfbc7360e11b815280613666600482016104ca565b0390fd5b6136916136a06136cb9261367c612e7c565b50613685610237565b92839160208301612d09565b60208201810382520382610521565b6136b26136ac82610b3a565b91611647565b206136bb610c7e565b906136c55f611c1d565b91614f20565b6136d3612d21565b505c6136e86136e25f19612f8e565b9161067d565b1490565b6136f4612d21565b50613705613700611a63565b610bf1565b5c90565b61373061373f61376a9261371b612e7c565b50613724610237565b92839160208301612d09565b60208201810382520382610521565b61375161374b82610b3a565b91611647565b2061375a610c7e565b906137645f611c1d565b91614f20565b613772612d21565b505c806137876137815f611c1d565b9161067d565b14159081613794575b5090565b90506137a96137a35f19612f8e565b9161067d565b14155f613790565b906137c492916137bf614f75565b6137c6565b565b61380e613814919392936137e6846137e1600a848991611b5f565b613442565b937f9bb5303fccb2cc5e8ffb7f0bd5c1de16b145ff138a234ef1921135cc45e7376194613470565b91610d4b565b9161381d610237565b80613827816104ca565b0390a3565b9061383792916137b1565b565b906138455f1991610c5d565b9181191691161790565b90565b9061386761386261386e92610bd5565b61384f565b8254613839565b9055565b3461388561387f5f611c1d565b9161067d565b146138f9576138b2346138ac61389d60043390610d57565b916138a78361106a565b61306e565b90613852565b3334906138f46138e27fe1fffcc4923d04b559f4d29a8bfc6cda04eb5b0d3c460751c2402c5c5cc9109c92610d4b565b926138eb610237565b9182918261093e565b0390a2565b5f63162908e360e11b815280613911600482016104ca565b0390fd5b3561391f81610680565b90565b60601b90565b61393190613922565b90565b61393d90613928565b90565b61394c613951916102d5565b613934565b9052565b60206139989461398882809998959661398060148761397861399099869c613940565b018092611b11565b018092611b11565b018092611b11565b018092611b11565b0190565b613a9991613a8a613a7e6139c761012084016139ba5f870187611d9e565b908683035f880152611de4565b6139e16139d760208701876123c2565b60208601906113a4565b6139fb6139f160408701876123c2565b60408601906113a4565b613a15613a0b60608701876123c2565b60608601906113a4565b613a2f613a2560808701876123c2565b60808601906113a4565b613a49613a3f60a08701876123c2565b60a08601906113a4565b613a63613a5960c08701876123d4565b60c08601906123e6565b613a7060e0860186611d9e565b9085830360e0870152611de4565b926101008101906123f3565b9161010081850391015261258e565b90565b613ab19160208201915f81840391015261399c565b90565b939190613af99593613ade613aeb93613ad460808901945f8a0190610931565b6020880190610931565b858203604087015261399c565b926060818503910152611e74565b90565b613b059061067d565b5f198114613b135760010190565b610c24565b9291613b22612b51565b5033613b67613b3360608701613915565b91613b58613b41600261106a565b424491613b4c610237565b96879560208701613955565b60208201810382520382610521565b613b79613b7382610b3a565b91611647565b2093613b9b613b966008613b90845f810190611c39565b91611b5f565b611096565b80613bb6613bb0613bab5f611d14565b6102d5565b916102d5565b03613c5e575b50613c3d908590613bcd600261106a565b613bda825f810190611c39565b613be960608597939701613915565b96613c2b613c2543969a9293613c1f7fcc175f8ad8ddf3378d4894bca9146d66366d35f0a97022734278b2902a71f317996109c9565b99613470565b98610bd5565b98613c34610237565b95869586613ab4565b0390a4613c5c613c55613c50600261106a565b613afc565b6002613852565b565b6020613c74613c6f613ca19361236b565b612377565b63cad7b6b5613c96349291928693613c8a610237565b96879586948593612383565b835260048301613a9c565b03925af18015613d2857613cbd915f91613cfa575b50156106c6565b613cc7575f613bbc565b613cd4905f810190611c39565b90613cf6613ce0610237565b92839263202691f760e01b84526004840161287c565b0390fd5b613d1b915060203d8111613d21575b613d138183610521565b810190612398565b5f613cb6565b503d613d09565b612849565b613d3e90613d39614f75565b613d40565b565b80613d5b613d55613d505f611d14565b6102d5565b916102d5565b14613d6b57613d6990614fc3565b565b613d8e613d775f611d14565b5f918291631e4fbdf760e01b835260048301610f2b565b0390fd5b613d9b90613d2d565b565b5f63b15db18960e01b815280613db5600482016104ca565b0390fd5b5f63b15db18960e01b815280613dd1600482016104ca565b0390fd5b90565b613dec613de7613df192613dd5565b6108f9565b61067d565b90565b613dfe6002613dd8565b90565b613e0a5f61106a565b613e23613e1d613e18613df4565b61067d565b9161067d565b14613e3b57613e39613e33613df4565b5f613852565b565b5f633ee5aeb560e01b815280613e53600482016104ca565b0390fd5b613e616001610c08565b90565b613e75613e6f613e57565b5f613852565b565b90565b613e8e613e89613e9392613e77565b6108f9565b61067d565b90565b5f7f496e76616c6964207369676e6174757265206c656e6774680000000000000000910152565b613eca6018602092612d25565b613ed381613e96565b0190565b613eec9060208101905f818303910152613ebd565b90565b15613ef657565b613efe610237565b62461bcd60e51b815280613f1460048201613ed7565b0390fd5b5f90565b60ff1690565b613f2b90613f1c565b9052565b613f64613f6b94613f5a606094989795613f50608086019a5f87019061061e565b6020850190613f22565b604083019061061e565b019061061e565b565b6020915f91613f97613f7e83610b3a565b613f91613f8b6041613e7a565b9161067d565b14613eef565b613f9f612b51565b50613fa8612b51565b50613fb1613f18565b50613fd8848301519260606040820151910151851a93613fcf610237565b94859485613f2f565b838052039060015afa1561402a57613ff05f51610c5d565b80614003613ffd846102d5565b916102d5565b0361400c575050565b6140265f928392631276ad1960e11b8452600484016102ee565b0390fd5b612849565b5190565b9061403d8261402f565b81101561404e576020809102010190565b610fd8565b61405d90516102d5565b90565b5190565b60209181520190565b60200190565b9061412090610100806140f16140df61012085016140975f8901515f8801906113a4565b6140a9602089015160208801906113a4565b6140bb604089015160408801906113a4565b6140cd606089015160608801906123e6565b60808801518682036080880152612c28565b60a087015185820360a0870152612c28565b9461410460c082015160c0860190612457565b61411660e082015160e0860190612457565b0151910190612457565b90565b9061412d91614073565b90565b60200190565b9061414a61414383614060565b8092614064565b908161415b6020830284019461406d565b925f915b83831061416e57505050505090565b9091929394602061419061418a83856001950387528951614123565b97614130565b930193019193929061415f565b6141b29160208201915f818403910152614136565b90565b6141d96141e69492936141cf60608401955f850190610931565b60208301906102e1565b6040818403910152610b52565b90565b90565b5f5260205f2090565b5490565b614202816141f5565b82101561421c576142146001916141ec565b910201905f90565b610fd8565b61422c9060076130e8565b90565b1b90565b9190600861424e9102916142485f198461422f565b9261422f565b9181191691161790565b919061426e61426961427693610bd5565b61384f565b908354614233565b9055565b61428c91614286612d21565b91614258565b565b906142a1905f1990602003600802610d6d565b8154169055565b5b8181106142b4575050565b806142c15f60019361427a565b016142a9565b906142d7905f1990600802610d6d565b191690565b816142e6916142c7565b906002021790565b905f916143056142fd82610a45565b9283546142dc565b905555565b601f602091010490565b919290602082105f1461436d57601f841160011461433d576143379293506142dc565b90555b5b565b509061436361436893600161435a61435485610a45565b9261430a565b820191016142a8565b6142ee565b61433a565b506143a4829361437e600194610a45565b61439d61438a8561430a565b820192601f8616806143af575b5061430a565b01906142a8565b60020217905561433b565b6143bb9088860361428e565b5f614397565b929091680100000000000000008211614421576020115f1461441257602081105f146143f6576143f0916142dc565b90555b5b565b60019160ff191661440684610a45565b556002020190556143f3565b600191506002020190556143f4565b61050d565b90815461443281610a12565b9081831161445b575b818310614449575b50505050565b61445293614314565b5f808080614443565b614467838383876143c1565b61443b565b5b818110614478575050565b806144855f60019361427a565b0161446d565b5f61449591614426565b565b905f036144a9576144a79061448b565b565b6109eb565b60065f916144be8380830161427a565b6144cb836001830161427a565b6144d8836002830161427a565b8260038201556144eb8360048301614497565b6144f88360058301614497565b0155565b905f0361450e5761450c906144ae565b565b6109eb565b5b81811061451f575050565b8061452c5f6007936144fc565b01614514565b9091828110614541575b505050565b61455f61455961455361456a95614221565b92614221565b92611025565b918201910190614513565b5f808061453c565b9068010000000000000000811161459b578161459061459993611021565b90828155614532565b565b61050d565b5190565b5190565b9190601f81116145b8575b505050565b6145c46145e993610a45565b9060206145d08461430a565b830193106145f1575b6145e29061430a565b01906142a8565b5f80806145b3565b91506145e2819290506145d9565b9061460981610b3a565b9067ffffffffffffffff82116146c95761462d826146278554610a12565b856145a8565b602090601f831160011461466157918091614650935f92614655575b50506142dc565b90555b565b90915001515f80614649565b601f1983169161467085610a45565b925f5b8181106146b157509160029391856001969410614697575b50505002019055614653565b6146a7910151601f8416906142c7565b90555f808061468b565b91936020600181928787015181550195019201614673565b61050d565b906146d8916145ff565b565b6146e490516106c6565b90565b906146f360ff91610c5d565b9181191691161790565b614706906106c6565b90565b90565b9061472161471c614728926146fd565b614709565b82546146e7565b9055565b60081b90565b9061473f61ff009161472c565b9181191691161790565b9061475e614759614765926146fd565b614709565b8254614732565b9055565b60101b90565b9061477d62ff000091614769565b9181191691161790565b9061479c6147976147a3926146fd565b614709565b825461476f565b9055565b906148806101006006614886946147cb5f82016147c55f8801612eaf565b90613852565b6147e4600182016147de60208801612eaf565b90613852565b6147fd600282016147f760408801612eaf565b90613852565b6148166003820161481060608801614053565b90613442565b61482f60048201614829608088016145a4565b906146ce565b6148486005820161484260a088016145a4565b906146ce565b61486082820161485a60c088016146da565b9061470c565b61487882820161487260e088016146da565b90614749565b0192016146da565b90614787565b565b90614892916147a7565b565b6148b96148b36148a384614060565b936148ae8585614572565b61406d565b91611025565b5f915b8383106148c95750505050565b60076020826148e26148dc6001956145a0565b86614888565b019201920191906148bc565b91906148ff576148fd91614894565b565b6109eb565b9081549168010000000000000000831015614934578261492c916001614932950181556141f9565b906148ee565b565b61050d565b5190565b919390929361494a612d21565b946149548461402f565b9461495d612d21565b965b8761497261496c8961067d565b9161067d565b1015614a9657614a8a614a9091614a488a89614a4260c0614a3b614a246149a6602061499f878990614033565b5101612eaf565b614a1f6149bf856149b8898b90614033565b5101614053565b91614a106149ed6149fc6101006149d68d8d614033565b5101516149e1610237565b9283916020830161419d565b60208201810382520382610521565b614a04610237565b948593602085016141b5565b60208201810382520382610521565b612bcc565b9460e0614a32868390614033565b51015194614033565b5101614053565b91613f6d565b614a6b614a5560036141e9565b610100614a628d8c614033565b51015190614904565b614a84610100614a7c8a8d90614033565b510151614060565b9061306e565b97612e80565b9661495f565b9650919350919350614ab9614ab3614aae8793614939565b61067d565b9161067d565b03614ae157614aca614acf92615024565b61512d565b614ad76151d0565b614adf6153bc565b565b5f631fec674760e31b815280614af9600482016104ca565b0390fd5b90614b0f614b0a836121e7565b61054a565b918252565b369037565b90614b3e614b2683614afd565b92602080614b3486936121e7565b9201910390614b14565b565b90614b4a82614939565b811015614b5b576020809102010190565b610fd8565b90614b6a9061067d565b9052565b90614b78906102d5565b9052565b52565b90614b89906106c6565b9052565b614b9861012061054a565b90565b90614c79614c6f6006614bac614b8d565b94614bc3614bbb5f830161106a565b5f8801614b60565b614bdb614bd26001830161106a565b60208801614b60565b614bf3614bea6002830161106a565b60408801614b60565b614c0b614c0260038301611096565b60608801614b6e565b614c23614c1a60048301610ae7565b60808801614b7c565b614c3b614c3260058301610ae7565b60a08801614b7c565b614c52614c498383016110bd565b60c08801614b7f565b614c69614c608383016110e4565b60e08801614b7f565b0161110b565b6101008401614b7f565b565b614c8490614b9b565b90565b614c9c90939193614c96613520565b50614b19565b93614ca65f611c1d565b5b80614cba614cb48761067d565b9161067d565b1015614d6157614d5c90614d57614d0d614d52614d2f5a614cda866154c5565b614d28614cf8614cf3614cee8d8a90612e8f565b612eaf565b6154d8565b959095614d0760038890610ff9565b5061102e565b50614d23614d1c8c8a90614b40565b5191614c7b565b6155f0565b5a90610c38565b614d4c8b9391614d47614d428487612e8f565b612eaf565b61306e565b92612e8f565b614b60565b612e80565b614ca7565b5092505050614d6e615772565b565b9190614d7b8361402f565b91614d84612d21565b5b80614d98614d928661067d565b9161067d565b1015614ec057614dee614dd1614db7614db2868590612e8f565b612eaf565b614dcb614dc5898690614033565b51615784565b906130e8565b614de86040614de1898690614033565b5101612eaf565b9061306e565b90614e19614e146004614e0e60c0614e078b8790614033565b5101614053565b90610d57565b61106a565b614e2b614e258461067d565b9161067d565b10614ea457614e9a82614e76614e9f94614e70614e618b614e5b60c0614e546004938b90614033565b5101614053565b90610d57565b91614e6b8361106a565b610c38565b90613852565b614e94614e8560043390610d57565b91614e8f8361106a565b61306e565b90613852565b612e80565b614d85565b5f6375483b5360e01b815280614ebc600482016104ca565b0390fd5b5092505050565b5f61190160f01b910152565b614edf60028092612b55565b614ee881614ec7565b0190565b60209392614f1485614f1c94614f0c614f058396614ed3565b8092612b9d565b018092612b9d565b018092611b11565b0190565b614f729291614f4b614f5a92614f34612d21565b509193614f3f610237565b94859360208501614eec565b60208201810382520382610521565b614f6c614f6682610b3a565b91611647565b20610bf1565b90565b614f7d6133f8565b614f96614f90614f8b6157bb565b6102d5565b916102d5565b03614f9d57565b614fbf614fa86157bb565b5f91829163118cdaa760e01b835260048301610f2b565b0390fd5b614fcd6001611096565b614fd8826001613442565b9061500c6150067f8be0079c531659141344cd1fd0a4f28419497f9722a3daafe3b4186f6b6457e093610d4b565b91610d4b565b91615015610237565b8061501f816104ca565b0390a3565b61504e61503f91615033610237565b92839160208301611418565b60208201810382520382610521565b61505e615059610e1d565b610bf1565b5d565b5190565b90565b9061507282615061565b811015615083576020809102010190565b610fd8565b615092905161061b565b90565b5f5260205f2090565b5490565b6150ab8161509e565b8210156150c5576150bd600191615095565b910201905f90565b610fd8565b6150d390610bd0565b90565b91906150ec6150e76150f4936109c9565b6150ca565b908354614233565b9055565b90815491680100000000000000008310156151285782615120916001615126950181556150a2565b906150d6565b565b61050d565b9061513782615061565b90615140612d21565b5b8061515461514e8561067d565b9161067d565b10156151ca576151c59061518761516b6005615065565b6151815f61517a898690615068565b5101615088565b906150f8565b6151c06020615197878490615068565b5101516151bb60066151b55f6151ae8b8890615068565b5101615088565b906109d5565b6146ce565b612e80565b615141565b50915050565b6151e06151db610ea4565b610bf1565b6151ea6003610fec565b9081815d6151f75f611c1d565b5b8061520b6152058561067d565b9161067d565b10156152535761524e9061522a61522460038390610ff9565b50611021565b61524861523885849061306e565b6152426001610c08565b9061306e565b5d612e80565b6151f8565b505050565b906153349061010061532c60066152f86152e7610120860161528861527f5f8b0154611056565b5f8901906113a4565b6152a261529860018b0154611056565b60208901906113a4565b6152bc6152b260028b0154611056565b60408901906113a4565b6152d66152cc60038b0154611082565b60608901906123e6565b600489018782036080890152610a4e565b6005880186820360a0880152610a4e565b950154615311615307826110a9565b60c0860190612457565b61532761531d826110d0565b60e0860190612457565b6110f7565b910190612457565b90565b61534c9160208201915f818403910152615258565b90565b90565b5f5260205f2090565b5490565b6153688161535b565b8210156153825761537a600191615352565b910201905f90565b610fd8565b90815491680100000000000000008310156153b757826153af9160016153b59501815561535f565b90614258565b565b61050d565b6153c4615886565b906153ce5f611c1d565b5b806153ea6153e46153df86611391565b61067d565b9161067d565b101561548a576154859061548061547961547461543761544c61545b61542161541c6154178c8a90612e8f565b612eaf565b6154d8565b9390936154316007956003610ff9565b5061102e565b50615440610237565b92839160208301615337565b60208201810382520382610521565b61546d61546782610b3a565b91611647565b20906114c7565b61534f565b8290615387565b612e80565b6153cf565b5090507f6ab8e5643940131a827ae56d032a513f11030f038578094b579a0aa3bb6dcba36154b6610237565b806154c0816104ca565b0390a1565b6154d56154d0611a63565b610bf1565b5d565b906154e1612d21565b506154ea612d21565b506154f45f611c1d565b6155046154ff610ea4565b610bf1565b9161550d612d21565b50825c9261551a5f611c1d565b925b8361552f6155298761067d565b9161067d565b10156155ab5761553d612d21565b5061555c61554c83869061306e565b6155566001610c08565b9061306e565b5c8661557a61557461556f85859061306e565b61067d565b9161067d565b10615599576155939161558d919061306e565b93612e80565b9261551c565b50919350506155a89193610c38565b90565b5f634f65764960e01b8152806155c3600482016104ca565b0390fd5b3d5f146155e2576155d73d612f48565b903d5f602084013e5b565b6155ea612f43565b906155e0565b905f806155ff60608501614053565b61560b60408601612eaf565b61561760208701612eaf565b91909160808701519160208301925193f19061563b6156346155c7565b92156106c6565b6157565761564b60e084016146da565b615655575b505050565b60a083015161566c61566682610b3a565b91611647565b2061568661568061567b61164d565b61061b565b9161061b565b145f1461574b575b6156a061569a82610b3a565b91611647565b206156c66156c0836156ba6156b482610b3a565b91611647565b2061061b565b9161061b565b0361572f576156d861010083016146da565b6156e3575b80615650565b615701615710615728936156f5610237565b92839160208301612d09565b60208201810382520382610521565b61572261571c82610b3a565b91611647565b206158fb565b5f806156dd565b5f6366345c5d60e11b815280615747600482016104ca565b0390fd5b5060a082015161568e565b5f633204506f60e01b81528061576e600482016104ca565b0390fd5b61577a615b62565b615782615c8f565b565b6157b890615790612d21565b506157b26157ac60a06157a560808501612eaf565b9301612eaf565b4861306e565b90615d7c565b90565b6157c3611aea565b503390565b905051906157d582610680565b565b909291926157ec6157e7826121e7565b61054a565b938185526020808601920283019281841161582957915b8383106158105750505050565b6020809161581e84866157c8565b815201920191615803565b610251565b9080601f8301121561584c57816020615849935191016157d7565b90565b610249565b90602082820312615881575f82015167ffffffffffffffff811161587c57615879920161582e565b90565b610245565b610241565b61588e613520565b50615897612f43565b506158a86158a3610e1d565b610bf1565b5c6158b281610b3a565b6158c46158be5f611c1d565b9161067d565b146158e6576158e39060206158d882610b3a565b818301019101615851565b90565b506158f86158f35f611c1d565b614b19565b90565b919061590681610b3a565b90615922615912610c7e565b8561591c5f611c1d565b91614f20565b92826159366159305f611c1d565b9161067d565b14615a885761594482615dac565b615a4d57826159706159608261595a601f613052565b9061306e565b61596a6020613096565b906130c6565b945d61597b5f611c1d565b5b8061598f6159898761067d565b9161067d565b1015615a4557615a08906159ac6159a46116ab565b888391614f20565b6159b4612b51565b506159dc6159cc836159c66020613096565b906130e8565b6159d66020613096565b9061306e565b6159ee6159e88861067d565b9161067d565b11155f14615a0d5760208202602001850151905b5d612e80565b61597c565b615a2b86615a2584615a1f6020613096565b906130e8565b90610c38565b60018060086020860260200189015193021b031690615a02565b509350505050565b9390615a859250615a66615a6082610b3a565b91611647565b2092600119905d615a756116ab565b90615a7f5f611c1d565b91614f20565b5d565b93505050600119905d565b600190818003010490565b615ab091615aaa612b51565b916150d6565b565b5b818110615abe575050565b80615acb5f600193615a9e565b01615ab3565b9091828110615ae0575b505050565b615afe615af8615af2615b0995615a93565b92615a93565b926119a8565b918201910190615ab2565b5f8080615adb565b90680100000000000000008111615b3a5781615b2f615b38936119a4565b90828155615ad1565b565b61050d565b5f615b4991615b11565b565b905f03615b5d57615b5b90615b3f565b565b6109eb565b615b6c60056119a4565b80615b7f615b795f611c1d565b9161067d565b11615b88575b50565b615b90612d21565b5b80615ba4615b9e8461067d565b9161067d565b1015615be057615bdb90615bd65f615bd1615bca615bc4600586906119b1565b906119f4565b60066109d5565b614497565b612e80565b615b91565b5050615bed5f6005615b4b565b5f615b85565b600190818003010490565b9091828110615c0d575b505050565b615c2b615c25615c1f615c3695615bf3565b92615bf3565b926114e1565b91820191019061446c565b5f8080615c08565b90680100000000000000008111615c675781615c5c615c65936114dd565b90828155615bfe565b565b61050d565b5f615c7691615c3e565b565b905f03615c8a57615c8890615c6c565b565b6109eb565b615c97612d21565b905b81615cb5615caf615caa6003610fec565b61067d565b9161067d565b1015615d7857615cc3612d21565b5b80615ceb615ce5615ce0615cda60038890610ff9565b50611021565b61067d565b9161067d565b1015615d6757615d6290615d5d5f615d586007615d30615d3f615d1b615d1360038c90610ff9565b50889061102e565b50615d24610237565b92839160208301615337565b60208201810382520382610521565b615d51615d4b82610b3a565b91611647565b20906114c7565b615c78565b612e80565b615cc4565b5090615d7290612e80565b90615c99565b9050565b90615d85612d21565b5081615d99615d938361067d565b9161067d565b105f14615da557505b90565b9050615da2565b615dbe90615db8612e7c565b50610b3a565b615dd7615dd1615dcc611828565b61067d565b9161067d565b119056fea26469706673582212202c50aa4d9866164e93802d9662f84994ec2ac26b9dfd5bf34639144b1554f54d64736f6c634300081e0033","linkReferences":{}},"methodIdentifiers":{"CALL_GRID_LENGTHS_SLOT()":"4727eb7e","CALL_ORDER_STORAGE_SLOT()":"44935016","CALL_RETURN_LENGTHS_SLOT()":"2dedf69c","CALL_RETURN_VALUES_SLOT()":"b640dc23","EMPTY_DATA()":"b077356b","EXECUTING_CALL_INDEX_SLOT()":"ff557675","LARGE_VALUE_MARKER()":"203efd4d","MAX_RETURN_VALUE_SIZE()":"eda40098","callGrid(uint256,uint256)":"70032094","callObjIndices(bytes32,uint256)":"a1be8cbd","deposit()":"d0e30db0","executeAndVerify((bytes,uint256,uint256,uint256,uint256,uint256,address,bytes,(uint256,uint256,uint256,address,bytes,bytes,bool,bool,bool)[])[],bytes[],uint256[],(bytes,(bytes32,bytes)[]))":"06c938d0","expectFutureCall((uint256,uint256,uint256,address,bytes,bytes,bool,bool,bool))":"6fc9900d","expectFutureCallAt((uint256,uint256,uint256,address,bytes,bytes,bool,bool,bool),uint256)":"182861ef","getApprovalAddresses(bytes)":"01c53f2c","getCallIndex((uint256,uint256,uint256,address,bytes,bytes,bool,bool,bool))":"9b35f3cf","getCurrentlyExecuting()":"a2f8e448","getMessageHash(bytes)":"0a1028c4","getReturnValue((uint256,uint256,uint256,address,bytes,bytes,bool,bool,bool))":"3de84360","getReturnValueHash((uint256,uint256,uint256,address,bytes,bytes,bool,bool,bool))":"0ca35aae","getValidatorAddress(bytes)":"52fad375","hasReturnValue((uint256,uint256,uint256,address,bytes,bytes,bool,bool,bool))":"ca49a6e4","hasZeroLengthReturnValue((uint256,uint256,uint256,address,bytes,bytes,bool,bool,bool))":"9f792a47","mevTimeDataKeyList(uint256)":"f71c2147","mevTimeDataStore(bytes32)":"27519460","owner()":"8da5cb5b","pushUserObjective((bytes,uint256,uint256,uint256,uint256,uint256,address,bytes,(uint256,uint256,uint256,address,bytes,bytes,bool,bool,bool)[]),(bytes32,bytes)[])":"f158e8f7","renounceOwnership()":"715018a6","senderBalances(address)":"38f2a300","sequenceCounter()":"a5494ce5","setApprovalAddresses(bytes,address,address)":"97c1eef7","setValidatorAddress(bytes,address)":"ce7de779","transferOwnership(address)":"f2fde38b"},"id":28}