{"abi":[{"type":"constructor","inputs":[{"name":"_laminator","type":"address","internalType":"address"},{"name":"_callBreaker","type":"address","internalType":"address"},{"name":"_owner","type":"address","internalType":"address"}],"stateMutability":"nonpayable"},{"type":"receive","stateMutability":"payable"},{"type":"function","name":"CALL_BREAKER_SLOT","inputs":[],"outputs":[{"name":"","type":"bytes32","internalType":"bytes32"}],"stateMutability":"view"},{"type":"function","name":"CALL_STATUS_SLOT","inputs":[],"outputs":[{"name":"","type":"bytes32","internalType":"bytes32"}],"stateMutability":"view"},{"type":"function","name":"EXECUTING_CALL_INDEX_SLOT","inputs":[],"outputs":[{"name":"","type":"bytes32","internalType":"bytes32"}],"stateMutability":"view"},{"type":"function","name":"EXECUTING_SEQUENCE_NUMBER_SLOT","inputs":[],"outputs":[{"name":"","type":"bytes32","internalType":"bytes32"}],"stateMutability":"view"},{"type":"function","name":"LAMINATOR_SLOT","inputs":[],"outputs":[{"name":"","type":"bytes32","internalType":"bytes32"}],"stateMutability":"view"},{"type":"function","name":"OWNER_SLOT","inputs":[],"outputs":[{"name":"","type":"bytes32","internalType":"bytes32"}],"stateMutability":"view"},{"type":"function","name":"SEQUENCE_NUMBER_SLOT","inputs":[],"outputs":[{"name":"","type":"bytes32","internalType":"bytes32"}],"stateMutability":"view"},{"type":"function","name":"callBreaker","inputs":[],"outputs":[{"name":"_callBreaker","type":"address","internalType":"contract ICallBreaker"}],"stateMutability":"view"},{"type":"function","name":"cancelAllPending","inputs":[],"outputs":[],"stateMutability":"nonpayable"},{"type":"function","name":"cancelPending","inputs":[{"name":"callSequenceNumber","type":"uint256","internalType":"uint256"}],"outputs":[],"stateMutability":"nonpayable"},{"type":"function","name":"cleanupLaminatorStorage","inputs":[{"name":"seqNumbers","type":"uint256[]","internalType":"uint256[]"}],"outputs":[],"stateMutability":"nonpayable"},{"type":"function","name":"copyCurrentJob","inputs":[{"name":"delay","type":"uint256","internalType":"uint256"},{"name":"shouldCopy","type":"bytes","internalType":"bytes"}],"outputs":[{"name":"","type":"uint256","internalType":"uint256"}],"stateMutability":"nonpayable"},{"type":"function","name":"count","inputs":[],"outputs":[{"name":"_count","type":"uint256","internalType":"uint256"}],"stateMutability":"view"},{"type":"function","name":"deferredCalls","inputs":[{"name":"index","type":"uint256","internalType":"uint256"}],"outputs":[{"name":"holder","type":"tuple","internalType":"struct CallObjectHolder","components":[{"name":"initialized","type":"bool","internalType":"bool"},{"name":"executed","type":"bool","internalType":"bool"},{"name":"nonce","type":"uint256","internalType":"uint256"},{"name":"firstCallableBlock","type":"uint256","internalType":"uint256"},{"name":"callObjs","type":"tuple[]","internalType":"struct CallObject[]","components":[{"name":"amount","type":"uint256","internalType":"uint256"},{"name":"gas","type":"uint256","internalType":"uint256"},{"name":"addr","type":"address","internalType":"address"},{"name":"callvalue","type":"bytes","internalType":"bytes"}]}]}],"stateMutability":"view"},{"type":"function","name":"execute","inputs":[{"name":"input","type":"bytes","internalType":"bytes"}],"outputs":[{"name":"","type":"bytes","internalType":"bytes"}],"stateMutability":"nonpayable"},{"type":"function","name":"executingCallIndex","inputs":[],"outputs":[{"name":"_execCallIndex","type":"uint256","internalType":"uint256"}],"stateMutability":"view"},{"type":"function","name":"executingNonce","inputs":[],"outputs":[{"name":"","type":"uint256","internalType":"uint256"}],"stateMutability":"view"},{"type":"function","name":"executingSequenceNumber","inputs":[],"outputs":[{"name":"_execSeqNum","type":"uint256","internalType":"uint256"}],"stateMutability":"view"},{"type":"function","name":"getExecutingCallObject","inputs":[],"outputs":[{"name":"","type":"tuple","internalType":"struct CallObject","components":[{"name":"amount","type":"uint256","internalType":"uint256"},{"name":"gas","type":"uint256","internalType":"uint256"},{"name":"addr","type":"address","internalType":"address"},{"name":"callvalue","type":"bytes","internalType":"bytes"}]}],"stateMutability":"view"},{"type":"function","name":"getExecutingCallObjectHolder","inputs":[],"outputs":[{"name":"","type":"tuple","internalType":"struct CallObjectHolder","components":[{"name":"initialized","type":"bool","internalType":"bool"},{"name":"executed","type":"bool","internalType":"bool"},{"name":"nonce","type":"uint256","internalType":"uint256"},{"name":"firstCallableBlock","type":"uint256","internalType":"uint256"},{"name":"callObjs","type":"tuple[]","internalType":"struct CallObject[]","components":[{"name":"amount","type":"uint256","internalType":"uint256"},{"name":"gas","type":"uint256","internalType":"uint256"},{"name":"addr","type":"address","internalType":"address"},{"name":"callvalue","type":"bytes","internalType":"bytes"}]}]}],"stateMutability":"view"},{"type":"function","name":"isCallExecuting","inputs":[],"outputs":[{"name":"_isExec","type":"bool","internalType":"bool"}],"stateMutability":"view"},{"type":"function","name":"laminator","inputs":[],"outputs":[{"name":"_laminator","type":"address","internalType":"contract ILaminator"}],"stateMutability":"view"},{"type":"function","name":"nextSequenceNumber","inputs":[],"outputs":[{"name":"_sequenceNumber","type":"uint256","internalType":"uint256"}],"stateMutability":"view"},{"type":"function","name":"owner","inputs":[],"outputs":[{"name":"_owner","type":"address","internalType":"address"}],"stateMutability":"view"},{"type":"function","name":"pull","inputs":[{"name":"seqNumber","type":"uint256","internalType":"uint256"}],"outputs":[{"name":"returnValue","type":"bytes","internalType":"bytes"}],"stateMutability":"nonpayable"},{"type":"function","name":"push","inputs":[{"name":"input","type":"bytes","internalType":"bytes"},{"name":"delay","type":"uint256","internalType":"uint256"}],"outputs":[{"name":"callSequenceNumber","type":"uint256","internalType":"uint256"}],"stateMutability":"nonpayable"},{"type":"function","name":"viewDeferredCall","inputs":[{"name":"seqNumber","type":"uint256","internalType":"uint256"}],"outputs":[{"name":"","type":"bool","internalType":"bool"},{"name":"","type":"bool","internalType":"bool"},{"name":"","type":"tuple[]","internalType":"struct CallObject[]","components":[{"name":"amount","type":"uint256","internalType":"uint256"},{"name":"gas","type":"uint256","internalType":"uint256"},{"name":"addr","type":"address","internalType":"address"},{"name":"callvalue","type":"bytes","internalType":"bytes"}]}],"stateMutability":"view"},{"type":"event","name":"CallExecuted","inputs":[{"name":"callObj","type":"tuple","indexed":false,"internalType":"struct CallObject","components":[{"name":"amount","type":"uint256","internalType":"uint256"},{"name":"gas","type":"uint256","internalType":"uint256"},{"name":"addr","type":"address","internalType":"address"},{"name":"callvalue","type":"bytes","internalType":"bytes"}]}],"anonymous":false},{"type":"event","name":"CallPulled","inputs":[{"name":"callObjs","type":"tuple[]","indexed":false,"internalType":"struct CallObject[]","components":[{"name":"amount","type":"uint256","internalType":"uint256"},{"name":"gas","type":"uint256","internalType":"uint256"},{"name":"addr","type":"address","internalType":"address"},{"name":"callvalue","type":"bytes","internalType":"bytes"}]},{"name":"sequenceNumber","type":"uint256","indexed":false,"internalType":"uint256"}],"anonymous":false},{"type":"event","name":"CallPushed","inputs":[{"name":"callObjs","type":"tuple[]","indexed":false,"internalType":"struct CallObject[]","components":[{"name":"amount","type":"uint256","internalType":"uint256"},{"name":"gas","type":"uint256","internalType":"uint256"},{"name":"addr","type":"address","internalType":"address"},{"name":"callvalue","type":"bytes","internalType":"bytes"}]},{"name":"sequenceNumber","type":"uint256","indexed":false,"internalType":"uint256"}],"anonymous":false},{"type":"event","name":"CallableBlock","inputs":[{"name":"callableBlock","type":"uint256","indexed":false,"internalType":"uint256"},{"name":"currentBlock","type":"uint256","indexed":false,"internalType":"uint256"}],"anonymous":false},{"type":"event","name":"CancelledAllPendingCalls","inputs":[{"name":"cancelledNonce","type":"uint256","indexed":false,"internalType":"uint256"}],"anonymous":false},{"type":"error","name":"AlreadyExecuted","inputs":[]},{"type":"error","name":"CallFailed","inputs":[]},{"type":"error","name":"CancelledCall","inputs":[]},{"type":"error","name":"InvalidGas","inputs":[]},{"type":"error","name":"NotCallBreaker","inputs":[]},{"type":"error","name":"NotExecuting","inputs":[]},{"type":"error","name":"NotLaminator","inputs":[]},{"type":"error","name":"NotLaminatorOrProxy","inputs":[]},{"type":"error","name":"NotOwner","inputs":[]},{"type":"error","name":"NotProxy","inputs":[]},{"type":"error","name":"PortalOpenInCallBreaker","inputs":[]},{"type":"error","name":"TooEarly","inputs":[]},{"type":"error","name":"Uninitialized","inputs":[]}],"bytecode":{"object":"0x608060405234801561000f575f80fd5b506040516120f13803806120f183398101604081905261002e916100fc565b600160025561003c81610056565b61004583610089565b61004e826100b5565b505050610161565b5f61008260017f19e1a87a4b0d2369899f011c524be87aa7bc952ef9b144402b8e2dff531edaa461013c565b9190915550565b5f61008260017fe89f554ed83f2cdcd36a73712da148ddbeff73356b2999c151953fc90c3932db61013c565b5f61008260017f896dc917002c5827f0bd303743d905d263bd825af8366b075a4997f3b0ccd09261013c565b80516001600160a01b03811681146100f7575f80fd5b919050565b5f805f6060848603121561010e575f80fd5b610117846100e1565b9250610125602085016100e1565b9150610133604085016100e1565b90509250925092565b8181038181111561015b57634e487b7160e01b5f52601160045260245ffd5b92915050565b611f838061016e5f395ff3fe608060405260043610610198575f3560e01c8063717225ee116100e7578063c0d3732011610087578063e510aaaa11610062578063e510aaaa1461043a578063ef29a3bc1461044e578063fdf4bcf814610462578063ff55767514610476575f80fd5b8063c0d37320146103f3578063c4a2505314610407578063c7a78f9c14610426575f80fd5b80638da5cb5b116100c25780638da5cb5b14610380578063963949a3146103ac5780639a2817b0146103c0578063b1fecfb3146103d4575f80fd5b8063717225ee1461033457806373296edc146103585780637f45e39d1461036c575f80fd5b8063316a4358116101525780634d0392a81161012d5780634d0392a8146102ce5780635588fdf1146102ed578063664e841d1461030c5780636cd3319014610320575f80fd5b8063316a4358146102605780633afd35581461028e578063462c6e3e146102ad575f80fd5b806306661abd146101a357806309c5eabe146101ca5780631057ffba146101f6578063105d455b146102225780631145ad1c1461023657806329866a671461024a575f80fd5b3661019f57005b5f80fd5b3480156101ae575f80fd5b506101b761048a565b6040519081526020015b60405180910390f35b3480156101d5575f80fd5b506101e96101e4366004611744565b610498565b6040516101c191906117b0565b348015610201575f80fd5b506102156102103660046117c2565b610590565b6040516101c1919061181b565b34801561022d575f80fd5b506101b76105ae565b348015610241575f80fd5b506101b76105e2565b348015610255575f80fd5b5061025e610610565b005b34801561026b575f80fd5b5061027f61027a3660046117c2565b610698565b6040516101c19392919061190e565b348015610299575f80fd5b506101b76102a8366004611930565b6106c0565b3480156102b8575f80fd5b506102c1610732565b6040516101c19190611977565b3480156102d9575f80fd5b506101e96102e83660046117c2565b610798565b3480156102f8575f80fd5b5061025e6103073660046117c2565b6108cc565b348015610317575f80fd5b506101b7610958565b34801561032b575f80fd5b506101b7610985565b34801561033f575f80fd5b506103486109b2565b60405190151581526020016101c1565b348015610363575f80fd5b506101b76109d3565b348015610377575f80fd5b506101b76109fe565b34801561038b575f80fd5b50610394610a16565b6040516001600160a01b0390911681526020016101c1565b3480156103b7575f80fd5b506101b7610a43565b3480156103cb575f80fd5b506101b7610a6e565b3480156103df575f80fd5b5061025e6103ee366004611a17565b610a99565b3480156103fe575f80fd5b50610215610b81565b348015610412575f80fd5b506101b7610421366004611b1f565b610bb9565b348015610431575f80fd5b50610394610cf2565b348015610445575f80fd5b506101b7610d1f565b348015610459575f80fd5b506101b75f5481565b34801561046d575f80fd5b50610394610d4a565b348015610481575f80fd5b506101b7610d77565b5f610493610958565b905090565b60606104a2610a16565b6001600160a01b0316336001600160a01b0316146104d3576040516330cd747160e01b815260040160405180910390fd5b6104db610da2565b5f6104e4610d4a565b9050806001600160a01b031663bf6892816040518163ffffffff1660e01b8152600401602060405180830381865afa158015610522573d5f803e3d5ffd5b505050506040513d601f19601f820116820180604052508101906105469190611b60565b156105645760405163299a35c960e21b815260040160405180910390fd5b5f61057184860186611b93565b905061057c81610dfe565b9250505061058a6001600255565b92915050565b6105986116a3565b5f82815260016020526040902061058a90610eef565b5f806105db60017fc990e1058118922355d2f9371baafa71e8cd4c2fd67327adb432914903fbfc30611cb5565b5492915050565b61060d60017f896dc917002c5827f0bd303743d905d263bd825af8366b075a4997f3b0ccd092611cb5565b81565b610618610a16565b6001600160a01b0316336001600160a01b031614610649576040516330cd747160e01b815260040160405180910390fd5b7f085645968a329fa1f4047c3c628cc5e4fd862fb1ee0e326e2c61810eeb7a5a2e5f5460405161067b91815260200190565b60405180910390a15f8054908061069183611cc8565b9190505550565b5f8060605f6106a685610590565b805160208201516080909201519097919650945092505050565b5f3330146106e157604051635f886e9d60e11b815260040160405180910390fd5b6107286106ec6105ae565b8585858080601f0160208091040260200160405190810160405280939291908181526020018383808284375f92019190915250610fe792505050565b90505b9392505050565b61073a6116d2565b6107426109b2565b61075f5760405163d7d97a9b60e01b815260040160405180910390fd5b61049361079361076d610985565b60015f6107786105ae565b81526020019081526020015f2061109290919063ffffffff16565b6110b7565b60606107a2610da2565b6107aa610d4a565b6001600160a01b0316336001600160a01b0316141580156107cb5750333014155b156107e957604051631303de9b60e21b815260040160405180910390fd5b5f8281526001602052604090206107ff8161113f565b805461ff00191661010017815561081583611163565b61081d611196565b5f61082782610eef565b6060810151604080519182524360208301529192507f2e966a6b1e59dd53ab22a777a1fa9daa56291caf2aab89e7cff9efa341ab9e60910160405180910390a16108748160800151610dfe565b92507fa00e7e8842316ffd296025ea0d39de5d7847ed67d347b7c5f93b5f130ba625138160800151856040516108ab929190611ce0565b60405180910390a16108bb6111b8565b50506108c76001600255565b919050565b6108d4610a16565b6001600160a01b0316336001600160a01b031614610905576040516330cd747160e01b815260040160405180910390fd5b5f81815260016020526040902054610100900460ff1615801561093557505f8181526001602052604090205460ff165b15610955575f818152600160205260409020805461ff0019166101001790555b50565b5f806105db60017f1b71b7ec42f93c96caf0581c19a30652cf0844e6ffadbed8ba2bf9d9f64a2bf3611cb5565b5f806105db60017f3d58ae7810547e38261fea4758d581d120e8818c35472825fce002773f983a43611cb5565b5f806109cc60015f80516020611f2e833981519152611cb5565b5c92915050565b61060d60017fe89f554ed83f2cdcd36a73712da148ddbeff73356b2999c151953fc90c3932db611cb5565b61060d60015f80516020611f2e833981519152611cb5565b5f806105db60017f19e1a87a4b0d2369899f011c524be87aa7bc952ef9b144402b8e2dff531edaa4611cb5565b61060d60017f19e1a87a4b0d2369899f011c524be87aa7bc952ef9b144402b8e2dff531edaa4611cb5565b61060d60017fc990e1058118922355d2f9371baafa71e8cd4c2fd67327adb432914903fbfc30611cb5565b5f5b8151811015610b7d5760015f838381518110610ab957610ab9611d01565b602002602001015181526020019081526020015f205f0160019054906101000a900460ff161580610b185750610aed6109b2565b8015610b185750610afc6105ae565b828281518110610b0e57610b0e611d01565b6020026020010151145b610b755760015f838381518110610b3157610b31611d01565b60209081029190910181015182528101919091526040015f908120805466ffffffffffffff191681556001810182905560028101805463ffffffff19169055600301555b600101610a9b565b5050565b610b896116a3565b610b916109b2565b610bae5760405163d7d97a9b60e01b815260040160405180910390fd5b6104936102106105ae565b5f610bc2610cf2565b6001600160a01b0316336001600160a01b031614158015610be35750333014155b15610c0157604051637e28fb3960e11b815260040160405180910390fd5b610c096116a3565b83806020019051810190610c1d9190611dbc565b6080820152610c2a61048a565b600182525f602083018190525460408301529150610c488343611e60565b60608201525f828152600160205260409020610c6490826111d9565b7f2e966a6b1e59dd53ab22a777a1fa9daa56291caf2aab89e7cff9efa341ab9e60610c8f8443611e60565b604080519182524360208301520160405180910390a17f8c36b8c52e3b51ec1950239f150701fc83df1bc4eff632a5b9126dc31fbb4dbd816080015183604051610cda929190611ce0565b60405180910390a1610cea6112bf565b505092915050565b5f806105db60017fe89f554ed83f2cdcd36a73712da148ddbeff73356b2999c151953fc90c3932db611cb5565b61060d60017f1b71b7ec42f93c96caf0581c19a30652cf0844e6ffadbed8ba2bf9d9f64a2bf3611cb5565b5f806105db60017f896dc917002c5827f0bd303743d905d263bd825af8366b075a4997f3b0ccd092611cb5565b61060d60017f3d58ae7810547e38261fea4758d581d120e8818c35472825fce002773f983a43611cb5565b6002805403610df85760405162461bcd60e51b815260206004820152601f60248201527f5265656e7472616e637947756172643a207265656e7472616e742063616c6c0060448201526064015b60405180910390fd5b60028055565b60605f82516001600160401b03811115610e1a57610e1a611989565b604051908082528060200260200182016040528015610e5a57816020015b604080516020810190915260608152815260200190600190039081610e385790505b5090505f5b8351811015610ec657610e7181611300565b6040518060200160405280610e9e868481518110610e9157610e91611d01565b602002602001015161132c565b815250828281518110610eb357610eb3611d01565b6020908102919091010152600101610e5f565b5080604051602001610ed89190611e73565b604051602081830303815290604052915050919050565b610ef76116a3565b815460ff808216151583526101008204161515602083015262010000900464ffffffffff166060820152600282015463ffffffff16806001600160401b03811115610f4457610f44611989565b604051908082528060200260200182016040528015610f7d57816020015b610f6a6116d2565b815260200190600190039081610f625790505b5060808301525f5b81811015610fe0576002840154610fb79061079390610fb49063ffffffff90811690600389019086906113fc16565b90565b83608001518281518110610fcd57610fcd611d01565b6020908102919091010152600101610f85565b5050919050565b5f81515f1461103e575f828060200190518101906110059190611ed4565b90505f6110118261132c565b90505f818060200190518101906110289190611b60565b90508061103a575f935050505061072b565b5050505b5f8481526001602052604090206110548161140f565b61108961106082610eef565b608001516040516020016110749190611f05565b60405160208183030381529060405285610bb9565b95945050505050565b60028201545f9061072b90610fb49063ffffffff90811690600387019086906113fc16565b6110bf6116d2565b81546001600160a01b03600160601b820416604083015263ffffffff8116906001600160401b03640100000000820416906380000000165f03611108576020830182905261111c565b637fffffff82166020840152600184015483525b6111326001600160401b03821660028601611431565b6060840152509092915050565b6111488161140f565b61115181611482565b61115a816114aa565b610955816114cf565b5f61118f60017fc990e1058118922355d2f9371baafa71e8cd4c2fd67327adb432914903fbfc30611cb5565b9190915550565b5f6111af60015f80516020611f2e833981519152611cb5565b90506001815d50565b5f6111d160015f80516020611f2e833981519152611cb5565b90505f815d50565b80518254602083015115156101000261ff00199215159290921661ffff1990911617178255606081015161120c906114ff565b825464ffffffffff91909116620100000266ffffffffff0000199091161782556080810151515f90815b81811015611295575f61125663ffffffff80861690600389019061156816565b809250819550505061128c8560800151838151811061127757611277611d01565b60200260200101516112868390565b90611584565b50600101611236565b505060028301805463ffffffff191663ffffffff9290921691909117905560400151600190910155565b5f6112c8610958565b90505f6112f660017f1b71b7ec42f93c96caf0581c19a30652cf0844e6ffadbed8ba2bf9d9f64a2bf3611cb5565b6001830190555090565b5f61118f60017f3d58ae7810547e38261fea4758d581d120e8818c35472825fce002773f983a43611cb5565b60605f606083604001516001600160a01b03168460200151855f0151866060015160405161135a9190611f17565b5f60405180830381858888f193505050503d805f8114611395576040519150601f19603f3d011682016040523d82523d5f602084013e61139a565b606091505b509092509050816113be57604051633204506f60e01b815260040160405180910390fd5b7f79d81f59129695dae020ef307305cad06ab48582c97d2c841076c3f1f322c369846040516113ed9190611977565b60405180910390a19392505050565b5f90815260209190915260409020919050565b805460ff166109555760405163071cbeb560e21b815260040160405180910390fd5b6040515f8082526001600160401b03841660048301528281526020908190208251909190830101602483015b81811015611477578254815260019092019160200161145d565b506040525092915050565b8054610100900460ff161561095557604051630dc1019760e01b815260040160405180910390fd5b5f5481600101541461095557604051632566c52760e21b815260040160405180910390fd5b8054436201000090910464ffffffffff1611156109555760405163085de62560e01b815260040160405180910390fd5b5f64ffffffffff8211156115645760405162461bcd60e51b815260206004820152602660248201527f53616665436173743a2076616c756520646f65736e27742066697420696e203460448201526530206269747360d01b6064820152608401610def565b5090565b5f82815260209190915260409020600190910163ffffffff1691565b6020810151637fffffff8111156115ae57604051631483be6160e21b815260040160405180910390fd5b81515f8190036115d057835463ffffffff191663ffffffff83161784556115f1565b835463ffffffff19166380000000831763ffffffff16178455600184018190555b6060830151611604906002860190611656565b84546040909401516001600160a01b0316600160601b026bffffffffffffffffffffffff6001600160401b0392909216640100000000029190911663ffffffff90941693909317929092179092555050565b5f6001600160401b036004830151169050825f5260205f2082516004602001840181602086010191505b8181101561169a5780518355600190920191602001611680565b50505092915050565b6040518060a001604052805f151581526020015f151581526020015f81526020015f8152602001606081525090565b60405180608001604052805f81526020015f81526020015f6001600160a01b03168152602001606081525090565b5f8083601f840112611710575f80fd5b5081356001600160401b03811115611726575f80fd5b60208301915083602082850101111561173d575f80fd5b9250929050565b5f8060208385031215611755575f80fd5b82356001600160401b0381111561176a575f80fd5b61177685828601611700565b90969095509350505050565b5f81518084528060208401602086015e5f602082860101526020601f19601f83011685010191505092915050565b602081525f61072b6020830184611782565b5f602082840312156117d2575f80fd5b5035919050565b805182526020810151602083015260018060a01b0360408201511660408301525f6060820151608060608501526118136080850182611782565b949350505050565b602081525f60c082018351151560208401526020840151151560408401526040840151606084015260608401516080840152608084015160a08085015281815180845260e08601915060e08160051b87010193506020830192505f5b818110156118a85760df198786030183526118938585516117d9565b94506020938401939290920191600101611877565b50929695505050505050565b5f82825180855260208501945060208160051b830101602085015f5b8381101561190257601f198584030188526118ec8383516117d9565b60209889019890935091909101906001016118d0565b50909695505050505050565b83151581528215156020820152606060408201525f61108960608301846118b4565b5f805f60408486031215611942575f80fd5b8335925060208401356001600160401b0381111561195e575f80fd5b61196a86828701611700565b9497909650939450505050565b602081525f61072b60208301846117d9565b634e487b7160e01b5f52604160045260245ffd5b604051608081016001600160401b03811182821017156119bf576119bf611989565b60405290565b604051601f8201601f191681016001600160401b03811182821017156119ed576119ed611989565b604052919050565b5f6001600160401b03821115611a0d57611a0d611989565b5060051b60200190565b5f60208284031215611a27575f80fd5b81356001600160401b03811115611a3c575f80fd5b8201601f81018413611a4c575f80fd5b8035611a5f611a5a826119f5565b6119c5565b8082825260208201915060208360051b850101925086831115611a80575f80fd5b6020840193505b82841015611aa2578335825260209384019390910190611a87565b9695505050505050565b5f6001600160401b03821115611ac457611ac4611989565b50601f01601f191660200190565b5f82601f830112611ae1575f80fd5b8135611aef611a5a82611aac565b818152846020838601011115611b03575f80fd5b816020850160208301375f918101602001919091529392505050565b5f8060408385031215611b30575f80fd5b82356001600160401b03811115611b45575f80fd5b611b5185828601611ad2565b95602094909401359450505050565b5f60208284031215611b70575f80fd5b8151801515811461072b575f80fd5b6001600160a01b0381168114610955575f80fd5b5f60208284031215611ba3575f80fd5b81356001600160401b03811115611bb8575f80fd5b8201601f81018413611bc8575f80fd5b8035611bd6611a5a826119f5565b8082825260208201915060208360051b850101925086831115611bf7575f80fd5b602084015b83811015611c965780356001600160401b03811115611c19575f80fd5b85016080818a03601f19011215611c2e575f80fd5b611c3661199d565b60208281013582526040830135908201526060820135611c5581611b7f565b604082015260808201356001600160401b03811115611c72575f80fd5b611c818b602083860101611ad2565b60608301525084525060209283019201611bfc565b509695505050505050565b634e487b7160e01b5f52601160045260245ffd5b8181038181111561058a5761058a611ca1565b5f60018201611cd957611cd9611ca1565b5060010190565b604081525f611cf260408301856118b4565b90508260208301529392505050565b634e487b7160e01b5f52603260045260245ffd5b5f60808284031215611d25575f80fd5b611d2d61199d565b82518152602080840151908201526040830151909150611d4c81611b7f565b604082015260608201516001600160401b03811115611d69575f80fd5b8201601f81018413611d79575f80fd5b8051611d87611a5a82611aac565b818152856020838501011115611d9b575f80fd5b8160208401602083015e5f6020838301015280606085015250505092915050565b5f60208284031215611dcc575f80fd5b81516001600160401b03811115611de1575f80fd5b8201601f81018413611df1575f80fd5b8051611dff611a5a826119f5565b8082825260208201915060208360051b850101925086831115611e20575f80fd5b602084015b83811015611c965780516001600160401b03811115611e42575f80fd5b611e5189602083890101611d15565b84525060209283019201611e25565b8082018082111561058a5761058a611ca1565b5f602082016020835280845180835260408501915060408160051b8601019250602086015f5b828110156118a857603f1987860301845281515160208652611ebe6020870182611782565b9550506020938401939190910190600101611e99565b5f60208284031215611ee4575f80fd5b81516001600160401b03811115611ef9575f80fd5b61181384828501611d15565b602081525f61072b60208301846118b4565b5f82518060208501845e5f92019182525091905056fe530bcbea466e4c575ac1f04739cdebac75f7036606ad356fca432d39f8db3e75a2646970667358221220a6e887307672365d59b44c396b12439b69e936ac20c15f700bcd774f7f5c1cfa64736f6c634300081a0033","linkReferences":{}},"methodIdentifiers":{"CALL_BREAKER_SLOT()":"1145ad1c","CALL_STATUS_SLOT()":"7f45e39d","EXECUTING_CALL_INDEX_SLOT()":"ff557675","EXECUTING_SEQUENCE_NUMBER_SLOT()":"9a2817b0","LAMINATOR_SLOT()":"73296edc","OWNER_SLOT()":"963949a3","SEQUENCE_NUMBER_SLOT()":"e510aaaa","callBreaker()":"fdf4bcf8","cancelAllPending()":"29866a67","cancelPending(uint256)":"5588fdf1","cleanupLaminatorStorage(uint256[])":"b1fecfb3","copyCurrentJob(uint256,bytes)":"3afd3558","count()":"06661abd","deferredCalls(uint256)":"1057ffba","execute(bytes)":"09c5eabe","executingCallIndex()":"6cd33190","executingNonce()":"ef29a3bc","executingSequenceNumber()":"105d455b","getExecutingCallObject()":"462c6e3e","getExecutingCallObjectHolder()":"c0d37320","isCallExecuting()":"717225ee","laminator()":"c7a78f9c","nextSequenceNumber()":"664e841d","owner()":"8da5cb5b","pull(uint256)":"4d0392a8","push(bytes,uint256)":"c4a25053","viewDeferredCall(uint256)":"316a4358"},"storageLayout":{"storage":[{"astId":53294,"contract":"src/lamination/LaminatedProxy.sol:LaminatedProxy","label":"executingNonce","offset":0,"slot":"0","type":"t_uint256"},{"astId":53300,"contract":"src/lamination/LaminatedProxy.sol:LaminatedProxy","label":"_deferredCalls","offset":0,"slot":"1","type":"t_mapping(t_uint256,t_struct(CallObjectHolderStorage)51926_storage)"},{"astId":46810,"contract":"src/lamination/LaminatedProxy.sol:LaminatedProxy","label":"_status","offset":0,"slot":"2","type":"t_uint256"}],"types":{"t_bool":{"encoding":"inplace","label":"bool","numberOfBytes":"1"},"t_mapping(t_uint256,t_struct(CallObjectHolderStorage)51926_storage)":{"encoding":"mapping","key":"t_uint256","label":"mapping(uint256 => struct CallObjectHolderStorage)","numberOfBytes":"32","value":"t_struct(CallObjectHolderStorage)51926_storage"},"t_struct(CallObjectHolderStorage)51926_storage":{"encoding":"inplace","label":"struct CallObjectHolderStorage","numberOfBytes":"128","members":[{"astId":51913,"contract":"src/lamination/LaminatedProxy.sol:LaminatedProxy","label":"initialized","offset":0,"slot":"0","type":"t_bool"},{"astId":51915,"contract":"src/lamination/LaminatedProxy.sol:LaminatedProxy","label":"executed","offset":1,"slot":"0","type":"t_bool"},{"astId":51917,"contract":"src/lamination/LaminatedProxy.sol:LaminatedProxy","label":"firstCallableBlock","offset":2,"slot":"0","type":"t_uint40"},{"astId":51919,"contract":"src/lamination/LaminatedProxy.sol:LaminatedProxy","label":"executionNonce","offset":0,"slot":"1","type":"t_uint256"},{"astId":51922,"contract":"src/lamination/LaminatedProxy.sol:LaminatedProxy","label":"callObjsHead","offset":0,"slot":"2","type":"t_userDefinedValueType(genericDynArrayHead)54001"},{"astId":51925,"contract":"src/lamination/LaminatedProxy.sol:LaminatedProxy","label":"callObjsElements","offset":0,"slot":"3","type":"t_struct(genericDynArrayElementsSlot)54006_storage"}]},"t_struct(genericDynArrayElementsSlot)54006_storage":{"encoding":"inplace","label":"struct genericDynArrayElementsSlot","numberOfBytes":"32","members":[{"astId":54005,"contract":"src/lamination/LaminatedProxy.sol:LaminatedProxy","label":"___mass","offset":0,"slot":"0","type":"t_uint256"}]},"t_uint256":{"encoding":"inplace","label":"uint256","numberOfBytes":"32"},"t_uint40":{"encoding":"inplace","label":"uint40","numberOfBytes":"5"},"t_userDefinedValueType(genericDynArrayHead)54001":{"encoding":"inplace","label":"genericDynArrayHead","numberOfBytes":"4"}}},"id":44}