{"abi":[{"type":"constructor","inputs":[{"name":"_laminator","type":"address","internalType":"address"},{"name":"_callBreaker","type":"address","internalType":"address"},{"name":"_owner","type":"address","internalType":"address"}],"stateMutability":"nonpayable"},{"type":"receive","stateMutability":"payable"},{"type":"function","name":"callBreaker","inputs":[],"outputs":[{"name":"_callBreaker","type":"address","internalType":"contract ICallBreaker"}],"stateMutability":"view"},{"type":"function","name":"cancelAllPending","inputs":[],"outputs":[],"stateMutability":"nonpayable"},{"type":"function","name":"cancelPending","inputs":[{"name":"callSequenceNumber","type":"uint256","internalType":"uint256"}],"outputs":[],"stateMutability":"nonpayable"},{"type":"function","name":"cleanupLaminatorStorage","inputs":[{"name":"seqNumbers","type":"uint256[]","internalType":"uint256[]"}],"outputs":[],"stateMutability":"nonpayable"},{"type":"function","name":"copyCurrentJob","inputs":[{"name":"delay","type":"uint256","internalType":"uint256"},{"name":"shouldCopy","type":"bytes","internalType":"bytes"}],"outputs":[{"name":"","type":"uint256","internalType":"uint256"}],"stateMutability":"nonpayable"},{"type":"function","name":"deferredCalls","inputs":[{"name":"index","type":"uint256","internalType":"uint256"}],"outputs":[{"name":"holder","type":"tuple","internalType":"struct CallObjectHolder","components":[{"name":"initialized","type":"bool","internalType":"bool"},{"name":"executed","type":"bool","internalType":"bool"},{"name":"nonce","type":"uint256","internalType":"uint256"},{"name":"firstCallableBlock","type":"uint256","internalType":"uint256"},{"name":"callObjs","type":"tuple[]","internalType":"struct CallObject[]","components":[{"name":"amount","type":"uint256","internalType":"uint256"},{"name":"gas","type":"uint256","internalType":"uint256"},{"name":"addr","type":"address","internalType":"address"},{"name":"callvalue","type":"bytes","internalType":"bytes"}]},{"name":"data","type":"tuple[]","internalType":"struct SolverData[]","components":[{"name":"name","type":"string","internalType":"string"},{"name":"datatype","type":"uint8","internalType":"enum DATATYPE"},{"name":"value","type":"string","internalType":"string"}]}]}],"stateMutability":"view"},{"type":"function","name":"execute","inputs":[{"name":"input","type":"bytes","internalType":"bytes"}],"outputs":[{"name":"","type":"bytes","internalType":"bytes"}],"stateMutability":"nonpayable"},{"type":"function","name":"executingCallIndex","inputs":[],"outputs":[{"name":"_execCallIndex","type":"uint256","internalType":"uint256"}],"stateMutability":"view"},{"type":"function","name":"executingNonce","inputs":[],"outputs":[{"name":"","type":"uint256","internalType":"uint256"}],"stateMutability":"view"},{"type":"function","name":"executingSequenceNumber","inputs":[],"outputs":[{"name":"_execSeqNum","type":"uint256","internalType":"uint256"}],"stateMutability":"view"},{"type":"function","name":"getExecutingCallObject","inputs":[],"outputs":[{"name":"","type":"tuple","internalType":"struct CallObject","components":[{"name":"amount","type":"uint256","internalType":"uint256"},{"name":"gas","type":"uint256","internalType":"uint256"},{"name":"addr","type":"address","internalType":"address"},{"name":"callvalue","type":"bytes","internalType":"bytes"}]}],"stateMutability":"view"},{"type":"function","name":"getExecutingCallObjectHolder","inputs":[],"outputs":[{"name":"","type":"tuple","internalType":"struct CallObjectHolder","components":[{"name":"initialized","type":"bool","internalType":"bool"},{"name":"executed","type":"bool","internalType":"bool"},{"name":"nonce","type":"uint256","internalType":"uint256"},{"name":"firstCallableBlock","type":"uint256","internalType":"uint256"},{"name":"callObjs","type":"tuple[]","internalType":"struct CallObject[]","components":[{"name":"amount","type":"uint256","internalType":"uint256"},{"name":"gas","type":"uint256","internalType":"uint256"},{"name":"addr","type":"address","internalType":"address"},{"name":"callvalue","type":"bytes","internalType":"bytes"}]},{"name":"data","type":"tuple[]","internalType":"struct SolverData[]","components":[{"name":"name","type":"string","internalType":"string"},{"name":"datatype","type":"uint8","internalType":"enum DATATYPE"},{"name":"value","type":"string","internalType":"string"}]}]}],"stateMutability":"view"},{"type":"function","name":"isCallExecuting","inputs":[],"outputs":[{"name":"_isExec","type":"bool","internalType":"bool"}],"stateMutability":"view"},{"type":"function","name":"laminator","inputs":[],"outputs":[{"name":"_laminator","type":"address","internalType":"contract ILaminator"}],"stateMutability":"view"},{"type":"function","name":"nextSequenceNumber","inputs":[],"outputs":[{"name":"_sequenceNumber","type":"uint256","internalType":"uint256"}],"stateMutability":"view"},{"type":"function","name":"owner","inputs":[],"outputs":[{"name":"_owner","type":"address","internalType":"address"}],"stateMutability":"view"},{"type":"function","name":"pull","inputs":[{"name":"seqNumber","type":"uint256","internalType":"uint256"}],"outputs":[{"name":"returnValue","type":"bytes","internalType":"bytes"}],"stateMutability":"nonpayable"},{"type":"function","name":"push","inputs":[{"name":"input","type":"bytes","internalType":"bytes"},{"name":"delay","type":"uint256","internalType":"uint256"},{"name":"data","type":"tuple[]","internalType":"struct SolverData[]","components":[{"name":"name","type":"string","internalType":"string"},{"name":"datatype","type":"uint8","internalType":"enum DATATYPE"},{"name":"value","type":"string","internalType":"string"}]}],"outputs":[{"name":"callSequenceNumber","type":"uint256","internalType":"uint256"}],"stateMutability":"nonpayable"},{"type":"function","name":"viewDeferredCall","inputs":[{"name":"seqNumber","type":"uint256","internalType":"uint256"}],"outputs":[{"name":"","type":"bool","internalType":"bool"},{"name":"","type":"bool","internalType":"bool"},{"name":"","type":"tuple[]","internalType":"struct CallObject[]","components":[{"name":"amount","type":"uint256","internalType":"uint256"},{"name":"gas","type":"uint256","internalType":"uint256"},{"name":"addr","type":"address","internalType":"address"},{"name":"callvalue","type":"bytes","internalType":"bytes"}]},{"name":"","type":"tuple[]","internalType":"struct SolverData[]","components":[{"name":"name","type":"string","internalType":"string"},{"name":"datatype","type":"uint8","internalType":"enum DATATYPE"},{"name":"value","type":"string","internalType":"string"}]}],"stateMutability":"view"},{"type":"event","name":"CallExecuted","inputs":[{"name":"callObj","type":"tuple","indexed":false,"internalType":"struct CallObject","components":[{"name":"amount","type":"uint256","internalType":"uint256"},{"name":"gas","type":"uint256","internalType":"uint256"},{"name":"addr","type":"address","internalType":"address"},{"name":"callvalue","type":"bytes","internalType":"bytes"}]}],"anonymous":false},{"type":"event","name":"CallPulled","inputs":[{"name":"callObjs","type":"tuple[]","indexed":false,"internalType":"struct CallObject[]","components":[{"name":"amount","type":"uint256","internalType":"uint256"},{"name":"gas","type":"uint256","internalType":"uint256"},{"name":"addr","type":"address","internalType":"address"},{"name":"callvalue","type":"bytes","internalType":"bytes"}]},{"name":"sequenceNumber","type":"uint256","indexed":false,"internalType":"uint256"}],"anonymous":false},{"type":"event","name":"CallPushed","inputs":[{"name":"callObjs","type":"tuple[]","indexed":false,"internalType":"struct CallObject[]","components":[{"name":"amount","type":"uint256","internalType":"uint256"},{"name":"gas","type":"uint256","internalType":"uint256"},{"name":"addr","type":"address","internalType":"address"},{"name":"callvalue","type":"bytes","internalType":"bytes"}]},{"name":"sequenceNumber","type":"uint256","indexed":false,"internalType":"uint256"},{"name":"data","type":"tuple[]","indexed":false,"internalType":"struct SolverData[]","components":[{"name":"name","type":"string","internalType":"string"},{"name":"datatype","type":"uint8","internalType":"enum DATATYPE"},{"name":"value","type":"string","internalType":"string"}]}],"anonymous":false},{"type":"event","name":"CallableBlock","inputs":[{"name":"callableBlock","type":"uint256","indexed":false,"internalType":"uint256"},{"name":"currentBlock","type":"uint256","indexed":false,"internalType":"uint256"}],"anonymous":false},{"type":"event","name":"CancelledAllPendingCalls","inputs":[{"name":"cancelledNonce","type":"uint256","indexed":false,"internalType":"uint256"}],"anonymous":false},{"type":"error","name":"AlreadyExecuted","inputs":[]},{"type":"error","name":"CallFailed","inputs":[]},{"type":"error","name":"CancelledCall","inputs":[]},{"type":"error","name":"InvalidGas","inputs":[]},{"type":"error","name":"NotCallBreaker","inputs":[]},{"type":"error","name":"NotExecuting","inputs":[]},{"type":"error","name":"NotLaminator","inputs":[]},{"type":"error","name":"NotLaminatorOrProxy","inputs":[]},{"type":"error","name":"NotOwner","inputs":[]},{"type":"error","name":"NotProxy","inputs":[]},{"type":"error","name":"PortalOpenInCallBreaker","inputs":[]},{"type":"error","name":"TooEarly","inputs":[]},{"type":"error","name":"Uninitialized","inputs":[]}],"bytecode":{"object":"0x608060405234801561000f575f80fd5b5060405161208d38038061208d83398101604081905261002e916100fc565b600160025561003c81610056565b61004583610089565b61004e826100b5565b505050610161565b5f61008260017f19e1a87a4b0d2369899f011c524be87aa7bc952ef9b144402b8e2dff531edaa461013c565b9190915550565b5f61008260017fe89f554ed83f2cdcd36a73712da148ddbeff73356b2999c151953fc90c3932db61013c565b5f61008260017f896dc917002c5827f0bd303743d905d263bd825af8366b075a4997f3b0ccd09261013c565b80516001600160a01b03811681146100f7575f80fd5b919050565b5f805f6060848603121561010e575f80fd5b610117846100e1565b9250610125602085016100e1565b9150610133604085016100e1565b90509250925092565b8181038181111561015b57634e487b7160e01b5f52601160045260245ffd5b92915050565b611f1f8061016e5f395ff3fe608060405260043610610113575f3560e01c80635588fdf11161009d578063b1fecfb311610062578063b1fecfb3146102fb578063c0d373201461031a578063c7a78f9c1461032e578063ef29a3bc14610342578063fdf4bcf814610356575f80fd5b80635588fdf114610264578063664e841d146102835780636cd3319014610297578063717225ee146102ab5780638da5cb5b146102cf575f80fd5b8063316a4358116100e3578063316a4358146101b75780633afd3558146101e6578063462c6e3e1461020557806346985da0146102265780634d0392a814610245575f80fd5b806309c5eabe1461011e5780631057ffba14610153578063105d455b1461017f57806329866a67146101a1575f80fd5b3661011a57005b5f80fd5b348015610129575f80fd5b5061013d6101383660046114ba565b61036a565b60405161014a9190611526565b60405180910390f35b34801561015e575f80fd5b5061017261016d366004611538565b6103d8565b60405161014a919061163a565b34801561018a575f80fd5b506101936103f6565b60405190815260200161014a565b3480156101ac575f80fd5b506101b561042a565b005b3480156101c2575f80fd5b506101d66101d1366004611538565b6104b2565b60405161014a9493929190611740565b3480156101f1575f80fd5b5061019361020036600461177f565b6104e3565b348015610210575f80fd5b50610219610555565b60405161014a91906117c6565b348015610231575f80fd5b50610193610240366004611902565b6105c0565b348015610250575f80fd5b5061013d61025f366004611538565b6106fa565b34801561026f575f80fd5b506101b561027e366004611538565b610820565b34801561028e575f80fd5b506101936108ac565b3480156102a2575f80fd5b506101936108d9565b3480156102b6575f80fd5b506102bf610906565b604051901515815260200161014a565b3480156102da575f80fd5b506102e361093a565b6040516001600160a01b03909116815260200161014a565b348015610306575f80fd5b506101b5610315366004611a60565b610967565b348015610325575f80fd5b50610172610a4f565b348015610339575f80fd5b506102e3610a87565b34801561034d575f80fd5b506101935f5481565b348015610361575f80fd5b506102e3610ab4565b606061037461093a565b6001600160a01b0316336001600160a01b0316146103a5576040516330cd747160e01b815260040160405180910390fd5b6103ad610ae1565b5f6103ba83850185611afa565b90506103c581610b3d565b9150506103d26001600255565b92915050565b6103e0611412565b5f8281526001602052604090206103d290610c2e565b5f8061042360017fc990e1058118922355d2f9371baafa71e8cd4c2fd67327adb432914903fbfc30611c1c565b5492915050565b61043261093a565b6001600160a01b0316336001600160a01b031614610463576040516330cd747160e01b815260040160405180910390fd5b7f085645968a329fa1f4047c3c628cc5e4fd862fb1ee0e326e2c61810eeb7a5a2e5f5460405161049591815260200190565b60405180910390a15f805490806104ab83611c2f565b9190505550565b5f806060805f6104c1866103d8565b80516020820151608083015160a0909301519199909850919650945092505050565b5f33301461050457604051635f886e9d60e11b815260040160405180910390fd5b61054b61050f6103f6565b8585858080601f0160208091040260200160405190810160405280939291908181526020018383808284375f92019190915250610d2692505050565b90505b9392505050565b61055d611448565b610565610906565b6105825760405163d7d97a9b60e01b815260040160405180910390fd5b6105bb6105b66105906108d9565b60015f61059b6103f6565b81526020019081526020015f20610ddb90919063ffffffff16565b610e00565b905090565b5f6105c9610a87565b6001600160a01b0316336001600160a01b0316141580156105ea5750333014155b1561060857604051637e28fb3960e11b815260040160405180910390fd5b610610611412565b848060200190518101906106249190611cee565b6080820152610631610e88565b600182525f6020830181905254604083015260a0820184905291506106568443611d92565b60608201525f8281526001602052604090206106729082610ec9565b7f2e966a6b1e59dd53ab22a777a1fa9daa56291caf2aab89e7cff9efa341ab9e6061069d8543611d92565b604080519182524360208301520160405180910390a17fa3ff4a8c5620df061f7f2bf74b27502ddd36f14d6895bde0f40410995a96bf0a816080015183856040516106ea93929190611da5565b60405180910390a1509392505050565b6060610704610ae1565b61070c610ab4565b6001600160a01b0316336001600160a01b03161461073d57604051631303de9b60e21b815260040160405180910390fd5b5f82815260016020526040902061075381610faf565b805461ff00191661010017815561076983610fd3565b610771611006565b5f61077b82610c2e565b6060810151604080519182524360208301529192507f2e966a6b1e59dd53ab22a777a1fa9daa56291caf2aab89e7cff9efa341ab9e60910160405180910390a16107c88160800151610b3d565b92507fa00e7e8842316ffd296025ea0d39de5d7847ed67d347b7c5f93b5f130ba625138160800151856040516107ff929190611dcf565b60405180910390a161080f61103b565b505061081b6001600255565b919050565b61082861093a565b6001600160a01b0316336001600160a01b031614610859576040516330cd747160e01b815260040160405180910390fd5b5f81815260016020526040902054610100900460ff1615801561088957505f8181526001602052604090205460ff165b156108a9575f818152600160205260409020805461ff0019166101001790555b50565b5f8061042360017f1b71b7ec42f93c96caf0581c19a30652cf0844e6ffadbed8ba2bf9d9f64a2bf3611c1c565b5f8061042360017f3d58ae7810547e38261fea4758d581d120e8818c35472825fce002773f983a43611c1c565b5f8061093360017f530bcbea466e4c575ac1f04739cdebac75f7036606ad356fca432d39f8db3e75611c1c565b5c92915050565b5f8061042360017f19e1a87a4b0d2369899f011c524be87aa7bc952ef9b144402b8e2dff531edaa4611c1c565b5f5b8151811015610a4b5760015f83838151811061098757610987611df0565b602002602001015181526020019081526020015f205f0160019054906101000a900460ff1615806109e657506109bb610906565b80156109e657506109ca6103f6565b8282815181106109dc576109dc611df0565b6020026020010151145b610a435760015f8383815181106109ff576109ff611df0565b60209081029190910181015182528101919091526040015f908120805466ffffffffffffff191681556001810182905560028101805463ffffffff19169055600301555b600101610969565b5050565b610a57611412565b610a5f610906565b610a7c5760405163d7d97a9b60e01b815260040160405180910390fd5b6105bb61016d6103f6565b5f8061042360017fe89f554ed83f2cdcd36a73712da148ddbeff73356b2999c151953fc90c3932db611c1c565b5f8061042360017f896dc917002c5827f0bd303743d905d263bd825af8366b075a4997f3b0ccd092611c1c565b6002805403610b375760405162461bcd60e51b815260206004820152601f60248201527f5265656e7472616e637947756172643a207265656e7472616e742063616c6c0060448201526064015b60405180910390fd5b60028055565b60605f82516001600160401b03811115610b5957610b596117d8565b604051908082528060200260200182016040528015610b9957816020015b604080516020810190915260608152815260200190600190039081610b775790505b5090505f5b8351811015610c0557610bb08161106f565b6040518060200160405280610bdd868481518110610bd057610bd0611df0565b602002602001015161109b565b815250828281518110610bf257610bf2611df0565b6020908102919091010152600101610b9e565b5080604051602001610c179190611e04565b604051602081830303815290604052915050919050565b610c36611412565b815460ff808216151583526101008204161515602083015262010000900464ffffffffff166060820152600282015463ffffffff16806001600160401b03811115610c8357610c836117d8565b604051908082528060200260200182016040528015610cbc57816020015b610ca9611448565b815260200190600190039081610ca15790505b5060808301525f5b81811015610d1f576002840154610cf6906105b690610cf39063ffffffff908116906003890190869061116b16565b90565b83608001518281518110610d0c57610d0c611df0565b6020908102919091010152600101610cc4565b5050919050565b5f81515f14610d7d575f82806020019051810190610d449190611e71565b90505f610d508261109b565b90505f81806020019051810190610d679190611ea2565b905080610d79575f935050505061054e565b5050505b5f848152600160205260409020610d938161117e565b5f610d9d82610c2e565b9050610dd18160800151604051602001610db79190611ec1565b604051602081830303815290604052868360a001516105c0565b9695505050505050565b60028201545f9061054e90610cf39063ffffffff908116906003870190869061116b16565b610e08611448565b81546001600160a01b03600160601b820416604083015263ffffffff8116906001600160401b03640100000000820416906380000000165f03610e515760208301829052610e65565b637fffffff82166020840152600184015483525b610e7b6001600160401b038216600286016111a0565b6060840152509092915050565b5f610e916108ac565b90505f610ebf60017f1b71b7ec42f93c96caf0581c19a30652cf0844e6ffadbed8ba2bf9d9f64a2bf3611c1c565b6001830190555090565b80518254602083015115156101000261ff00199215159290921661ffff19909116171782556060810151610efc906111f1565b825464ffffffffff91909116620100000266ffffffffff0000199091161782556080810151515f90815b81811015610f85575f610f4663ffffffff80861690600389019061125a16565b8092508195505050610f7c85608001518381518110610f6757610f67611df0565b6020026020010151610f768390565b90611276565b50600101610f26565b505060028301805463ffffffff191663ffffffff9290921691909117905560400151600190910155565b610fb88161117e565b610fc181611348565b610fca81611370565b6108a981611395565b5f610fff60017fc990e1058118922355d2f9371baafa71e8cd4c2fd67327adb432914903fbfc30611c1c565b9190915550565b5f61103260017f530bcbea466e4c575ac1f04739cdebac75f7036606ad356fca432d39f8db3e75611c1c565b90506001815d50565b5f61106760017f530bcbea466e4c575ac1f04739cdebac75f7036606ad356fca432d39f8db3e75611c1c565b90505f815d50565b5f610fff60017f3d58ae7810547e38261fea4758d581d120e8818c35472825fce002773f983a43611c1c565b60605f606083604001516001600160a01b03168460200151855f015186606001516040516110c99190611ed3565b5f60405180830381858888f193505050503d805f8114611104576040519150601f19603f3d011682016040523d82523d5f602084013e611109565b606091505b5090925090508161112d57604051633204506f60e01b815260040160405180910390fd5b7f79d81f59129695dae020ef307305cad06ab48582c97d2c841076c3f1f322c3698460405161115c91906117c6565b60405180910390a19392505050565b5f90815260209190915260409020919050565b805460ff166108a95760405163071cbeb560e21b815260040160405180910390fd5b6040515f8082526001600160401b03841660048301528281526020908190208251909190830101602483015b818110156111e657825481526001909201916020016111cc565b506040525092915050565b5f64ffffffffff8211156112565760405162461bcd60e51b815260206004820152602660248201527f53616665436173743a2076616c756520646f65736e27742066697420696e203460448201526530206269747360d01b6064820152608401610b2e565b5090565b5f82815260209190915260409020600190910163ffffffff1691565b6020810151637fffffff8111156112a057604051631483be6160e21b815260040160405180910390fd5b81515f8190036112c257835463ffffffff191663ffffffff83161784556112e3565b835463ffffffff19166380000000831763ffffffff16178455600184018190555b60608301516112f69060028601906113c5565b84546040909401516001600160a01b0316600160601b026bffffffffffffffffffffffff6001600160401b0392909216640100000000029190911663ffffffff90941693909317929092179092555050565b8054610100900460ff16156108a957604051630dc1019760e01b815260040160405180910390fd5b5f548160010154146108a957604051632566c52760e21b815260040160405180910390fd5b8054436201000090910464ffffffffff1611156108a95760405163085de62560e01b815260040160405180910390fd5b5f6001600160401b036004830151169050825f5260205f2082516004602001840181602086010191505b8181101561140957805183556001909201916020016113ef565b50505092915050565b6040518060c001604052805f151581526020015f151581526020015f81526020015f815260200160608152602001606081525090565b60405180608001604052805f81526020015f81526020015f6001600160a01b03168152602001606081525090565b5f8083601f840112611486575f80fd5b5081356001600160401b0381111561149c575f80fd5b6020830191508360208285010111156114b3575f80fd5b9250929050565b5f80602083850312156114cb575f80fd5b82356001600160401b038111156114e0575f80fd5b6114ec85828601611476565b90969095509350505050565b5f81518084528060208401602086015e5f602082860101526020601f19601f83011685010191505092915050565b602081525f61054e60208301846114f8565b5f60208284031215611548575f80fd5b5035919050565b805182526020810151602083015260018060a01b0360408201511660408301525f60608201516080606085015261158960808501826114f8565b949350505050565b5f82825180855260208501945060208160051b830101602085015f5b8381101561162e57601f1985840301885281518051606085526115d360608601826114f8565b90506020820151600681106115f657634e487b7160e01b5f52602160045260245ffd5b8060208701525060408201519150848103604086015261161681836114f8565b60209a8b019a909550939093019250506001016115ad565b50909695505050505050565b602081525f60e082018351151560208401526020840151151560408401526040840151606084015260608401516080840152608084015160c060a0850152818151808452610100860191506101008160051b87010193506020830192505f5b818110156116ca5760ff198786030183526116b585855161154f565b94506020938401939290920191600101611699565b5050505060a0840151838203601f190160c08501526116e98282611591565b95945050505050565b5f82825180855260208501945060208160051b830101602085015f5b8381101561162e57601f1985840301885261172a83835161154f565b602098890198909350919091019060010161170e565b84151581528315156020820152608060408201525f61176260808301856116f2565b82810360608401526117748185611591565b979650505050505050565b5f805f60408486031215611791575f80fd5b8335925060208401356001600160401b038111156117ad575f80fd5b6117b986828701611476565b9497909650939450505050565b602081525f61054e602083018461154f565b634e487b7160e01b5f52604160045260245ffd5b604051606081016001600160401b038111828210171561180e5761180e6117d8565b60405290565b604051608081016001600160401b038111828210171561180e5761180e6117d8565b604051601f8201601f191681016001600160401b038111828210171561185e5761185e6117d8565b604052919050565b5f6001600160401b0382111561187e5761187e6117d8565b50601f01601f191660200190565b5f82601f83011261189b575f80fd5b8135602083015f6118b36118ae84611866565b611836565b90508281528583830111156118c6575f80fd5b828260208301375f92810160200192909252509392505050565b5f6001600160401b038211156118f8576118f86117d8565b5060051b60200190565b5f805f60608486031215611914575f80fd5b83356001600160401b03811115611929575f80fd5b6119358682870161188c565b9350506020840135915060408401356001600160401b03811115611957575f80fd5b8401601f81018613611967575f80fd5b80356119756118ae826118e0565b8082825260208201915060208360051b850101925088831115611996575f80fd5b602084015b83811015611a515780356001600160401b038111156119b8575f80fd5b85016060818c03601f190112156119cd575f80fd5b6119d56117ec565b60208201356001600160401b038111156119ed575f80fd5b6119fc8d60208386010161188c565b825250604082013560068110611a10575f80fd5b602082015260608201356001600160401b03811115611a2d575f80fd5b611a3c8d60208386010161188c565b6040830152508452506020928301920161199b565b50809450505050509250925092565b5f60208284031215611a70575f80fd5b81356001600160401b03811115611a85575f80fd5b8201601f81018413611a95575f80fd5b8035611aa36118ae826118e0565b8082825260208201915060208360051b850101925086831115611ac4575f80fd5b6020840193505b82841015610dd1578335825260209384019390910190611acb565b6001600160a01b03811681146108a9575f80fd5b5f60208284031215611b0a575f80fd5b81356001600160401b03811115611b1f575f80fd5b8201601f81018413611b2f575f80fd5b8035611b3d6118ae826118e0565b8082825260208201915060208360051b850101925086831115611b5e575f80fd5b602084015b83811015611bfd5780356001600160401b03811115611b80575f80fd5b85016080818a03601f19011215611b95575f80fd5b611b9d611814565b60208281013582526040830135908201526060820135611bbc81611ae6565b604082015260808201356001600160401b03811115611bd9575f80fd5b611be88b60208386010161188c565b60608301525084525060209283019201611b63565b509695505050505050565b634e487b7160e01b5f52601160045260245ffd5b818103818111156103d2576103d2611c08565b5f60018201611c4057611c40611c08565b5060010190565b5f60808284031215611c57575f80fd5b611c5f611814565b82518152602080840151908201526040830151909150611c7e81611ae6565b604082015260608201516001600160401b03811115611c9b575f80fd5b8201601f81018413611cab575f80fd5b8051611cb96118ae82611866565b818152856020838501011115611ccd575f80fd5b8160208401602083015e5f6020838301015280606085015250505092915050565b5f60208284031215611cfe575f80fd5b81516001600160401b03811115611d13575f80fd5b8201601f81018413611d23575f80fd5b8051611d316118ae826118e0565b8082825260208201915060208360051b850101925086831115611d52575f80fd5b602084015b83811015611bfd5780516001600160401b03811115611d74575f80fd5b611d8389602083890101611c47565b84525060209283019201611d57565b808201808211156103d2576103d2611c08565b606081525f611db760608301866116f2565b8460208401528281036040840152610dd18185611591565b604081525f611de160408301856116f2565b90508260208301529392505050565b634e487b7160e01b5f52603260045260245ffd5b5f602082016020835280845180835260408501915060408160051b8601019250602086015f5b82811015611e6557603f1987860301845281515160208652611e4f60208701826114f8565b9550506020938401939190910190600101611e2a565b50929695505050505050565b5f60208284031215611e81575f80fd5b81516001600160401b03811115611e96575f80fd5b61158984828501611c47565b5f60208284031215611eb2575f80fd5b8151801515811461054e575f80fd5b602081525f61054e60208301846116f2565b5f82518060208501845e5f92019182525091905056fea26469706673582212209133647918e5c44975a5b5e79d839137b077aae66d9eb93103af67b5de99fe9864736f6c634300081a0033","linkReferences":{}},"methodIdentifiers":{"callBreaker()":"fdf4bcf8","cancelAllPending()":"29866a67","cancelPending(uint256)":"5588fdf1","cleanupLaminatorStorage(uint256[])":"b1fecfb3","copyCurrentJob(uint256,bytes)":"3afd3558","deferredCalls(uint256)":"1057ffba","execute(bytes)":"09c5eabe","executingCallIndex()":"6cd33190","executingNonce()":"ef29a3bc","executingSequenceNumber()":"105d455b","getExecutingCallObject()":"462c6e3e","getExecutingCallObjectHolder()":"c0d37320","isCallExecuting()":"717225ee","laminator()":"c7a78f9c","nextSequenceNumber()":"664e841d","owner()":"8da5cb5b","pull(uint256)":"4d0392a8","push(bytes,uint256,(string,uint8,string)[])":"46985da0","viewDeferredCall(uint256)":"316a4358"},"storageLayout":{"storage":[{"astId":63932,"contract":"src/lamination/LaminatedProxy.sol:LaminatedProxy","label":"executingNonce","offset":0,"slot":"0","type":"t_uint256"},{"astId":63938,"contract":"src/lamination/LaminatedProxy.sol:LaminatedProxy","label":"_deferredCalls","offset":0,"slot":"1","type":"t_mapping(t_uint256,t_struct(CallObjectHolderStorage)62594_storage)"},{"astId":50004,"contract":"src/lamination/LaminatedProxy.sol:LaminatedProxy","label":"_status","offset":0,"slot":"2","type":"t_uint256"}],"types":{"t_bool":{"encoding":"inplace","label":"bool","numberOfBytes":"1"},"t_mapping(t_uint256,t_struct(CallObjectHolderStorage)62594_storage)":{"encoding":"mapping","key":"t_uint256","label":"mapping(uint256 => struct CallObjectHolderStorage)","numberOfBytes":"32","value":"t_struct(CallObjectHolderStorage)62594_storage"},"t_struct(CallObjectHolderStorage)62594_storage":{"encoding":"inplace","label":"struct CallObjectHolderStorage","numberOfBytes":"128","members":[{"astId":62581,"contract":"src/lamination/LaminatedProxy.sol:LaminatedProxy","label":"initialized","offset":0,"slot":"0","type":"t_bool"},{"astId":62583,"contract":"src/lamination/LaminatedProxy.sol:LaminatedProxy","label":"executed","offset":1,"slot":"0","type":"t_bool"},{"astId":62585,"contract":"src/lamination/LaminatedProxy.sol:LaminatedProxy","label":"firstCallableBlock","offset":2,"slot":"0","type":"t_uint40"},{"astId":62587,"contract":"src/lamination/LaminatedProxy.sol:LaminatedProxy","label":"executionNonce","offset":0,"slot":"1","type":"t_uint256"},{"astId":62590,"contract":"src/lamination/LaminatedProxy.sol:LaminatedProxy","label":"callObjsHead","offset":0,"slot":"2","type":"t_userDefinedValueType(genericDynArrayHead)64614"},{"astId":62593,"contract":"src/lamination/LaminatedProxy.sol:LaminatedProxy","label":"callObjsElements","offset":0,"slot":"3","type":"t_struct(genericDynArrayElementsSlot)64619_storage"}]},"t_struct(genericDynArrayElementsSlot)64619_storage":{"encoding":"inplace","label":"struct genericDynArrayElementsSlot","numberOfBytes":"32","members":[{"astId":64618,"contract":"src/lamination/LaminatedProxy.sol:LaminatedProxy","label":"___mass","offset":0,"slot":"0","type":"t_uint256"}]},"t_uint256":{"encoding":"inplace","label":"uint256","numberOfBytes":"32"},"t_uint40":{"encoding":"inplace","label":"uint40","numberOfBytes":"5"},"t_userDefinedValueType(genericDynArrayHead)64614":{"encoding":"inplace","label":"genericDynArrayHead","numberOfBytes":"4"}}},"id":85}