{
  "_format": "hh-sol-artifact-1",
  "contractName": "KitnDisbursement",
  "sourceName": "contracts/KitnDisbursement.sol",
  "abi": [
    {
      "inputs": [
        {
          "internalType": "address",
          "name": "_kitnAddress",
          "type": "address"
        }
      ],
      "stateMutability": "nonpayable",
      "type": "constructor"
    },
    {
      "anonymous": false,
      "inputs": [
        {
          "components": [
            {
              "internalType": "address",
              "name": "receiver",
              "type": "address"
            },
            {
              "internalType": "uint256",
              "name": "amount",
              "type": "uint256"
            },
            {
              "internalType": "bool",
              "name": "result",
              "type": "bool"
            }
          ],
          "indexed": false,
          "internalType": "struct KitnDisbursement.CoinsSpendResult[]",
          "name": "results",
          "type": "tuple[]"
        }
      ],
      "name": "CoinsSpent",
      "type": "event"
    },
    {
      "inputs": [],
      "name": "getKitnBalance",
      "outputs": [
        {
          "internalType": "uint256",
          "name": "",
          "type": "uint256"
        }
      ],
      "stateMutability": "view",
      "type": "function"
    },
    {
      "inputs": [],
      "name": "getWalletBalance",
      "outputs": [
        {
          "internalType": "uint256",
          "name": "",
          "type": "uint256"
        }
      ],
      "stateMutability": "view",
      "type": "function"
    },
    {
      "inputs": [],
      "name": "kitnToken",
      "outputs": [
        {
          "internalType": "contract IERC20",
          "name": "",
          "type": "address"
        }
      ],
      "stateMutability": "view",
      "type": "function"
    },
    {
      "inputs": [],
      "name": "owner",
      "outputs": [
        {
          "internalType": "address",
          "name": "",
          "type": "address"
        }
      ],
      "stateMutability": "view",
      "type": "function"
    },
    {
      "inputs": [
        {
          "internalType": "address[]",
          "name": "_receivers",
          "type": "address[]"
        },
        {
          "internalType": "uint256[]",
          "name": "_amounts",
          "type": "uint256[]"
        }
      ],
      "name": "spendCoins",
      "outputs": [],
      "stateMutability": "nonpayable",
      "type": "function"
    },
    {
      "inputs": [
        {
          "internalType": "uint256",
          "name": "_amount",
          "type": "uint256"
        }
      ],
      "name": "transferKitnToMe",
      "outputs": [],
      "stateMutability": "nonpayable",
      "type": "function"
    },
    {
      "stateMutability": "payable",
      "type": "receive"
    }
  ],
  "bytecode": "0x60806040523480156200001157600080fd5b506040516200128138038062001281833981810160405281019062000037919062000129565b33600160006101000a81548173ffffffffffffffffffffffffffffffffffffffff021916908373ffffffffffffffffffffffffffffffffffffffff160217905550806000806101000a81548173ffffffffffffffffffffffffffffffffffffffff021916908373ffffffffffffffffffffffffffffffffffffffff160217905550506200015b565b600080fd5b600073ffffffffffffffffffffffffffffffffffffffff82169050919050565b6000620000f182620000c4565b9050919050565b6200010381620000e4565b81146200010f57600080fd5b50565b6000815190506200012381620000f8565b92915050565b600060208284031215620001425762000141620000bf565b5b6000620001528482850162000112565b91505092915050565b611116806200016b6000396000f3fe6080604052600436106100595760003560e01c80632130d89c146100f5578063329a27e71461011e57806332ac6a09146101495780638da5cb5b14610174578063961e681a1461019f578063de5d801b146101ca576100f0565b366100f057600160009054906101000a900473ffffffffffffffffffffffffffffffffffffffff1673ffffffffffffffffffffffffffffffffffffffff163373ffffffffffffffffffffffffffffffffffffffff16146100ee576040517f08c379a00000000000000000000000000000000000000000000000000000000081526004016100e59061094a565b60405180910390fd5b005b600080fd5b34801561010157600080fd5b5061011c60048036038101906101179190610a2f565b6101f3565b005b34801561012a57600080fd5b5061013361066a565b6040516101409190610ac9565b60405180910390f35b34801561015557600080fd5b5061015e610672565b60405161016b9190610ac9565b60405180910390f35b34801561018057600080fd5b50610189610714565b6040516101969190610b25565b60405180910390f35b3480156101ab57600080fd5b506101b461073a565b6040516101c19190610b9f565b60405180910390f35b3480156101d657600080fd5b506101f160048036038101906101ec9190610be6565b61075e565b005b600160009054906101000a900473ffffffffffffffffffffffffffffffffffffffff1673ffffffffffffffffffffffffffffffffffffffff163373ffffffffffffffffffffffffffffffffffffffff1614610283576040517f08c379a000000000000000000000000000000000000000000000000000000000815260040161027a9061094a565b60405180910390fd5b8181905084849050146102cb576040517f08c379a00000000000000000000000000000000000000000000000000000000081526004016102c290610c85565b60405180910390fd5b60008484905067ffffffffffffffff8111156102ea576102e9610ca5565b5b60405190808252806020026020018201604052801561032357816020015b6103106108b4565b8152602001906001900390816103085790505b5090506000805b8686905081101561036f5784848281811061034857610347610cd4565b5b905060200201358261035a9190610d32565b9150808061036790610d66565b91505061032a565b5060008054906101000a900473ffffffffffffffffffffffffffffffffffffffff1673ffffffffffffffffffffffffffffffffffffffff166370a08231306040518263ffffffff1660e01b81526004016103c99190610b25565b602060405180830381865afa1580156103e6573d6000803e3d6000fd5b505050506040513d601f19601f8201168201806040525081019061040a9190610dc3565b81111561044c576040517f08c379a000000000000000000000000000000000000000000000000000000000815260040161044390610e62565b60405180910390fd5b60005b8686905081101561062a5786868281811061046d5761046c610cd4565b5b90506020020160208101906104829190610eae565b83828151811061049557610494610cd4565b5b60200260200101516000019073ffffffffffffffffffffffffffffffffffffffff16908173ffffffffffffffffffffffffffffffffffffffff16815250508484828181106104e6576104e5610cd4565b5b90506020020135838281518110610500576104ff610cd4565b5b6020026020010151602001818152505060008054906101000a900473ffffffffffffffffffffffffffffffffffffffff1673ffffffffffffffffffffffffffffffffffffffff1663a9059cbb88888481811061055f5761055e610cd4565b5b90506020020160208101906105749190610eae565b87878581811061058757610586610cd4565b5b905060200201356040518363ffffffff1660e01b81526004016105ab929190610edb565b6020604051808303816000875af11580156105ca573d6000803e3d6000fd5b505050506040513d601f19601f820116820180604052508101906105ee9190610f3c565b83828151811061060157610600610cd4565b5b60200260200101516040019015159081151581525050808061062290610d66565b91505061044f565b507f1eb24303909b1ded9e9db3acc7cbaf2ee89f6169ec0b0853fe0f4c0052e601b28260405161065a9190611087565b60405180910390a1505050505050565b600047905090565b60008060009054906101000a900473ffffffffffffffffffffffffffffffffffffffff1673ffffffffffffffffffffffffffffffffffffffff166370a08231306040518263ffffffff1660e01b81526004016106ce9190610b25565b602060405180830381865afa1580156106eb573d6000803e3d6000fd5b505050506040513d601f19601f8201168201806040525081019061070f9190610dc3565b905090565b600160009054906101000a900473ffffffffffffffffffffffffffffffffffffffff1681565b60008054906101000a900473ffffffffffffffffffffffffffffffffffffffff1681565b600160009054906101000a900473ffffffffffffffffffffffffffffffffffffffff1673ffffffffffffffffffffffffffffffffffffffff163373ffffffffffffffffffffffffffffffffffffffff16146107ee576040517f08c379a00000000000000000000000000000000000000000000000000000000081526004016107e59061094a565b60405180910390fd5b60008054906101000a900473ffffffffffffffffffffffffffffffffffffffff1673ffffffffffffffffffffffffffffffffffffffff166323b872dd600160009054906101000a900473ffffffffffffffffffffffffffffffffffffffff1630846040518463ffffffff1660e01b815260040161086d939291906110a9565b6020604051808303816000875af115801561088c573d6000803e3d6000fd5b505050506040513d601f19601f820116820180604052508101906108b09190610f3c565b5050565b6040518060600160405280600073ffffffffffffffffffffffffffffffffffffffff168152602001600081526020016000151581525090565b600082825260208201905092915050565b7f43616c6c6572206973206e6f7420746865206f776e6572000000000000000000600082015250565b60006109346017836108ed565b915061093f826108fe565b602082019050919050565b6000602082019050818103600083015261096381610927565b9050919050565b600080fd5b600080fd5b600080fd5b600080fd5b600080fd5b60008083601f84011261099957610998610974565b5b8235905067ffffffffffffffff8111156109b6576109b5610979565b5b6020830191508360208202830111156109d2576109d161097e565b5b9250929050565b60008083601f8401126109ef576109ee610974565b5b8235905067ffffffffffffffff811115610a0c57610a0b610979565b5b602083019150836020820283011115610a2857610a2761097e565b5b9250929050565b60008060008060408587031215610a4957610a4861096a565b5b600085013567ffffffffffffffff811115610a6757610a6661096f565b5b610a7387828801610983565b9450945050602085013567ffffffffffffffff811115610a9657610a9561096f565b5b610aa2878288016109d9565b925092505092959194509250565b6000819050919050565b610ac381610ab0565b82525050565b6000602082019050610ade6000830184610aba565b92915050565b600073ffffffffffffffffffffffffffffffffffffffff82169050919050565b6000610b0f82610ae4565b9050919050565b610b1f81610b04565b82525050565b6000602082019050610b3a6000830184610b16565b92915050565b6000819050919050565b6000610b65610b60610b5b84610ae4565b610b40565b610ae4565b9050919050565b6000610b7782610b4a565b9050919050565b6000610b8982610b6c565b9050919050565b610b9981610b7e565b82525050565b6000602082019050610bb46000830184610b90565b92915050565b610bc381610ab0565b8114610bce57600080fd5b50565b600081359050610be081610bba565b92915050565b600060208284031215610bfc57610bfb61096a565b5b6000610c0a84828501610bd1565b91505092915050565b7f41206e756d626572206f6620726563656976657273206d75737420626520657160008201527f75616c20746f2061206e756d626572206f6620616d6f756e7473000000000000602082015250565b6000610c6f603a836108ed565b9150610c7a82610c13565b604082019050919050565b60006020820190508181036000830152610c9e81610c62565b9050919050565b7f4e487b7100000000000000000000000000000000000000000000000000000000600052604160045260246000fd5b7f4e487b7100000000000000000000000000000000000000000000000000000000600052603260045260246000fd5b7f4e487b7100000000000000000000000000000000000000000000000000000000600052601160045260246000fd5b6000610d3d82610ab0565b9150610d4883610ab0565b9250828201905080821115610d6057610d5f610d03565b5b92915050565b6000610d7182610ab0565b91507fffffffffffffffffffffffffffffffffffffffffffffffffffffffffffffffff8203610da357610da2610d03565b5b600182019050919050565b600081519050610dbd81610bba565b92915050565b600060208284031215610dd957610dd861096a565b5b6000610de784828501610dae565b91505092915050565b7f4e6f7420656e6f756768204b49544e73206f6e2074686520636f6e747261637460008201527f20746f20636f6d706c6574652074686520626174636800000000000000000000602082015250565b6000610e4c6036836108ed565b9150610e5782610df0565b604082019050919050565b60006020820190508181036000830152610e7b81610e3f565b9050919050565b610e8b81610b04565b8114610e9657600080fd5b50565b600081359050610ea881610e82565b92915050565b600060208284031215610ec457610ec361096a565b5b6000610ed284828501610e99565b91505092915050565b6000604082019050610ef06000830185610b16565b610efd6020830184610aba565b9392505050565b60008115159050919050565b610f1981610f04565b8114610f2457600080fd5b50565b600081519050610f3681610f10565b92915050565b600060208284031215610f5257610f5161096a565b5b6000610f6084828501610f27565b91505092915050565b600081519050919050565b600082825260208201905092915050565b6000819050602082019050919050565b610f9e81610b04565b82525050565b610fad81610ab0565b82525050565b610fbc81610f04565b82525050565b606082016000820151610fd86000850182610f95565b506020820151610feb6020850182610fa4565b506040820151610ffe6040850182610fb3565b50505050565b60006110108383610fc2565b60608301905092915050565b6000602082019050919050565b600061103482610f69565b61103e8185610f74565b935061104983610f85565b8060005b8381101561107a5781516110618882611004565b975061106c8361101c565b92505060018101905061104d565b5085935050505092915050565b600060208201905081810360008301526110a18184611029565b905092915050565b60006060820190506110be6000830186610b16565b6110cb6020830185610b16565b6110d86040830184610aba565b94935050505056fea264697066735822122044e35d4c78029724e1533839e8b7c80fb54aea85383ac3257f9a47289a9d895e64736f6c63430008140033",
  "linkReferences": {},
  "deployedLinkReferences": {}
}