{"abi":[{"type":"constructor","inputs":[{"name":"_weth","type":"address","internalType":"address"},{"name":"_dai","type":"address","internalType":"address"}],"stateMutability":"nonpayable"},{"type":"function","name":"DECIMAL","inputs":[],"outputs":[{"name":"","type":"uint256","internalType":"uint256"}],"stateMutability":"view"},{"type":"function","name":"dai","inputs":[],"outputs":[{"name":"","type":"address","internalType":"contract IERC20"}],"stateMutability":"view"},{"type":"function","name":"flashLoan","inputs":[{"name":"receiver","type":"address","internalType":"address"},{"name":"daiAmount","type":"uint256","internalType":"uint256"},{"name":"wethAmount","type":"uint256","internalType":"uint256"},{"name":"data","type":"bytes","internalType":"bytes"}],"outputs":[{"name":"","type":"bool","internalType":"bool"}],"stateMutability":"nonpayable"},{"type":"function","name":"maxFlashLoan","inputs":[],"outputs":[{"name":"","type":"uint256","internalType":"uint256"},{"name":"","type":"uint256","internalType":"uint256"}],"stateMutability":"view"},{"type":"function","name":"weth","inputs":[],"outputs":[{"name":"","type":"address","internalType":"contract IERC20"}],"stateMutability":"view"}],"bytecode":{"object":"0x6080604052348015600e575f80fd5b5060405161077c38038061077c833981016040819052602b916074565b5f80546001600160a01b039384166001600160a01b0319918216179091556001805492909316911617905560a0565b80516001600160a01b0381168114606f575f80fd5b919050565b5f80604083850312156084575f80fd5b608b83605a565b9150609760208401605a565b90509250929050565b6106cf806100ad5f395ff3fe608060405234801561000f575f80fd5b5060043610610055575f3560e01c8063242c127c146100595780633fc8cef31461007b578063679f0579146100a55780636ab55fd9146100c8578063f4b9fa75146100e5575b5f80fd5b6100616100f8565b604080519283526020830191909152015b60405180910390f35b5f5461008d906001600160a01b031681565b6040516001600160a01b039091168152602001610072565b6100b86100b3366004610560565b6101d4565b6040519015158152602001610072565b6100d7670de0b6b3a764000081565b604051908152602001610072565b60015461008d906001600160a01b031681565b5f80546040516370a0823160e01b815230600482015282916001600160a01b0316906370a0823190602401602060405180830381865afa15801561013e573d5f803e3d5ffd5b505050506040513d601f19601f8201168201806040525081019061016291906105fb565b6001546040516370a0823160e01b81523060048201526001600160a01b03909116906370a0823190602401602060405180830381865afa1580156101a8573d5f803e3d5ffd5b505050506040513d601f19601f820116820180604052508101906101cc91906105fb565b915091509091565b60015460405163a9059cbb60e01b81526001600160a01b038781166004830152602482018790525f92169063a9059cbb906044016020604051808303815f875af1158015610224573d5f803e3d5ffd5b505050506040513d601f19601f820116820180604052508101906102489190610612565b6102995760405162461bcd60e51b815260206004820152601a60248201527f496e73756666696369656e7420646169206c697175696469747900000000000060448201526064015b60405180910390fd5b5f5460405163a9059cbb60e01b81526001600160a01b038881166004830152602482018790529091169063a9059cbb906044016020604051808303815f875af11580156102e8573d5f803e3d5ffd5b505050506040513d601f19601f8201168201806040525081019061030c9190610612565b6103585760405162461bcd60e51b815260206004820152601b60248201527f496e73756666696369656e742075736474206c697175696469747900000000006044820152606401610290565b6001545f5460405163939439b160e01b81526001600160a01b03808a169363939439b193610398933393928316928c9216908b908b908b90600401610638565b6020604051808303815f875af11580156103b4573d5f803e3d5ffd5b505050506040513d601f19601f820116820180604052508101906103d891906105fb565b506001546040516323b872dd60e01b81526001600160a01b03888116600483015230602483015260448201889052909116906323b872dd906064016020604051808303815f875af115801561042f573d5f803e3d5ffd5b505050506040513d601f19601f820116820180604052508101906104539190610612565b6104975760405162461bcd60e51b8152602060048201526015602482015274131bd85b881c995c185e5b595b9d0819985a5b1959605a1b6044820152606401610290565b5f546040516323b872dd60e01b81526001600160a01b03888116600483015230602483015260448201879052909116906323b872dd906064016020604051808303815f875af11580156104ec573d5f803e3d5ffd5b505050506040513d601f19601f820116820180604052508101906105109190610612565b6105545760405162461bcd60e51b8152602060048201526015602482015274131bd85b881c995c185e5b595b9d0819985a5b1959605a1b6044820152606401610290565b50600195945050505050565b5f805f805f60808688031215610574575f80fd5b85356001600160a01b038116811461058a575f80fd5b94506020860135935060408601359250606086013567ffffffffffffffff8111156105b3575f80fd5b8601601f810188136105c3575f80fd5b803567ffffffffffffffff8111156105d9575f80fd5b8860208284010111156105ea575f80fd5b959894975092955050506020019190565b5f6020828403121561060b575f80fd5b5051919050565b5f60208284031215610622575f80fd5b81518015158114610631575f80fd5b9392505050565b6001600160a01b038881168252878116602083015260408201879052851660608201526080810184905260c060a082018190528101829052818360e08301375f81830160e090810191909152601f909201601f19160101969550505050505056fea26469706673582212207d4866c3a7250c1b0e49536361bef116daafd3c2ef19e6e7d8f677f3eb9b079764736f6c634300081a0033","linkReferences":{}},"methodIdentifiers":{"DECIMAL()":"6ab55fd9","dai()":"f4b9fa75","flashLoan(address,uint256,uint256,bytes)":"679f0579","maxFlashLoan()":"242c127c","weth()":"3fc8cef3"},"storageLayout":{"storage":[{"astId":63154,"contract":"test/examples/DeFi/MockFlashLoan.sol:MockFlashLoan","label":"weth","offset":0,"slot":"0","type":"t_contract(IERC20)47529"},{"astId":63157,"contract":"test/examples/DeFi/MockFlashLoan.sol:MockFlashLoan","label":"dai","offset":0,"slot":"1","type":"t_contract(IERC20)47529"}],"types":{"t_contract(IERC20)47529":{"encoding":"inplace","label":"contract IERC20","numberOfBytes":"20"}}},"id":67}