{"abi":[{"type":"constructor","inputs":[],"stateMutability":"nonpayable"},{"type":"receive","stateMutability":"payable"},{"type":"function","name":"EXECUTING_CALL_INDEX_SLOT","inputs":[],"outputs":[{"name":"","type":"bytes32","internalType":"bytes32"}],"stateMutability":"view"},{"type":"function","name":"PORTAL_SLOT","inputs":[],"outputs":[{"name":"","type":"bytes32","internalType":"bytes32"}],"stateMutability":"view"},{"type":"function","name":"associatedDataKeyList","inputs":[{"name":"","type":"uint256","internalType":"uint256"}],"outputs":[{"name":"","type":"bytes32","internalType":"bytes32"}],"stateMutability":"view"},{"type":"function","name":"associatedDataStore","inputs":[{"name":"","type":"bytes32","internalType":"bytes32"}],"outputs":[{"name":"","type":"bytes","internalType":"bytes"}],"stateMutability":"view"},{"type":"function","name":"callList","inputs":[{"name":"","type":"uint256","internalType":"uint256"}],"outputs":[{"name":"callId","type":"bytes32","internalType":"bytes32"},{"name":"index","type":"uint256","internalType":"uint256"}],"stateMutability":"view"},{"type":"function","name":"callStore","inputs":[{"name":"","type":"uint256","internalType":"uint256"}],"outputs":[{"name":"flagAndGas","type":"uint32","internalType":"uint32"},{"name":"cdHead","type":"uint64","internalType":"compactCdHead"},{"name":"addr","type":"address","internalType":"address"},{"name":"amount","type":"uint256","internalType":"uint256"},{"name":"cdTail","type":"tuple","internalType":"struct compactCdTailSlot","components":[{"name":"___mass","type":"uint256","internalType":"uint256"}]}],"stateMutability":"view"},{"type":"function","name":"executeAndVerify","inputs":[{"name":"callsBytes","type":"bytes","internalType":"bytes"},{"name":"returnsBytes","type":"bytes","internalType":"bytes"},{"name":"associatedData","type":"bytes","internalType":"bytes"},{"name":"hintdices","type":"bytes","internalType":"bytes"}],"outputs":[],"stateMutability":"payable"},{"type":"function","name":"executeAndVerify","inputs":[{"name":"callsBytes","type":"bytes","internalType":"bytes"},{"name":"returnsBytes","type":"bytes","internalType":"bytes"},{"name":"associatedData","type":"bytes","internalType":"bytes"},{"name":"hintdices","type":"bytes","internalType":"bytes"},{"name":"flashLoanData","type":"bytes","internalType":"bytes"}],"outputs":[],"stateMutability":"payable"},{"type":"function","name":"fetchFromAssociatedDataStore","inputs":[{"name":"key","type":"bytes32","internalType":"bytes32"}],"outputs":[{"name":"","type":"bytes","internalType":"bytes"}],"stateMutability":"view"},{"type":"function","name":"getCallIndex","inputs":[{"name":"callObj","type":"tuple","internalType":"struct CallObject","components":[{"name":"amount","type":"uint256","internalType":"uint256"},{"name":"gas","type":"uint256","internalType":"uint256"},{"name":"addr","type":"address","internalType":"address"},{"name":"callvalue","type":"bytes","internalType":"bytes"}]}],"outputs":[{"name":"","type":"uint256[]","internalType":"uint256[]"}],"stateMutability":"view"},{"type":"function","name":"getCallListAt","inputs":[{"name":"i","type":"uint256","internalType":"uint256"}],"outputs":[{"name":"","type":"tuple","internalType":"struct Call","components":[{"name":"callId","type":"bytes32","internalType":"bytes32"},{"name":"index","type":"uint256","internalType":"uint256"}]}],"stateMutability":"view"},{"type":"function","name":"getCompleteCallIndexList","inputs":[{"name":"callObj","type":"tuple","internalType":"struct CallObject","components":[{"name":"amount","type":"uint256","internalType":"uint256"},{"name":"gas","type":"uint256","internalType":"uint256"},{"name":"addr","type":"address","internalType":"address"},{"name":"callvalue","type":"bytes","internalType":"bytes"}]}],"outputs":[{"name":"","type":"uint256[]","internalType":"uint256[]"}],"stateMutability":"view"},{"type":"function","name":"getCurrentlyExecuting","inputs":[],"outputs":[{"name":"","type":"uint256","internalType":"uint256"}],"stateMutability":"view"},{"type":"function","name":"getPair","inputs":[{"name":"i","type":"uint256","internalType":"uint256"}],"outputs":[{"name":"","type":"tuple","internalType":"struct CallObject","components":[{"name":"amount","type":"uint256","internalType":"uint256"},{"name":"gas","type":"uint256","internalType":"uint256"},{"name":"addr","type":"address","internalType":"address"},{"name":"callvalue","type":"bytes","internalType":"bytes"}]},{"name":"","type":"tuple","internalType":"struct ReturnObject","components":[{"name":"returnvalue","type":"bytes","internalType":"bytes"}]}],"stateMutability":"view"},{"type":"function","name":"getReturnValue","inputs":[{"name":"index","type":"uint256","internalType":"uint256"}],"outputs":[{"name":"","type":"bytes","internalType":"bytes"}],"stateMutability":"view"},{"type":"function","name":"getReturnValue","inputs":[{"name":"input","type":"bytes","internalType":"bytes"}],"outputs":[{"name":"","type":"bytes","internalType":"bytes"}],"stateMutability":"view"},{"type":"function","name":"getReverseIndex","inputs":[{"name":"index","type":"uint256","internalType":"uint256"}],"outputs":[{"name":"","type":"uint256","internalType":"uint256"}],"stateMutability":"view"},{"type":"function","name":"hintdicesStore","inputs":[{"name":"","type":"bytes32","internalType":"bytes32"},{"name":"","type":"uint256","internalType":"uint256"}],"outputs":[{"name":"","type":"uint256","internalType":"uint256"}],"stateMutability":"view"},{"type":"function","name":"hintdicesStoreKeyList","inputs":[{"name":"","type":"uint256","internalType":"uint256"}],"outputs":[{"name":"","type":"bytes32","internalType":"bytes32"}],"stateMutability":"view"},{"type":"function","name":"isPortalOpen","inputs":[],"outputs":[{"name":"status","type":"bool","internalType":"bool"}],"stateMutability":"view"},{"type":"function","name":"onFlashLoan","inputs":[{"name":"","type":"address","internalType":"address"},{"name":"tokenA","type":"address","internalType":"address"},{"name":"amountA","type":"uint256","internalType":"uint256"},{"name":"tokenB","type":"address","internalType":"address"},{"name":"amountB","type":"uint256","internalType":"uint256"},{"name":"data","type":"bytes","internalType":"bytes"}],"outputs":[{"name":"","type":"bool","internalType":"bool"}],"stateMutability":"nonpayable"},{"type":"function","name":"returnStore","inputs":[{"name":"","type":"uint256","internalType":"uint256"}],"outputs":[{"name":"returnvalue","type":"bytes","internalType":"bytes"}],"stateMutability":"view"},{"type":"function","name":"sampleAdditionalData","inputs":[],"outputs":[{"name":"","type":"tuple","internalType":"struct AdditionalData","components":[{"name":"key","type":"bytes32","internalType":"bytes32"},{"name":"value","type":"bytes","internalType":"bytes"}]}],"stateMutability":"pure"},{"type":"event","name":"CallBreakerFlashFunds","inputs":[{"name":"tokenA","type":"address","indexed":false,"internalType":"address"},{"name":"amountA","type":"uint256","indexed":false,"internalType":"uint256"},{"name":"tokenB","type":"address","indexed":false,"internalType":"address"},{"name":"amountB","type":"uint256","indexed":false,"internalType":"uint256"}],"anonymous":false},{"type":"event","name":"CallPopulated","inputs":[{"name":"callObj","type":"tuple","indexed":false,"internalType":"struct CallObject","components":[{"name":"amount","type":"uint256","internalType":"uint256"},{"name":"gas","type":"uint256","internalType":"uint256"},{"name":"addr","type":"address","internalType":"address"},{"name":"callvalue","type":"bytes","internalType":"bytes"}]},{"name":"index","type":"uint256","indexed":false,"internalType":"uint256"}],"anonymous":false},{"type":"event","name":"EnterPortal","inputs":[{"name":"calls","type":"tuple[]","indexed":false,"internalType":"struct CallObject[]","components":[{"name":"amount","type":"uint256","internalType":"uint256"},{"name":"gas","type":"uint256","internalType":"uint256"},{"name":"addr","type":"address","internalType":"address"},{"name":"callvalue","type":"bytes","internalType":"bytes"}]},{"name":"returnValues","type":"tuple[]","indexed":false,"internalType":"struct ReturnObject[]","components":[{"name":"returnvalue","type":"bytes","internalType":"bytes"}]}],"anonymous":false},{"type":"event","name":"InsertIntoAssociatedDataStore","inputs":[{"name":"key","type":"bytes32","indexed":false,"internalType":"bytes32"},{"name":"value","type":"bytes","indexed":false,"internalType":"bytes"}],"anonymous":false},{"type":"event","name":"Tip","inputs":[{"name":"from","type":"address","indexed":true,"internalType":"address"},{"name":"to","type":"address","indexed":true,"internalType":"address"},{"name":"amount","type":"uint256","indexed":false,"internalType":"uint256"}],"anonymous":false},{"type":"event","name":"VerifyStxn","inputs":[],"anonymous":false},{"type":"error","name":"CallFailed","inputs":[]},{"type":"error","name":"CallPositionFailed","inputs":[{"name":"","type":"tuple","internalType":"struct CallObject","components":[{"name":"amount","type":"uint256","internalType":"uint256"},{"name":"gas","type":"uint256","internalType":"uint256"},{"name":"addr","type":"address","internalType":"address"},{"name":"callvalue","type":"bytes","internalType":"bytes"}]},{"name":"","type":"uint256","internalType":"uint256"}]},{"type":"error","name":"CallVerificationFailed","inputs":[]},{"type":"error","name":"IndexMismatch","inputs":[{"name":"","type":"uint256","internalType":"uint256"},{"name":"","type":"uint256","internalType":"uint256"}]},{"type":"error","name":"InvalidGas","inputs":[]},{"type":"error","name":"KeyAlreadyExists","inputs":[]},{"type":"error","name":"LengthMismatch","inputs":[]},{"type":"error","name":"MustBeEOA","inputs":[]},{"type":"error","name":"NonexistentKey","inputs":[]},{"type":"error","name":"OutOfEther","inputs":[]},{"type":"error","name":"PortalClosed","inputs":[]},{"type":"error","name":"PortalOpen","inputs":[]}],"bytecode":{"object":"0x6080604052348015600e575f80fd5b5060156019565b606f565b5f604360017f428da23f118e803bf8782d84723b15859880d3af9bc29a7d7c1b6990872a3510604b565b90505f815d50565b81810381811115606957634e487b7160e01b5f52601160045260245ffd5b92915050565b6129928061007c5f395ff3fe60806040526004361061013f575f3560e01c8063872ace16116100b3578063bf6892811161006d578063bf68928114610500578063c63ac0c214610514578063c9affd7c14610533578063e77b910a14610552578063ee631f8114610566578063ff55767514610579575f80fd5b8063872ace16146103ed5780638d7630d214610452578063939439b1146104715780639986c181146104a0578063a2f8e448146104bf578063bdf391cc146104d3575f80fd5b806339ca88ae1161010457806339ca88ae146102f55780633e50f00f14610314578063426c6f60146103415780635d6ad2001461037b57806369e91994146103af57806384379764146103ce575f80fd5b80631aea4b551461021d57806321a0e1641461026b578063224313ac14610297578063358aecdf146102aa57806335ce660a146102d6575f80fd5b36610219576040516f3a34b82cb7bab92130b93a32b73232b960811b60208201525f906030016040516020818303038152906040528051906020012090505f6101878261058d565b90505f61019382611b78565b60601c9050806001600160a01b0316336001600160a01b03167fcbefbf6a902aa93a9aafdd30aefd16e61f6c015bbf5fcaccfdf1d29d0c84e7d0346040516101dd91815260200190565b60405180910390a36040516001600160a01b038216903480156108fc02915f818181858888f19350505050158015610217573d5f803e3d5ffd5b005b5f80fd5b348015610228575f80fd5b506040805180820182525f808252606060209283015282518084018452818152835180840185529182529182015290516102629190611bef565b60405180910390f35b348015610276575f80fd5b5061028a610285366004611c1b565b61062c565b6040516102629190611c32565b6102176102a5366004611c8f565b6106c3565b3480156102b5575f80fd5b506102c96102c4366004611d59565b610710565b6040516102629190611d8f565b3480156102e1575f80fd5b506102c96102f0366004611d59565b610841565b348015610300575f80fd5b5061028a61030f366004611c1b565b61058d565b34801561031f575f80fd5b5061033361032e366004611c1b565b61096c565b604051908152602001610262565b34801561034c575f80fd5b5061036061035b366004611c1b565b61098b565b60408051825181526020928301519281019290925201610262565b348015610386575f80fd5b5061039a610395366004611c1b565b6109e2565b60408051928352602083019190915201610262565b3480156103ba575f80fd5b5061028a6103c9366004611c1b565b610a0e565b3480156103d9575f80fd5b5061028a6103e8366004611c1b565b610a22565b3480156103f8575f80fd5b5061040c610407366004611c1b565b610acc565b6040805163ffffffff90961686526001600160401b0390941660208601526001600160a01b0390921692840192909252606083019190915251608082015260a001610262565b34801561045d575f80fd5b5061033361046c366004611dc6565b610b34565b34801561047c575f80fd5b5061049061048b366004611e01565b610b5f565b6040519015158152602001610262565b3480156104ab575f80fd5b5061028a6104ba366004611e83565b610cdb565b3480156104ca575f80fd5b50610333610d06565b3480156104de575f80fd5b506104f26104ed366004611c1b565b610d39565b604051610262929190611f0f565b34801561050b575f80fd5b50610490610e1a565b34801561051f575f80fd5b5061033361052e366004611c1b565b610e3b565b34801561053e575f80fd5b5061033361054d366004611c1b565b610e83565b34801561055d575f80fd5b50610333610e92565b610217610574366004611f3c565b610ead565b348015610584575f80fd5b50610333610f80565b5f8181526003602052604090208054606091906105a990612037565b80601f01602080910402602001604051908101604052809291908181526020018280546105d590612037565b80156106205780601f106105f757610100808354040283529160200191610620565b820191905f5260205f20905b81548152906001019060200180831161060357829003601f168201915b50505050509050919050565b60036020525f90815260409020805461064490612037565b80601f016020809104026020016040519081016040528092919081815260200182805461067090612037565b80156106bb5780601f10610692576101008083540402835291602001916106bb565b820191905f5260205f20905b81548152906001019060200180831161069e57829003601f168201915b505050505081565b6106cb610e1a565b156106e95760405163332e4c0760e11b815260040160405180910390fd5b5f6106fa8989898989898989610fab565b9050610705816110b6565b505050505050505050565b60605f826040516020016107249190612114565b6040516020818303038152906040528051906020012090505f805b60065481101561078757826006828154811061075d5761075d612126565b905f5260205f2090600202015f01540361077f578161077b8161214e565b9250505b60010161073f565b505f816001600160401b038111156107a1576107a1612166565b6040519080825280602002602001820160405280156107ca578160200160208202803683370190505b5090505f805b6006548110156108365784600682815481106107ee576107ee612126565b905f5260205f2090600202015f01540361082e578083838151811061081557610815612126565b60209081029190910101528161082a8161214e565b9250505b6001016107d0565b509095945050505050565b60605f826040516020016108559190612114565b60408051601f1981840301815282825280516020918201205f81815260058352838120805480850287018501909552848652919550939290918301828280156108bb57602002820191905f5260205f20905b8154815260200190600101908083116108a7575b505050505090505f5b8151811015610964575f8282815181106108e0576108e0612126565b602002602001015190505f600682815481106108fe576108fe612126565b905f5260205f2090600202016040518060400160405290815f8201548152602001600182015481525050905084815f01511461095a57868260405163069e4c0160e51b815260040161095192919061217a565b60405180910390fd5b50506001016108c4565b509392505050565b6002818154811061097b575f80fd5b5f91825260209091200154905081565b604080518082019091525f8082526020820152600682815481106109b1576109b1612126565b905f5260205f2090600202016040518060400160405290815f82015481526020016001820154815250509050919050565b600681815481106109f1575f80fd5b5f9182526020909120600290910201805460019091015490915082565b60605f610a1a83611119565b519392505050565b60018181548110610a31575f80fd5b5f91825260209091200180549091508190610a4b90612037565b80601f0160208091040260200160405190810160405280929190818152602001828054610a7790612037565b8015610ac25780601f10610a9957610100808354040283529160200191610ac2565b820191905f5260205f20905b815481529060010190602001808311610aa557829003601f168201915b5050505050905081565b5f8181548110610ada575f80fd5b5f9182526020918290206003919091020180546001820154604080519485019052600290920154835263ffffffff8116935064010000000081046001600160401b031692600160601b9091046001600160a01b0316919085565b6005602052815f5260405f208181548110610b4d575f80fd5b905f5260205f20015f91509150505481565b5f610b68610e1a565b610b85576040516359f0d70960e01b815260040160405180910390fd5b604080516001600160a01b038981168252602082018990528716818301526060810186905290517f2b878e039e6e870d5e3c413200910a5fc079dd32f0d11ff0743e3cad7c15cd059181900360800190a15f610be38385018561233a565b9050610bee816110b6565b60405163095ea7b360e01b8152336004820152602481018890526001600160a01b0389169063095ea7b3906044016020604051808303815f875af1158015610c38573d5f803e3d5ffd5b505050506040513d601f19601f82011682018060405250810190610c5c91906123e9565b5060405163095ea7b360e01b8152336004820152602481018690526001600160a01b0387169063095ea7b3906044016020604051808303815f875af1158015610ca7573d5f803e3d5ffd5b505050506040513d601f19601f82011682018060405250810190610ccb91906123e9565b5060019998505050505050505050565b60605f610cea83850185612408565b90505f610cfa8260200151611119565b51925050505b92915050565b5f610d0f610e1a565b610d2c576040516359f0d70960e01b815260040160405180910390fd5b610d346111e4565b905090565b610d41611a2f565b604080516020810190915260608152610d5983611218565b60018481548110610d6c57610d6c612126565b905f5260205f2001806040518060200160405290815f82018054610d8f90612037565b80601f0160208091040260200160405190810160405280929190818152602001828054610dbb90612037565b8015610e065780601f10610ddd57610100808354040283529160200191610e06565b820191905f5260205f20905b815481529060010190602001808311610de957829003601f168201915b505050505081525050905091509150915091565b5f80610e3460015f8051602061293d83398151915261247e565b5c92915050565b5f80548210610e6a575f54604051634dd1399960e01b8152610951918491600401918252602082015260400190565b60018054610e7990849061247e565b610d00919061247e565b6004818154811061097b575f80fd5b610eaa60015f8051602061293d83398151915261247e565b81565b610eb5610e1a565b15610ed35760405163332e4c0760e11b815260040160405180910390fd5b610ee38a8a8a8a8a8a8a8a610fab565b505f610ef182840184612491565b9050805f01516001600160a01b031663679f057930836020015184604001518f8f6040518663ffffffff1660e01b8152600401610f329594939291906124f0565b6020604051808303815f875af1158015610f4e573d5f803e3d5ffd5b505050506040513d601f19601f82011682018060405250810190610f7291906123e9565b505050505050505050505050565b610eaa60017f3d58ae7810547e38261fea4758d581d120e8818c35472825fce002773f983a4361247e565b6060333214610fcd576040516309d1095b60e01b815260040160405180910390fd5b5f610fda898b018b61233a565b90505f610fe9888a018a612528565b90508051825114611010576040516001621398b960e31b0319815260040160405180910390fd5b61101a8282611246565b61102482826112a3565b61106287878080601f0160208091040260200160405190810160405280939291908181526020018383808284375f9201919091525061135692505050565b6110a085858080601f0160208091040260200160405190810160405280939291908181526020018383808284375f9201919091525061141592505050565b6110a86114e8565b509998505050505050505050565b80515f5b818110156110dc576110cb816115ee565b6110d481611621565b6001016110ba565b506110e561171a565b6110ed61173b565b6040517f4e7b26406bcc33a8d2611ef36c6bec73db957dc63f520880c9836d30c827973f905f90a15050565b6040805160208101909152606081526001828154811061113b5761113b612126565b905f5260205f20016040518060200160405290815f8201805461115d90612037565b80601f016020809104026020016040519081016040528092919081815260200182805461118990612037565b80156111d45780601f106111ab576101008083540402835291602001916111d4565b820191905f5260205f20905b8154815290600101906020018083116111b757829003601f168201915b5050505050815250509050919050565b5f8061121160017f3d58ae7810547e38261fea4758d581d120e8818c35472825fce002773f983a4361247e565b5492915050565b611220611a2f565b610d005f838154811061123557611235612126565b905f5260205f20906003020161183c565b5f61125f60015f8051602061293d83398151915261247e565b90506001815d7f6d9b26594ca9c8116087fe9111025bd7877bd8f8e8d0afce31a8083ec757ffba8383604051611296929190612604565b60405180910390a1505050565b5f5b8251811015611351576113058382815181106112c3576112c3612126565b60209081029190910101515f80546001810182559080526003027f290decd9548b62a8d60345a988386fc84ba6bc95484008f6362f93160ef3e56301906118c4565b600182828151811061131957611319612126565b60209081029190910181015182546001810184555f93845291909220825191019081906113469082612706565b5050506001016112a5565b505050565b5f8180602001905181019061136b91906127c0565b80519091505f5b8181101561140f57600283828151811061138e5761138e612126565b6020908102919091018101515182546001810184555f93845291909220015582518390829081106113c1576113c1612126565b60200260200101516020015160035f8584815181106113e2576113e2612126565b60200260200101515f015181526020019081526020015f2090816114069190612706565b50600101611372565b50505050565b5f8180602001905181019061142a91906127c0565b80519091505f5b8181101561140f57600483828151811061144d5761144d612126565b6020908102919091018101515182546001810184555f9384529183209091015583516005919085908490811061148557611485612126565b60200260200101515f015181526020019081526020015f208382815181106114af576114af612126565b6020026020010151602001518060200190518101906114ce91906128eb565b8154600181810184555f9384526020909320015501611431565b5f8054905b818110156115ea575f604051806040016040528061150a84611218565b60405160200161151a9190612902565b60408051808303601f1901815291905280516020918201208252908101849052600680546001810182555f9190915282517ff652222313e28459528d920b65115c16c04f3efc82aaedc97be59f3f377c0d3f600290920291820155908201517ff652222313e28459528d920b65115c16c04f3efc82aaedc97be59f3f377c0d409091015590507f93f7eac98c0ac1bb844d6ddc1b6e1d0a67800fa72f4ea9f928a58265e0527eb36115ca83611218565b836040516115d9929190612914565b60405180910390a1506001016114ed565b5050565b5f61161a60017f3d58ae7810547e38261fea4758d581d120e8818c35472825fce002773f983a4361247e565b9190915550565b5f8061162c83610d39565b9150915047825f01511115611654576040516375483b5360e01b815260040160405180910390fd5b5f8083604001516001600160a01b03168460200151855f0151866060015160405161167f9190612926565b5f60405180830381858888f193505050503d805f81146116ba576040519150601f19603f3d011682016040523d82523d5f602084013e6116bf565b606091505b5091509150816116e257604051633204506f60e01b815260040160405180910390fd5b8080519060200120835f01518051906020012014611713576040516366345c5d60e11b815260040160405180910390fd5b5050505050565b5f61173360015f8051602061293d83398151915261247e565b90505f815d50565b6117455f80611a5d565b61175060015f611a7e565b61175b60065f611a99565b5f5b6002548110156117a65760035f6002838154811061177d5761177d612126565b905f5260205f20015481526020019081526020015f205f61179e9190611ab7565b60010161175d565b506117b260025f611aee565b5f5b6004548110156117fd5760055f600483815481106117d4576117d4612126565b905f5260205f20015481526020019081526020015f205f6117f59190611aee565b6001016117b4565b5061180960045f611aee565b471561183a57604051419081904780156108fc02915f818181858888f193505050501580156115ea573d5f803e3d5ffd5b565b611844611a2f565b81546001600160a01b03600160601b820416604083015263ffffffff8116906001600160401b03640100000000820416906380000000165f0361188d57602083018290526118a1565b637fffffff82166020840152600184015483525b6118b76001600160401b03821660028601611991565b6060840152509092915050565b6020810151637fffffff8111156118ee57604051631483be6160e21b815260040160405180910390fd5b81515f81900361191057835463ffffffff191663ffffffff8316178455611931565b835463ffffffff19166380000000831763ffffffff16178455600184018190555b60608301516119449060028601906119e2565b84546040909401516001600160a01b0316600160601b026001600160601b036001600160401b0392909216640100000000029190911663ffffffff90941693909317929092179092555050565b6040515f8082526001600160401b03841660048301528281526020908190208251909190830101602483015b818110156119d757825481526001909201916020016119bd565b506040525092915050565b5f6001600160401b036004830151169050825f5260205f2082516004602001840181602086010191505b81811015611a265780518355600190920191602001611a0c565b50505092915050565b60405180608001604052805f81526020015f81526020015f6001600160a01b03168152602001606081525090565b5080545f8255600302905f5260205f2090810190611a7b9190611b09565b50565b5080545f8255905f5260205f2090810190611a7b9190611b2e565b5080545f8255600202905f5260205f2090810190611a7b9190611b4a565b508054611ac390612037565b5f825580601f10611ad2575050565b601f0160209004905f5260205f2090810190611a7b9190611b64565b5080545f8255905f5260205f2090810190611a7b9190611b64565b5b80821115611b2a575f808255600182018190556002820155600301611b0a565b5090565b80821115611b2a575f611b418282611ab7565b50600101611b2e565b5b80821115611b2a575f8082556001820155600201611b4b565b5b80821115611b2a575f8155600101611b65565b805160208201516bffffffffffffffffffffffff19811691906014821015611bba576001600160601b03196001600160601b03198360140360031b1b82161692505b5050919050565b5f81518084528060208401602086015e5f602082860101526020601f19601f83011685010191505092915050565b60208152815160208201525f6020830151604080840152611c136060840182611bc1565b949350505050565b5f60208284031215611c2b575f80fd5b5035919050565b602081525f611c446020830184611bc1565b9392505050565b5f8083601f840112611c5b575f80fd5b5081356001600160401b03811115611c71575f80fd5b602083019150836020828501011115611c88575f80fd5b9250929050565b5f805f805f805f806080898b031215611ca6575f80fd5b88356001600160401b03811115611cbb575f80fd5b611cc78b828c01611c4b565b90995097505060208901356001600160401b03811115611ce5575f80fd5b611cf18b828c01611c4b565b90975095505060408901356001600160401b03811115611d0f575f80fd5b611d1b8b828c01611c4b565b90955093505060608901356001600160401b03811115611d39575f80fd5b611d458b828c01611c4b565b999c989b5096995094979396929594505050565b5f60208284031215611d69575f80fd5b81356001600160401b03811115611d7e575f80fd5b820160808185031215611c44575f80fd5b602080825282518282018190525f918401906040840190835b81811015610836578351835260209384019390920191600101611da8565b5f8060408385031215611dd7575f80fd5b50508035926020909101359150565b80356001600160a01b0381168114611dfc575f80fd5b919050565b5f805f805f805f60c0888a031215611e17575f80fd5b611e2088611de6565b9650611e2e60208901611de6565b955060408801359450611e4360608901611de6565b93506080880135925060a08801356001600160401b03811115611e64575f80fd5b611e708a828b01611c4b565b989b979a50959850939692959293505050565b5f8060208385031215611e94575f80fd5b82356001600160401b03811115611ea9575f80fd5b611eb585828601611c4b565b90969095509350505050565b805182526020810151602083015260018060a01b0360408201511660408301525f606082015160806060850152611c136080850182611bc1565b5f815160208452611c136020850182611bc1565b604081525f611f216040830185611ec1565b8281036020840152611f338185611efb565b95945050505050565b5f805f805f805f805f8060a08b8d031215611f55575f80fd5b8a356001600160401b03811115611f6a575f80fd5b611f768d828e01611c4b565b909b5099505060208b01356001600160401b03811115611f94575f80fd5b611fa08d828e01611c4b565b90995097505060408b01356001600160401b03811115611fbe575f80fd5b611fca8d828e01611c4b565b90975095505060608b01356001600160401b03811115611fe8575f80fd5b611ff48d828e01611c4b565b90955093505060808b01356001600160401b03811115612012575f80fd5b61201e8d828e01611c4b565b915080935050809150509295989b9194979a5092959850565b600181811c9082168061204b57607f821691505b60208210810361206957634e487b7160e01b5f52602260045260245ffd5b50919050565b81835281816020850137505f828201602090810191909152601f909101601f19169091010190565b80358252602080820135908301525f6001600160a01b036120ba60408401611de6565b1660408401526060820135601e198336030181126120d6575f80fd5b82016020810190356001600160401b038111156120f1575f80fd5b8036038213156120ff575f80fd5b60806060860152611f3360808601828461206f565b602081525f611c446020830184612097565b634e487b7160e01b5f52603260045260245ffd5b634e487b7160e01b5f52601160045260245ffd5b5f6001820161215f5761215f61213a565b5060010190565b634e487b7160e01b5f52604160045260245ffd5b604081525f61218c6040830185612097565b90508260208301529392505050565b604080519081016001600160401b03811182821017156121bd576121bd612166565b60405290565b604051602081016001600160401b03811182821017156121bd576121bd612166565b604051601f8201601f191681016001600160401b038111828210171561220d5761220d612166565b604052919050565b5f6001600160401b0382111561222d5761222d612166565b5060051b60200190565b5f6001600160401b0382111561224f5761224f612166565b50601f01601f191660200190565b5f82601f83011261226c575f80fd5b813561227f61227a82612237565b6121e5565b818152846020838601011115612293575f80fd5b816020850160208301375f918101602001919091529392505050565b5f608082840312156122bf575f80fd5b604051608081016001600160401b03811182821017156122e1576122e1612166565b604090815283358252602080850135908301529091508190612304908401611de6565b604082015260608301356001600160401b03811115612321575f80fd5b61232d8582860161225d565b6060830152505092915050565b5f6020828403121561234a575f80fd5b81356001600160401b0381111561235f575f80fd5b8201601f8101841361236f575f80fd5b803561237d61227a82612215565b8082825260208201915060208360051b85010192508683111561239e575f80fd5b602084015b838110156123de5780356001600160401b038111156123c0575f80fd5b6123cf896020838901016122af565b845250602092830192016123a3565b509695505050505050565b5f602082840312156123f9575f80fd5b81518015158114611c44575f80fd5b5f60208284031215612418575f80fd5b81356001600160401b0381111561242d575f80fd5b82016040818503121561243e575f80fd5b61244661219b565b81356001600160401b0381111561245b575f80fd5b612467868285016122af565b825250602091820135918101919091529392505050565b81810381811115610d0057610d0061213a565b5f60608284031280156124a2575f80fd5b50604051606081016001600160401b03811182821017156124c5576124c5612166565b6040526124d183611de6565b8152602083810135908201526040928301359281019290925250919050565b60018060a01b0386168152846020820152836040820152608060608201525f61251d60808301848661206f565b979650505050505050565b5f60208284031215612538575f80fd5b81356001600160401b0381111561254d575f80fd5b8201601f8101841361255d575f80fd5b803561256b61227a82612215565b8082825260208201915060208360051b85010192508683111561258c575f80fd5b602084015b838110156123de5780356001600160401b038111156125ae575f80fd5b85016020818a03601f190112156125c3575f80fd5b6125cb6121c3565b60208201356001600160401b038111156125e3575f80fd5b6125f28b60208386010161225d565b82525084525060209283019201612591565b5f604082016040835280855180835260608501915060608160051b8601019250602087015f5b8281101561265b57605f19878603018452612646858351611ec1565b9450602093840193919091019060010161262a565b50505050828103602084015280845180835260208301915060208160051b840101602087015f5b838110156126b457601f1986840301855261269e838351611efb565b6020958601959093509190910190600101612682565b509098975050505050505050565b601f82111561135157805f5260205f20601f840160051c810160208510156126e75750805b601f840160051c820191505b81811015611713575f81556001016126f3565b81516001600160401b0381111561271f5761271f612166565b6127338161272d8454612037565b846126c2565b6020601f821160018114612765575f831561274e5750848201515b5f19600385901b1c1916600184901b178455611713565b5f84815260208120601f198516915b828110156127945787850151825560209485019460019092019101612774565b50848210156127b157868401515f19600387901b60f8161c191681555b50505050600190811b01905550565b5f602082840312156127d0575f80fd5b81516001600160401b038111156127e5575f80fd5b8201601f810184136127f5575f80fd5b805161280361227a82612215565b8082825260208201915060208360051b850101925086831115612824575f80fd5b602084015b838110156123de5780516001600160401b03811115612846575f80fd5b85016040818a03601f1901121561285b575f80fd5b61286361219b565b6020820151815260408201516001600160401b03811115612882575f80fd5b60208184010192505089601f830112612899575f80fd5b81516128a761227a82612237565b8181528b60208386010111156128bb575f80fd5b8160208501602083015e5f6020838301015280602084015250508085525050602083019250602081019050612829565b5f602082840312156128fb575f80fd5b5051919050565b602081525f611c446020830184611ec1565b604081525f61218c6040830185611ec1565b5f82518060208501845e5f92019182525091905056fe428da23f118e803bf8782d84723b15859880d3af9bc29a7d7c1b6990872a3510a264697066735822122003278aecd3a8ca564d902e029e2d71e588867f3c20034b835d10cae2ba47581b64736f6c634300081a0033","linkReferences":{}},"methodIdentifiers":{"EXECUTING_CALL_INDEX_SLOT()":"ff557675","PORTAL_SLOT()":"e77b910a","associatedDataKeyList(uint256)":"3e50f00f","associatedDataStore(bytes32)":"21a0e164","callList(uint256)":"5d6ad200","callStore(uint256)":"872ace16","executeAndVerify(bytes,bytes,bytes,bytes)":"224313ac","executeAndVerify(bytes,bytes,bytes,bytes,bytes)":"ee631f81","fetchFromAssociatedDataStore(bytes32)":"39ca88ae","getCallIndex((uint256,uint256,address,bytes))":"35ce660a","getCallListAt(uint256)":"426c6f60","getCompleteCallIndexList((uint256,uint256,address,bytes))":"358aecdf","getCurrentlyExecuting()":"a2f8e448","getPair(uint256)":"bdf391cc","getReturnValue(bytes)":"9986c181","getReturnValue(uint256)":"69e91994","getReverseIndex(uint256)":"c63ac0c2","hintdicesStore(bytes32,uint256)":"8d7630d2","hintdicesStoreKeyList(uint256)":"c9affd7c","isPortalOpen()":"bf689281","onFlashLoan(address,address,uint256,address,uint256,bytes)":"939439b1","returnStore(uint256)":"84379764","sampleAdditionalData()":"1aea4b55"},"storageLayout":{"storage":[{"astId":56216,"contract":"src/timetravel/CallBreaker.sol:CallBreaker","label":"callStore","offset":0,"slot":"0","type":"t_array(t_struct(CallObjectStorage)53003_storage)dyn_storage"},{"astId":56220,"contract":"src/timetravel/CallBreaker.sol:CallBreaker","label":"returnStore","offset":0,"slot":"1","type":"t_array(t_struct(ReturnObject)53014_storage)dyn_storage"},{"astId":56223,"contract":"src/timetravel/CallBreaker.sol:CallBreaker","label":"associatedDataKeyList","offset":0,"slot":"2","type":"t_array(t_bytes32)dyn_storage"},{"astId":56227,"contract":"src/timetravel/CallBreaker.sol:CallBreaker","label":"associatedDataStore","offset":0,"slot":"3","type":"t_mapping(t_bytes32,t_bytes_storage)"},{"astId":56230,"contract":"src/timetravel/CallBreaker.sol:CallBreaker","label":"hintdicesStoreKeyList","offset":0,"slot":"4","type":"t_array(t_bytes32)dyn_storage"},{"astId":56235,"contract":"src/timetravel/CallBreaker.sol:CallBreaker","label":"hintdicesStore","offset":0,"slot":"5","type":"t_mapping(t_bytes32,t_array(t_uint256)dyn_storage)"},{"astId":56239,"contract":"src/timetravel/CallBreaker.sol:CallBreaker","label":"callList","offset":0,"slot":"6","type":"t_array(t_struct(Call)52940_storage)dyn_storage"}],"types":{"t_address":{"encoding":"inplace","label":"address","numberOfBytes":"20"},"t_array(t_bytes32)dyn_storage":{"encoding":"dynamic_array","label":"bytes32[]","numberOfBytes":"32","base":"t_bytes32"},"t_array(t_struct(Call)52940_storage)dyn_storage":{"encoding":"dynamic_array","label":"struct Call[]","numberOfBytes":"32","base":"t_struct(Call)52940_storage"},"t_array(t_struct(CallObjectStorage)53003_storage)dyn_storage":{"encoding":"dynamic_array","label":"struct CallObjectStorage[]","numberOfBytes":"32","base":"t_struct(CallObjectStorage)53003_storage"},"t_array(t_struct(ReturnObject)53014_storage)dyn_storage":{"encoding":"dynamic_array","label":"struct ReturnObject[]","numberOfBytes":"32","base":"t_struct(ReturnObject)53014_storage"},"t_array(t_uint256)dyn_storage":{"encoding":"dynamic_array","label":"uint256[]","numberOfBytes":"32","base":"t_uint256"},"t_bytes32":{"encoding":"inplace","label":"bytes32","numberOfBytes":"32"},"t_bytes_storage":{"encoding":"bytes","label":"bytes","numberOfBytes":"32"},"t_mapping(t_bytes32,t_array(t_uint256)dyn_storage)":{"encoding":"mapping","key":"t_bytes32","label":"mapping(bytes32 => uint256[])","numberOfBytes":"32","value":"t_array(t_uint256)dyn_storage"},"t_mapping(t_bytes32,t_bytes_storage)":{"encoding":"mapping","key":"t_bytes32","label":"mapping(bytes32 => bytes)","numberOfBytes":"32","value":"t_bytes_storage"},"t_struct(Call)52940_storage":{"encoding":"inplace","label":"struct Call","numberOfBytes":"64","members":[{"astId":52937,"contract":"src/timetravel/CallBreaker.sol:CallBreaker","label":"callId","offset":0,"slot":"0","type":"t_bytes32"},{"astId":52939,"contract":"src/timetravel/CallBreaker.sol:CallBreaker","label":"index","offset":0,"slot":"1","type":"t_uint256"}]},"t_struct(CallObjectStorage)53003_storage":{"encoding":"inplace","label":"struct CallObjectStorage","numberOfBytes":"96","members":[{"astId":52992,"contract":"src/timetravel/CallBreaker.sol:CallBreaker","label":"flagAndGas","offset":0,"slot":"0","type":"t_uint32"},{"astId":52995,"contract":"src/timetravel/CallBreaker.sol:CallBreaker","label":"cdHead","offset":4,"slot":"0","type":"t_userDefinedValueType(compactCdHead)54999"},{"astId":52997,"contract":"src/timetravel/CallBreaker.sol:CallBreaker","label":"addr","offset":12,"slot":"0","type":"t_address"},{"astId":52999,"contract":"src/timetravel/CallBreaker.sol:CallBreaker","label":"amount","offset":0,"slot":"1","type":"t_uint256"},{"astId":53002,"contract":"src/timetravel/CallBreaker.sol:CallBreaker","label":"cdTail","offset":0,"slot":"2","type":"t_struct(compactCdTailSlot)55003_storage"}]},"t_struct(ReturnObject)53014_storage":{"encoding":"inplace","label":"struct ReturnObject","numberOfBytes":"32","members":[{"astId":53013,"contract":"src/timetravel/CallBreaker.sol:CallBreaker","label":"returnvalue","offset":0,"slot":"0","type":"t_bytes_storage"}]},"t_struct(compactCdTailSlot)55003_storage":{"encoding":"inplace","label":"struct compactCdTailSlot","numberOfBytes":"32","members":[{"astId":55002,"contract":"src/timetravel/CallBreaker.sol:CallBreaker","label":"___mass","offset":0,"slot":"0","type":"t_uint256"}]},"t_uint256":{"encoding":"inplace","label":"uint256","numberOfBytes":"32"},"t_uint32":{"encoding":"inplace","label":"uint32","numberOfBytes":"4"},"t_userDefinedValueType(compactCdHead)54999":{"encoding":"inplace","label":"compactCdHead","numberOfBytes":"8"}}},"id":58}