{"abi":[{"type":"constructor","inputs":[],"stateMutability":"nonpayable"},{"type":"receive","stateMutability":"payable"},{"type":"function","name":"EXECUTING_CALL_INDEX_SLOT","inputs":[],"outputs":[{"name":"","type":"bytes32","internalType":"bytes32"}],"stateMutability":"view"},{"type":"function","name":"PORTAL_SLOT","inputs":[],"outputs":[{"name":"","type":"bytes32","internalType":"bytes32"}],"stateMutability":"view"},{"type":"function","name":"associatedDataKeyList","inputs":[{"name":"","type":"uint256","internalType":"uint256"}],"outputs":[{"name":"","type":"bytes32","internalType":"bytes32"}],"stateMutability":"view"},{"type":"function","name":"associatedDataStore","inputs":[{"name":"","type":"bytes32","internalType":"bytes32"}],"outputs":[{"name":"_head","type":"uint256","internalType":"uint256"}],"stateMutability":"view"},{"type":"function","name":"callList","inputs":[{"name":"","type":"uint256","internalType":"uint256"}],"outputs":[{"name":"callId","type":"bytes32","internalType":"bytes32"},{"name":"index","type":"uint256","internalType":"uint256"}],"stateMutability":"view"},{"type":"function","name":"callStore","inputs":[{"name":"","type":"uint256","internalType":"uint256"}],"outputs":[{"name":"flagAndGas","type":"uint32","internalType":"uint32"},{"name":"cdHead","type":"uint64","internalType":"compactCdHead"},{"name":"addr","type":"address","internalType":"address"},{"name":"amount","type":"uint256","internalType":"uint256"},{"name":"cdTail","type":"tuple","internalType":"struct compactCdTailSlot","components":[{"name":"___mass","type":"uint256","internalType":"uint256"}]}],"stateMutability":"view"},{"type":"function","name":"executeAndVerify","inputs":[{"name":"callsBytes","type":"bytes","internalType":"bytes"},{"name":"returnsBytes","type":"bytes","internalType":"bytes"},{"name":"associatedData","type":"bytes","internalType":"bytes"},{"name":"hintdices","type":"bytes","internalType":"bytes"}],"outputs":[],"stateMutability":"payable"},{"type":"function","name":"executeAndVerify","inputs":[{"name":"callsBytes","type":"bytes","internalType":"bytes"},{"name":"returnsBytes","type":"bytes","internalType":"bytes"},{"name":"associatedData","type":"bytes","internalType":"bytes"},{"name":"hintdices","type":"bytes","internalType":"bytes"},{"name":"flashLoanData","type":"bytes","internalType":"bytes"}],"outputs":[],"stateMutability":"payable"},{"type":"function","name":"fetchFromAssociatedDataStore","inputs":[{"name":"key","type":"bytes32","internalType":"bytes32"}],"outputs":[{"name":"","type":"bytes","internalType":"bytes"}],"stateMutability":"view"},{"type":"function","name":"getCallIndex","inputs":[{"name":"callObj","type":"tuple","internalType":"struct CallObject","components":[{"name":"amount","type":"uint256","internalType":"uint256"},{"name":"gas","type":"uint256","internalType":"uint256"},{"name":"addr","type":"address","internalType":"address"},{"name":"callvalue","type":"bytes","internalType":"bytes"}]}],"outputs":[{"name":"","type":"uint256[]","internalType":"uint256[]"}],"stateMutability":"view"},{"type":"function","name":"getCallListAt","inputs":[{"name":"i","type":"uint256","internalType":"uint256"}],"outputs":[{"name":"","type":"tuple","internalType":"struct Call","components":[{"name":"callId","type":"bytes32","internalType":"bytes32"},{"name":"index","type":"uint256","internalType":"uint256"}]}],"stateMutability":"view"},{"type":"function","name":"getCompleteCallIndexList","inputs":[{"name":"callObj","type":"tuple","internalType":"struct CallObject","components":[{"name":"amount","type":"uint256","internalType":"uint256"},{"name":"gas","type":"uint256","internalType":"uint256"},{"name":"addr","type":"address","internalType":"address"},{"name":"callvalue","type":"bytes","internalType":"bytes"}]}],"outputs":[{"name":"","type":"uint256[]","internalType":"uint256[]"}],"stateMutability":"view"},{"type":"function","name":"getCurrentlyExecuting","inputs":[],"outputs":[{"name":"","type":"uint256","internalType":"uint256"}],"stateMutability":"view"},{"type":"function","name":"getPair","inputs":[{"name":"i","type":"uint256","internalType":"uint256"}],"outputs":[{"name":"","type":"tuple","internalType":"struct CallObject","components":[{"name":"amount","type":"uint256","internalType":"uint256"},{"name":"gas","type":"uint256","internalType":"uint256"},{"name":"addr","type":"address","internalType":"address"},{"name":"callvalue","type":"bytes","internalType":"bytes"}]},{"name":"","type":"tuple","internalType":"struct ReturnObject","components":[{"name":"returnvalue","type":"bytes","internalType":"bytes"}]}],"stateMutability":"view"},{"type":"function","name":"getReturnValue","inputs":[{"name":"index","type":"uint256","internalType":"uint256"}],"outputs":[{"name":"","type":"bytes","internalType":"bytes"}],"stateMutability":"view"},{"type":"function","name":"getReturnValue","inputs":[{"name":"input","type":"bytes","internalType":"bytes"}],"outputs":[{"name":"","type":"bytes","internalType":"bytes"}],"stateMutability":"view"},{"type":"function","name":"getReverseIndex","inputs":[{"name":"index","type":"uint256","internalType":"uint256"}],"outputs":[{"name":"","type":"uint256","internalType":"uint256"}],"stateMutability":"view"},{"type":"function","name":"hintdicesStore","inputs":[{"name":"","type":"bytes32","internalType":"bytes32"}],"outputs":[{"name":"set","type":"bool","internalType":"bool"}],"stateMutability":"view"},{"type":"function","name":"hintdicesStoreKeyList","inputs":[{"name":"","type":"uint256","internalType":"uint256"}],"outputs":[{"name":"","type":"bytes32","internalType":"bytes32"}],"stateMutability":"view"},{"type":"function","name":"isPortalOpen","inputs":[],"outputs":[{"name":"status","type":"bool","internalType":"bool"}],"stateMutability":"view"},{"type":"function","name":"onFlashLoan","inputs":[{"name":"","type":"address","internalType":"address"},{"name":"tokenA","type":"address","internalType":"address"},{"name":"amountA","type":"uint256","internalType":"uint256"},{"name":"tokenB","type":"address","internalType":"address"},{"name":"amountB","type":"uint256","internalType":"uint256"},{"name":"data","type":"bytes","internalType":"bytes"}],"outputs":[{"name":"","type":"bool","internalType":"bool"}],"stateMutability":"nonpayable"},{"type":"function","name":"returnStore","inputs":[{"name":"","type":"uint256","internalType":"uint256"}],"outputs":[{"name":"returnvalue","type":"bytes","internalType":"bytes"}],"stateMutability":"view"},{"type":"event","name":"CallBreakerFlashFunds","inputs":[{"name":"tokenA","type":"address","indexed":false,"internalType":"address"},{"name":"amountA","type":"uint256","indexed":false,"internalType":"uint256"},{"name":"tokenB","type":"address","indexed":false,"internalType":"address"},{"name":"amountB","type":"uint256","indexed":false,"internalType":"uint256"}],"anonymous":false},{"type":"event","name":"CallPopulated","inputs":[{"name":"callObj","type":"tuple","indexed":false,"internalType":"struct CallObject","components":[{"name":"amount","type":"uint256","internalType":"uint256"},{"name":"gas","type":"uint256","internalType":"uint256"},{"name":"addr","type":"address","internalType":"address"},{"name":"callvalue","type":"bytes","internalType":"bytes"}]},{"name":"index","type":"uint256","indexed":false,"internalType":"uint256"}],"anonymous":false},{"type":"event","name":"EnterPortal","inputs":[{"name":"callObj","type":"tuple","indexed":false,"internalType":"struct CallObject","components":[{"name":"amount","type":"uint256","internalType":"uint256"},{"name":"gas","type":"uint256","internalType":"uint256"},{"name":"addr","type":"address","internalType":"address"},{"name":"callvalue","type":"bytes","internalType":"bytes"}]},{"name":"returnvalue","type":"tuple","indexed":false,"internalType":"struct ReturnObject","components":[{"name":"returnvalue","type":"bytes","internalType":"bytes"}]},{"name":"index","type":"uint256","indexed":false,"internalType":"uint256"}],"anonymous":false},{"type":"event","name":"InsertIntoAssociatedDataStore","inputs":[{"name":"key","type":"bytes32","indexed":false,"internalType":"bytes32"},{"name":"value","type":"bytes","indexed":false,"internalType":"bytes"}],"anonymous":false},{"type":"event","name":"Tip","inputs":[{"name":"from","type":"address","indexed":true,"internalType":"address"},{"name":"to","type":"address","indexed":true,"internalType":"address"},{"name":"amount","type":"uint256","indexed":false,"internalType":"uint256"}],"anonymous":false},{"type":"event","name":"VerifyStxn","inputs":[],"anonymous":false},{"type":"error","name":"CallFailed","inputs":[]},{"type":"error","name":"CallPositionFailed","inputs":[{"name":"","type":"tuple","internalType":"struct CallObject","components":[{"name":"amount","type":"uint256","internalType":"uint256"},{"name":"gas","type":"uint256","internalType":"uint256"},{"name":"addr","type":"address","internalType":"address"},{"name":"callvalue","type":"bytes","internalType":"bytes"}]},{"name":"","type":"uint256","internalType":"uint256"}]},{"type":"error","name":"CallVerificationFailed","inputs":[]},{"type":"error","name":"EmptyCalldata","inputs":[]},{"type":"error","name":"IndexMismatch","inputs":[{"name":"","type":"uint256","internalType":"uint256"},{"name":"","type":"uint256","internalType":"uint256"}]},{"type":"error","name":"InvalidGas","inputs":[]},{"type":"error","name":"KeyAlreadyExists","inputs":[]},{"type":"error","name":"LengthMismatch","inputs":[]},{"type":"error","name":"MustBeEOA","inputs":[]},{"type":"error","name":"NonexistentKey","inputs":[]},{"type":"error","name":"OutOfEther","inputs":[]},{"type":"error","name":"OutOfReturnValues","inputs":[]},{"type":"error","name":"PortalClosed","inputs":[]},{"type":"error","name":"PortalOpen","inputs":[]},{"type":"error","name":"TimeImbalance","inputs":[]}],"bytecode":{"object":"0x6080604052348015600e575f80fd5b5060156019565b606f565b5f604360017f428da23f118e803bf8782d84723b15859880d3af9bc29a7d7c1b6990872a3510604b565b90505f815d50565b81810381811115606957634e487b7160e01b5f52601160045260245ffd5b92915050565b612ac08061007c5f395ff3fe608060405260043610610134575f3560e01c8063939439b1116100a8578063bf6892811161006d578063bf689281146104c7578063c63ac0c2146104db578063c9affd7c146104fa578063e77b910a14610519578063ee631f811461052d578063ff55767514610540575f80fd5b8063939439b11461040a5780639986c18114610439578063a2f8e44814610458578063b7b3d9261461046c578063bdf391cc1461049a575f80fd5b80633e50f00f116100f95780633e50f00f146102da578063426c6f60146102f95780635d6ad2001461033357806369e91994146103675780638437976414610386578063872ace16146103a5575f80fd5b806321a0e16414610212578063224313ac14610250578063358aecdf1461026357806335ce660a1461028f57806339ca88ae146102ae575f80fd5b3661020e576040516f3a34b82cb7bab92130b93a32b73232b960811b60208201525f906030016040516020818303038152906040528051906020012090505f61017c82610554565b90505f61018882611c7b565b60601c9050806001600160a01b0316336001600160a01b03167fcbefbf6a902aa93a9aafdd30aefd16e61f6c015bbf5fcaccfdf1d29d0c84e7d0346040516101d291815260200190565b60405180910390a36040516001600160a01b038216903480156108fc02915f818181858888f1935050505015801561020c573d5f803e3d5ffd5b005b5f80fd5b34801561021d575f80fd5b5061023d61022c366004611cc4565b60036020525f908152604090205481565b6040519081526020015b60405180910390f35b61020c61025e366004611d1f565b6105a4565b34801561026e575f80fd5b5061028261027d366004611de9565b6105f1565b6040516102479190611e26565b34801561029a575f80fd5b506102826102a9366004611de9565b6106cb565b3480156102b9575f80fd5b506102cd6102c8366004611cc4565b610554565b6040516102479190611e96565b3480156102e5575f80fd5b5061023d6102f4366004611cc4565b610800565b348015610304575f80fd5b50610318610313366004611cc4565b61081f565b60408051825181526020928301519281019290925201610247565b34801561033e575f80fd5b5061035261034d366004611cc4565b610876565b60408051928352602083019190915201610247565b348015610372575f80fd5b506102cd610381366004611cc4565b6108a2565b348015610391575f80fd5b506102cd6103a0366004611cc4565b6108b6565b3480156103b0575f80fd5b506103c46103bf366004611cc4565b610960565b6040805163ffffffff90961686526001600160401b0390941660208601526001600160a01b0390921692840192909252606083019190915251608082015260a001610247565b348015610415575f80fd5b50610429610424366004611ec3565b6109c8565b6040519015158152602001610247565b348015610444575f80fd5b506102cd610453366004611f45565b610b44565b348015610463575f80fd5b5061023d610b6d565b348015610477575f80fd5b50610429610486366004611cc4565b60056020525f908152604090205460ff1681565b3480156104a5575f80fd5b506104b96104b4366004611cc4565b610ba0565b604051610247929190611fd9565b3480156104d2575f80fd5b50610429610c81565b3480156104e6575f80fd5b5061023d6104f5366004611cc4565b610ca2565b348015610505575f80fd5b5061023d610514366004611cc4565b610cea565b348015610524575f80fd5b5061023d610cf9565b61020c61053b366004612006565b610d14565b34801561054b575f80fd5b5061023d610de7565b5f81815260036020526040902054606090600160ff1b166105885760405163f7c16a3760e01b815260040160405180910390fd5b5f82815260036020526040902061059e90610e12565b92915050565b6105ac610c81565b156105ca5760405163332e4c0760e11b815260040160405180910390fd5b5f6105db8989898989898989610e8c565b90506105e681610f95565b505050505050505050565b60605f8260405160200161060591906121a6565b6040516020818303038152906040528051906020012090505f6006805490506001600160401b0381111561063b5761063b6121b8565b604051908082528060200260200182016040528015610664578160200160208202803683370190505b5090505f5b6006548110156106c3578260068281548110610687576106876121cc565b905f5260205f2090600202015f0154036106bb57808282815181106106ae576106ae6121cc565b6020026020010181815250505b600101610669565b509392505050565b60605f826040516020016106df91906121a6565b60408051601f1981840301815291815281516020928301205f8181526005909352908220909250600101905b81548110156107ac575f828281548110610727576107276121cc565b905f5260205f20015490505f60068281548110610746576107466121cc565b905f5260205f2090600202016040518060400160405290815f8201548152602001600182015481525050905084815f0151146107a257868260405163069e4c0160e51b81526004016107999291906121e0565b60405180910390fd5b505060010161070b565b508054604080516020808402820181019092528281529183918301828280156107f257602002820191905f5260205f20905b8154815260200190600101908083116107de575b505050505092505050919050565b6002818154811061080f575f80fd5b5f91825260209091200154905081565b604080518082019091525f808252602082015260068281548110610845576108456121cc565b905f5260205f2090600202016040518060400160405290815f82015481526020016001820154815250509050919050565b60068181548110610885575f80fd5b5f9182526020909120600290910201805460019091015490915082565b60605f6108ae83610ff8565b519392505050565b600181815481106108c5575f80fd5b5f918252602090912001805490915081906108df90612201565b80601f016020809104026020016040519081016040528092919081815260200182805461090b90612201565b80156109565780601f1061092d57610100808354040283529160200191610956565b820191905f5260205f20905b81548152906001019060200180831161093957829003601f168201915b5050505050905081565b5f818154811061096e575f80fd5b5f9182526020918290206003919091020180546001820154604080519485019052600290920154835263ffffffff8116935064010000000081046001600160401b031692600160601b9091046001600160a01b0316919085565b5f6109d1610c81565b6109ee576040516359f0d70960e01b815260040160405180910390fd5b604080516001600160a01b038981168252602082018990528716818301526060810186905290517f2b878e039e6e870d5e3c413200910a5fc079dd32f0d11ff0743e3cad7c15cd059181900360800190a15f610a4c838501856123b6565b9050610a5781610f95565b60405163095ea7b360e01b8152336004820152602481018890526001600160a01b0389169063095ea7b3906044016020604051808303815f875af1158015610aa1573d5f803e3d5ffd5b505050506040513d601f19601f82011682018060405250810190610ac59190612465565b5060405163095ea7b360e01b8152336004820152602481018690526001600160a01b0387169063095ea7b3906044016020604051808303815f875af1158015610b10573d5f803e3d5ffd5b505050506040513d601f19601f82011682018060405250810190610b349190612465565b5060019998505050505050505050565b60605f610b5383850185612484565b90505f610b638260200151610ff8565b5195945050505050565b5f610b76610c81565b610b93576040516359f0d70960e01b815260040160405180910390fd5b610b9b6110c3565b905090565b610ba8611aed565b604080516020810190915260608152610bc0836110f7565b60018481548110610bd357610bd36121cc565b905f5260205f2001806040518060200160405290815f82018054610bf690612201565b80601f0160208091040260200160405190810160405280929190818152602001828054610c2290612201565b8015610c6d5780601f10610c4457610100808354040283529160200191610c6d565b820191905f5260205f20905b815481529060010190602001808311610c5057829003601f168201915b505050505081525050905091509150915091565b5f80610c9b60015f80516020612a6b833981519152612517565b5c92915050565b5f80548210610cd1575f54604051634dd1399960e01b8152610799918491600401918252602082015260400190565b60018054610ce0908490612517565b61059e9190612517565b6004818154811061080f575f80fd5b610d1160015f80516020612a6b833981519152612517565b81565b610d1c610c81565b15610d3a5760405163332e4c0760e11b815260040160405180910390fd5b610d4a8a8a8a8a8a8a8a8a610e8c565b505f610d5882840184612536565b9050805f01516001600160a01b031663679f057930836020015184604001518f8f6040518663ffffffff1660e01b8152600401610d99959493929190612595565b6020604051808303815f875af1158015610db5573d5f803e3d5ffd5b505050506040513d601f19601f82011682018060405250810190610dd99190612465565b505050505050505050505050565b610d1160017f3d58ae7810547e38261fea4758d581d120e8818c35472825fce002773f983a43612517565b80546040515f8152906001600160fe1b038116600160fe1b82168015610e735781601c850152845f5260205f20601c8501855180602088010190505b80821015610e6b5782548252600183019250602082019150610e4e565b505050610e7a565b81601f8501525b50508151820160200160405250919050565b6060333214610eae576040516309d1095b60e01b815260040160405180910390fd5b610eb6611125565b5f610ec3898b018b6123b6565b90505f610ed2888a018a6125cd565b90508051825114610ef9576040516001621398b960e31b0319815260040160405180910390fd5b610f038282611147565b610f4187878080601f0160208091040260200160405190810160405280939291908181526020018383808284375f9201919091525061120f92505050565b610f7f85858080601f0160208091040260200160405190810160405280939291908181526020018383808284375f920191909152506112a592505050565b610f87611334565b509998505050505050505050565b80515f5b81811015610fbb57610faa8161143a565b610fb38161146d565b600101610f99565b50610fc461159a565b610fcc6115bb565b6040517f4e7b26406bcc33a8d2611ef36c6bec73db957dc63f520880c9836d30c827973f905f90a15050565b6040805160208101909152606081526001828154811061101a5761101a6121cc565b905f5260205f20016040518060200160405290815f8201805461103c90612201565b80601f016020809104026020016040519081016040528092919081815260200182805461106890612201565b80156110b35780601f1061108a576101008083540402835291602001916110b3565b820191905f5260205f20905b81548152906001019060200180831161109657829003601f168201915b5050505050815250509050919050565b5f806110f060017f3d58ae7810547e38261fea4758d581d120e8818c35472825fce002773f983a43612517565b5492915050565b6110ff611aed565b61059e5f8381548110611114576111146121cc565b905f5260205f2090600302016116c2565b5f61113e60015f80516020612a6b833981519152612517565b90506001815d50565b6111515f80611b1b565b61115c60015f611b3c565b5f5b825181101561120a576111be83828151811061117c5761117c6121cc565b60209081029190910101515f80546001810182559080526003027f290decd9548b62a8d60345a988386fc84ba6bc95484008f6362f93160ef3e563019061174a565b60018282815181106111d2576111d26121cc565b60209081029190910181015182546001810184555f93845291909220825191019081906111ff90826126ed565b50505060010161115e565b505050565b5f8082806020019051810190611225919061280c565b91509150805182511461124e576040516001621398b960e31b0319815260040160405180910390fd5b81515f5b8181101561129e5761129684828151811061126f5761126f6121cc565b6020026020010151848381518110611289576112896121cc565b6020026020010151611817565b600101611252565b5050505050565b5f80828060200190518101906112bb9190612927565b9150915080518251146112e4576040516001621398b960e31b0319815260040160405180910390fd5b81515f5b8181101561129e5761132c848281518110611305576113056121cc565b602002602001015184838151811061131f5761131f6121cc565b60200260200101516118ce565b6001016112e8565b5f8054905b81811015611436575f6040518060400160405280611356846110f7565b60405160200161136691906129e3565b60408051808303601f1901815291905280516020918201208252908101849052600680546001810182555f9190915282517ff652222313e28459528d920b65115c16c04f3efc82aaedc97be59f3f377c0d3f600290920291820155908201517ff652222313e28459528d920b65115c16c04f3efc82aaedc97be59f3f377c0d409091015590507f93f7eac98c0ac1bb844d6ddc1b6e1d0a67800fa72f4ea9f928a58265e0527eb3611416836110f7565b836040516114259291906129f5565b60405180910390a150600101611339565b5050565b5f61146660017f3d58ae7810547e38261fea4758d581d120e8818c35472825fce002773f983a43612517565b9190915550565b5f8061147883610ba0565b9150915047825f015111156114a0576040516375483b5360e01b815260040160405180910390fd5b7f87f379e80770c445d2ebd0a3e88c817f277e2d087fac819e8b72ac370216efb28282856040516114d393929190612a07565b60405180910390a15f8083604001516001600160a01b03168460200151855f015186606001516040516115069190612a3c565b5f60405180830381858888f193505050503d805f8114611541576040519150601f19603f3d011682016040523d82523d5f602084013e611546565b606091505b50915091508161156957604051633204506f60e01b815260040160405180910390fd5b8080519060200120835f0151805190602001201461129e576040516366345c5d60e11b815260040160405180910390fd5b5f6115b360015f80516020612a6b833981519152612517565b90505f815d50565b6115c55f80611b1b565b6115d060015f611b3c565b6115db60065f611b57565b5f5b6002548110156116235761161b60035f60028481548110611600576116006121cc565b905f5260205f20015481526020019081526020015f20611980565b6001016115dd565b5061162f60025f611b75565b5f5b60045481101561168b5760055f60048381548110611651576116516121cc565b5f91825260208083209091015483528201929092526040018120805460ff19168155906116816001830182611b75565b5050600101611631565b5061169760045f611b75565b604051419081904780156108fc02915f818181858888f19350505050158015611436573d5f803e3d5ffd5b6116ca611aed565b81546001600160a01b03600160601b820416604083015263ffffffff8116906001600160401b03640100000000820416906380000000165f036117135760208301829052611727565b637fffffff82166020840152600184015483525b61173d6001600160401b038216600286016119ca565b6060840152509092915050565b6020810151637fffffff81111561177457604051631483be6160e21b815260040160405180910390fd5b81515f81900361179657835463ffffffff191663ffffffff83161784556117b7565b835463ffffffff19166380000000831763ffffffff16178455600184018190555b60608301516117ca906002860190611a1b565b84546040909401516001600160a01b0316600160601b026001600160601b036001600160401b0392909216640100000000029190911663ffffffff90941693909317929092179092555050565b5f82815260036020526040902054600160ff1b161561184957604051631543745f60e31b815260040160405180910390fd5b7f261f625ce7de8c6ef032e44c49cc0b32638ff9bad51af6de93f484e47fe2d75d828260405161187a929190612a52565b60405180910390a15f8281526003602052604090206118999082611a68565b50600280546001810182555f919091527f405787fa12a823e0f2b7631cc41b3ba8828b3321ca811111fa75cd3aa3bb5ace0155565b5f8281526005602052604090205460ff1661195b575f828152600560208181526040808420805460ff1916600190811782558251868152808501938490529588905293909252925161192593929091019190611b90565b50600480546001810182555f919091527f8a35acfbc15ff81a39ae7d344fd709f28e8600b4aa8c65c6b64bfe7fe36bd19b018290555b5f91825260056020908152604083206001908101805491820181558452922090910155565b80546001600160fe1b038116600160fe1b8216156119c3578060e01c835f5260205f20601c5b828110156119bf575f82556001909101906020016119a6565b5050505b50505f9055565b6040515f8082526001600160401b03841660048301528281526020908190208251909190830101602483015b81811015611a1057825481526001909201916020016119f6565b506040525092915050565b5f6001600160401b036004830151169050825f5260205f2082516004602001840181602086010191505b81811015611a5f5780518355600190920191602001611a45565b50505092915050565b8051600160ff1b90601f81118015611adb5763400000008210611a925763ece972c55f526004601cfd5b82600160fe1b17925082601c850151179250845f5260205f20601c85018360208701015b80821015611ad35781518355600183019250602082019150611ab6565b505050611ae5565b82601f8501511792505b505090915550565b60405180608001604052805f81526020015f81526020015f6001600160a01b03168152602001606081525090565b5080545f8255600302905f5260205f2090810190611b399190611bd9565b50565b5080545f8255905f5260205f2090810190611b399190611bfa565b5080545f8255600202905f5260205f2090810190611b399190611c16565b5080545f8255905f5260205f2090810190611b399190611c30565b828054828255905f5260205f20908101928215611bc9579160200282015b82811115611bc9578251825591602001919060010190611bae565b50611bd5929150611c30565b5090565b5b80821115611bd5575f808255600182018190556002820155600301611bda565b80821115611bd5575f611c0d8282611c44565b50600101611bfa565b5b80821115611bd5575f8082556001820155600201611c17565b5b80821115611bd5575f8155600101611c31565b508054611c5090612201565b5f825580601f10611c5f575050565b601f0160209004905f5260205f2090810190611b399190611c30565b805160208201516bffffffffffffffffffffffff19811691906014821015611cbd576001600160601b03196001600160601b03198360140360031b1b82161692505b5050919050565b5f60208284031215611cd4575f80fd5b5035919050565b5f8083601f840112611ceb575f80fd5b5081356001600160401b03811115611d01575f80fd5b602083019150836020828501011115611d18575f80fd5b9250929050565b5f805f805f805f806080898b031215611d36575f80fd5b88356001600160401b03811115611d4b575f80fd5b611d578b828c01611cdb565b90995097505060208901356001600160401b03811115611d75575f80fd5b611d818b828c01611cdb565b90975095505060408901356001600160401b03811115611d9f575f80fd5b611dab8b828c01611cdb565b90955093505060608901356001600160401b03811115611dc9575f80fd5b611dd58b828c01611cdb565b999c989b5096995094979396929594505050565b5f60208284031215611df9575f80fd5b81356001600160401b03811115611e0e575f80fd5b820160808185031215611e1f575f80fd5b9392505050565b602080825282518282018190525f918401906040840190835b81811015611e5d578351835260209384019390920191600101611e3f565b509095945050505050565b5f81518084528060208401602086015e5f602082860101526020601f19601f83011685010191505092915050565b602081525f611e1f6020830184611e68565b80356001600160a01b0381168114611ebe575f80fd5b919050565b5f805f805f805f60c0888a031215611ed9575f80fd5b611ee288611ea8565b9650611ef060208901611ea8565b955060408801359450611f0560608901611ea8565b93506080880135925060a08801356001600160401b03811115611f26575f80fd5b611f328a828b01611cdb565b989b979a50959850939692959293505050565b5f8060208385031215611f56575f80fd5b82356001600160401b03811115611f6b575f80fd5b611f7785828601611cdb565b90969095509350505050565b805182526020810151602083015260018060a01b0360408201511660408301525f606082015160806060850152611fbd6080850182611e68565b949350505050565b5f815160208452611fbd6020850182611e68565b604081525f611feb6040830185611f83565b8281036020840152611ffd8185611fc5565b95945050505050565b5f805f805f805f805f8060a08b8d03121561201f575f80fd5b8a356001600160401b03811115612034575f80fd5b6120408d828e01611cdb565b909b5099505060208b01356001600160401b0381111561205e575f80fd5b61206a8d828e01611cdb565b90995097505060408b01356001600160401b03811115612088575f80fd5b6120948d828e01611cdb565b90975095505060608b01356001600160401b038111156120b2575f80fd5b6120be8d828e01611cdb565b90955093505060808b01356001600160401b038111156120dc575f80fd5b6120e88d828e01611cdb565b915080935050809150509295989b9194979a5092959850565b81835281816020850137505f828201602090810191909152601f909101601f19169091010190565b80358252602080820135908301525f6001600160a01b0361214c60408401611ea8565b1660408401526060820135601e19833603018112612168575f80fd5b82016020810190356001600160401b03811115612183575f80fd5b803603821315612191575f80fd5b60806060860152611ffd608086018284612101565b602081525f611e1f6020830184612129565b634e487b7160e01b5f52604160045260245ffd5b634e487b7160e01b5f52603260045260245ffd5b604081525f6121f26040830185612129565b90508260208301529392505050565b600181811c9082168061221557607f821691505b60208210810361223357634e487b7160e01b5f52602260045260245ffd5b50919050565b604051602081016001600160401b038111828210171561225b5761225b6121b8565b60405290565b604051601f8201601f191681016001600160401b0381118282101715612289576122896121b8565b604052919050565b5f6001600160401b038211156122a9576122a96121b8565b5060051b60200190565b5f6001600160401b038211156122cb576122cb6121b8565b50601f01601f191660200190565b5f82601f8301126122e8575f80fd5b81356122fb6122f6826122b3565b612261565b81815284602083860101111561230f575f80fd5b816020850160208301375f918101602001919091529392505050565b5f6080828403121561233b575f80fd5b604051608081016001600160401b038111828210171561235d5761235d6121b8565b604090815283358252602080850135908301529091508190612380908401611ea8565b604082015260608301356001600160401b0381111561239d575f80fd5b6123a9858286016122d9565b6060830152505092915050565b5f602082840312156123c6575f80fd5b81356001600160401b038111156123db575f80fd5b8201601f810184136123eb575f80fd5b80356123f96122f682612291565b8082825260208201915060208360051b85010192508683111561241a575f80fd5b602084015b8381101561245a5780356001600160401b0381111561243c575f80fd5b61244b8960208389010161232b565b8452506020928301920161241f565b509695505050505050565b5f60208284031215612475575f80fd5b81518015158114611e1f575f80fd5b5f60208284031215612494575f80fd5b81356001600160401b038111156124a9575f80fd5b8201604081850312156124ba575f80fd5b604080519081016001600160401b03811182821017156124dc576124dc6121b8565b60405281356001600160401b038111156124f4575f80fd5b6125008682850161232b565b825250602091820135918101919091529392505050565b8181038181111561059e57634e487b7160e01b5f52601160045260245ffd5b5f6060828403128015612547575f80fd5b50604051606081016001600160401b038111828210171561256a5761256a6121b8565b60405261257683611ea8565b8152602083810135908201526040928301359281019290925250919050565b60018060a01b0386168152846020820152836040820152608060608201525f6125c2608083018486612101565b979650505050505050565b5f602082840312156125dd575f80fd5b81356001600160401b038111156125f2575f80fd5b8201601f81018413612602575f80fd5b80356126106122f682612291565b8082825260208201915060208360051b850101925086831115612631575f80fd5b602084015b8381101561245a5780356001600160401b03811115612653575f80fd5b85016020818a03601f19011215612668575f80fd5b612670612239565b60208201356001600160401b03811115612688575f80fd5b6126978b6020838601016122d9565b82525084525060209283019201612636565b601f82111561120a57805f5260205f20601f840160051c810160208510156126ce5750805b601f840160051c820191505b8181101561129e575f81556001016126da565b81516001600160401b03811115612706576127066121b8565b61271a816127148454612201565b846126a9565b6020601f82116001811461274c575f83156127355750848201515b5f19600385901b1c1916600184901b17845561129e565b5f84815260208120601f198516915b8281101561277b578785015182556020948501946001909201910161275b565b508482101561279857868401515f19600387901b60f8161c191681555b50505050600190811b01905550565b5f82601f8301126127b6575f80fd5b81516127c46122f682612291565b8082825260208201915060208360051b8601019250858311156127e5575f80fd5b602085015b838110156128025780518352602092830192016127ea565b5095945050505050565b5f806040838503121561281d575f80fd5b82516001600160401b03811115612832575f80fd5b61283e858286016127a7565b92505060208301516001600160401b03811115612859575f80fd5b8301601f81018513612869575f80fd5b80516128776122f682612291565b8082825260208201915060208360051b850101925087831115612898575f80fd5b602084015b838110156129185780516001600160401b038111156128ba575f80fd5b8501603f81018a136128ca575f80fd5b60208101516128db6122f6826122b3565b8181526040838301018c10156128ef575f80fd5b8160408401602083015e5f6020838301015280865250505060208301925060208101905061289d565b50809450505050509250929050565b5f8060408385031215612938575f80fd5b82516001600160401b0381111561294d575f80fd5b612959858286016127a7565b92505060208301516001600160401b03811115612974575f80fd5b8301601f81018513612984575f80fd5b80516129926122f682612291565b8082825260208201915060208360051b8501019250878311156129b3575f80fd5b6020840193505b828410156129d55783518252602093840193909101906129ba565b809450505050509250929050565b602081525f611e1f6020830184611f83565b604081525f6121f26040830185611f83565b606081525f612a196060830186611f83565b8281036020840152612a2b8186611fc5565b915050826040830152949350505050565b5f82518060208501845e5f920191825250919050565b828152604060208201525f611fbd6040830184611e6856fe428da23f118e803bf8782d84723b15859880d3af9bc29a7d7c1b6990872a3510a2646970667358221220408c8cedfe85a2cf7b8d3708ec65656f6fafcb013c32dd710c4348544f5b9c1164736f6c634300081a0033","linkReferences":{}},"methodIdentifiers":{"EXECUTING_CALL_INDEX_SLOT()":"ff557675","PORTAL_SLOT()":"e77b910a","associatedDataKeyList(uint256)":"3e50f00f","associatedDataStore(bytes32)":"21a0e164","callList(uint256)":"5d6ad200","callStore(uint256)":"872ace16","executeAndVerify(bytes,bytes,bytes,bytes)":"224313ac","executeAndVerify(bytes,bytes,bytes,bytes,bytes)":"ee631f81","fetchFromAssociatedDataStore(bytes32)":"39ca88ae","getCallIndex((uint256,uint256,address,bytes))":"35ce660a","getCallListAt(uint256)":"426c6f60","getCompleteCallIndexList((uint256,uint256,address,bytes))":"358aecdf","getCurrentlyExecuting()":"a2f8e448","getPair(uint256)":"bdf391cc","getReturnValue(bytes)":"9986c181","getReturnValue(uint256)":"69e91994","getReverseIndex(uint256)":"c63ac0c2","hintdicesStore(bytes32)":"b7b3d926","hintdicesStoreKeyList(uint256)":"c9affd7c","isPortalOpen()":"bf689281","onFlashLoan(address,address,uint256,address,uint256,bytes)":"939439b1","returnStore(uint256)":"84379764"},"storageLayout":{"storage":[{"astId":54901,"contract":"src/timetravel/CallBreaker.sol:CallBreaker","label":"callStore","offset":0,"slot":"0","type":"t_array(t_struct(CallObjectStorage)51700_storage)dyn_storage"},{"astId":54905,"contract":"src/timetravel/CallBreaker.sol:CallBreaker","label":"returnStore","offset":0,"slot":"1","type":"t_array(t_struct(ReturnObject)51711_storage)dyn_storage"},{"astId":54908,"contract":"src/timetravel/CallBreaker.sol:CallBreaker","label":"associatedDataKeyList","offset":0,"slot":"2","type":"t_array(t_bytes32)dyn_storage"},{"astId":54913,"contract":"src/timetravel/CallBreaker.sol:CallBreaker","label":"associatedDataStore","offset":0,"slot":"3","type":"t_mapping(t_bytes32,t_struct(AssociatedDataStorage)51527_storage)"},{"astId":54916,"contract":"src/timetravel/CallBreaker.sol:CallBreaker","label":"hintdicesStoreKeyList","offset":0,"slot":"4","type":"t_array(t_bytes32)dyn_storage"},{"astId":54921,"contract":"src/timetravel/CallBreaker.sol:CallBreaker","label":"hintdicesStore","offset":0,"slot":"5","type":"t_mapping(t_bytes32,t_struct(Hintdex)51655_storage)"},{"astId":54925,"contract":"src/timetravel/CallBreaker.sol:CallBreaker","label":"callList","offset":0,"slot":"6","type":"t_array(t_struct(Call)51661_storage)dyn_storage"}],"types":{"t_address":{"encoding":"inplace","label":"address","numberOfBytes":"20"},"t_array(t_bytes32)dyn_storage":{"encoding":"dynamic_array","label":"bytes32[]","numberOfBytes":"32","base":"t_bytes32"},"t_array(t_struct(Call)51661_storage)dyn_storage":{"encoding":"dynamic_array","label":"struct Call[]","numberOfBytes":"32","base":"t_struct(Call)51661_storage"},"t_array(t_struct(CallObjectStorage)51700_storage)dyn_storage":{"encoding":"dynamic_array","label":"struct CallObjectStorage[]","numberOfBytes":"32","base":"t_struct(CallObjectStorage)51700_storage"},"t_array(t_struct(ReturnObject)51711_storage)dyn_storage":{"encoding":"dynamic_array","label":"struct ReturnObject[]","numberOfBytes":"32","base":"t_struct(ReturnObject)51711_storage"},"t_array(t_uint256)dyn_storage":{"encoding":"dynamic_array","label":"uint256[]","numberOfBytes":"32","base":"t_uint256"},"t_bool":{"encoding":"inplace","label":"bool","numberOfBytes":"1"},"t_bytes32":{"encoding":"inplace","label":"bytes32","numberOfBytes":"32"},"t_bytes_storage":{"encoding":"bytes","label":"bytes","numberOfBytes":"32"},"t_mapping(t_bytes32,t_struct(AssociatedDataStorage)51527_storage)":{"encoding":"mapping","key":"t_bytes32","label":"mapping(bytes32 => struct AssociatedDataStorage)","numberOfBytes":"32","value":"t_struct(AssociatedDataStorage)51527_storage"},"t_mapping(t_bytes32,t_struct(Hintdex)51655_storage)":{"encoding":"mapping","key":"t_bytes32","label":"mapping(bytes32 => struct Hintdex)","numberOfBytes":"32","value":"t_struct(Hintdex)51655_storage"},"t_struct(AssociatedDataStorage)51527_storage":{"encoding":"inplace","label":"struct AssociatedDataStorage","numberOfBytes":"32","members":[{"astId":51526,"contract":"src/timetravel/CallBreaker.sol:CallBreaker","label":"_head","offset":0,"slot":"0","type":"t_uint256"}]},"t_struct(Call)51661_storage":{"encoding":"inplace","label":"struct Call","numberOfBytes":"64","members":[{"astId":51658,"contract":"src/timetravel/CallBreaker.sol:CallBreaker","label":"callId","offset":0,"slot":"0","type":"t_bytes32"},{"astId":51660,"contract":"src/timetravel/CallBreaker.sol:CallBreaker","label":"index","offset":0,"slot":"1","type":"t_uint256"}]},"t_struct(CallObjectStorage)51700_storage":{"encoding":"inplace","label":"struct CallObjectStorage","numberOfBytes":"96","members":[{"astId":51689,"contract":"src/timetravel/CallBreaker.sol:CallBreaker","label":"flagAndGas","offset":0,"slot":"0","type":"t_uint32"},{"astId":51692,"contract":"src/timetravel/CallBreaker.sol:CallBreaker","label":"cdHead","offset":4,"slot":"0","type":"t_userDefinedValueType(compactCdHead)53746"},{"astId":51694,"contract":"src/timetravel/CallBreaker.sol:CallBreaker","label":"addr","offset":12,"slot":"0","type":"t_address"},{"astId":51696,"contract":"src/timetravel/CallBreaker.sol:CallBreaker","label":"amount","offset":0,"slot":"1","type":"t_uint256"},{"astId":51699,"contract":"src/timetravel/CallBreaker.sol:CallBreaker","label":"cdTail","offset":0,"slot":"2","type":"t_struct(compactCdTailSlot)53750_storage"}]},"t_struct(Hintdex)51655_storage":{"encoding":"inplace","label":"struct Hintdex","numberOfBytes":"64","members":[{"astId":51651,"contract":"src/timetravel/CallBreaker.sol:CallBreaker","label":"set","offset":0,"slot":"0","type":"t_bool"},{"astId":51654,"contract":"src/timetravel/CallBreaker.sol:CallBreaker","label":"indices","offset":0,"slot":"1","type":"t_array(t_uint256)dyn_storage"}]},"t_struct(ReturnObject)51711_storage":{"encoding":"inplace","label":"struct ReturnObject","numberOfBytes":"32","members":[{"astId":51710,"contract":"src/timetravel/CallBreaker.sol:CallBreaker","label":"returnvalue","offset":0,"slot":"0","type":"t_bytes_storage"}]},"t_struct(compactCdTailSlot)53750_storage":{"encoding":"inplace","label":"struct compactCdTailSlot","numberOfBytes":"32","members":[{"astId":53749,"contract":"src/timetravel/CallBreaker.sol:CallBreaker","label":"___mass","offset":0,"slot":"0","type":"t_uint256"}]},"t_uint256":{"encoding":"inplace","label":"uint256","numberOfBytes":"32"},"t_uint32":{"encoding":"inplace","label":"uint32","numberOfBytes":"4"},"t_userDefinedValueType(compactCdHead)53746":{"encoding":"inplace","label":"compactCdHead","numberOfBytes":"8"}}},"id":49}