{"abi":[{"type":"constructor","inputs":[],"stateMutability":"nonpayable"},{"type":"receive","stateMutability":"payable"},{"type":"function","name":"EXECUTING_CALL_INDEX_SLOT","inputs":[],"outputs":[{"name":"","type":"bytes32","internalType":"bytes32"}],"stateMutability":"view"},{"type":"function","name":"PORTAL_SLOT","inputs":[],"outputs":[{"name":"","type":"bytes32","internalType":"bytes32"}],"stateMutability":"view"},{"type":"function","name":"associatedDataKeyList","inputs":[{"name":"","type":"uint256","internalType":"uint256"}],"outputs":[{"name":"","type":"bytes32","internalType":"bytes32"}],"stateMutability":"view"},{"type":"function","name":"associatedDataStore","inputs":[{"name":"","type":"bytes32","internalType":"bytes32"}],"outputs":[{"name":"_head","type":"uint256","internalType":"uint256"}],"stateMutability":"view"},{"type":"function","name":"callList","inputs":[{"name":"","type":"uint256","internalType":"uint256"}],"outputs":[{"name":"callId","type":"bytes32","internalType":"bytes32"},{"name":"index","type":"uint256","internalType":"uint256"}],"stateMutability":"view"},{"type":"function","name":"callStore","inputs":[{"name":"","type":"uint256","internalType":"uint256"}],"outputs":[{"name":"flagAndGas","type":"uint32","internalType":"uint32"},{"name":"cdHead","type":"uint64","internalType":"compactCdHead"},{"name":"addr","type":"address","internalType":"address"},{"name":"amount","type":"uint256","internalType":"uint256"},{"name":"cdTail","type":"tuple","internalType":"struct compactCdTailSlot","components":[{"name":"___mass","type":"uint256","internalType":"uint256"}]}],"stateMutability":"view"},{"type":"function","name":"fetchFromAssociatedDataStore","inputs":[{"name":"key","type":"bytes32","internalType":"bytes32"}],"outputs":[{"name":"","type":"bytes","internalType":"bytes"}],"stateMutability":"view"},{"type":"function","name":"getCallIndex","inputs":[{"name":"callObj","type":"tuple","internalType":"struct CallObject","components":[{"name":"amount","type":"uint256","internalType":"uint256"},{"name":"gas","type":"uint256","internalType":"uint256"},{"name":"addr","type":"address","internalType":"address"},{"name":"callvalue","type":"bytes","internalType":"bytes"}]}],"outputs":[{"name":"","type":"uint256[]","internalType":"uint256[]"}],"stateMutability":"view"},{"type":"function","name":"getCallListAt","inputs":[{"name":"i","type":"uint256","internalType":"uint256"}],"outputs":[{"name":"","type":"tuple","internalType":"struct Call","components":[{"name":"callId","type":"bytes32","internalType":"bytes32"},{"name":"index","type":"uint256","internalType":"uint256"}]}],"stateMutability":"view"},{"type":"function","name":"getCompleteCallIndexList","inputs":[{"name":"callObj","type":"tuple","internalType":"struct CallObject","components":[{"name":"amount","type":"uint256","internalType":"uint256"},{"name":"gas","type":"uint256","internalType":"uint256"},{"name":"addr","type":"address","internalType":"address"},{"name":"callvalue","type":"bytes","internalType":"bytes"}]}],"outputs":[{"name":"","type":"uint256[]","internalType":"uint256[]"}],"stateMutability":"view"},{"type":"function","name":"getCurrentlyExecuting","inputs":[],"outputs":[{"name":"","type":"uint256","internalType":"uint256"}],"stateMutability":"view"},{"type":"function","name":"getPair","inputs":[{"name":"i","type":"uint256","internalType":"uint256"}],"outputs":[{"name":"","type":"tuple","internalType":"struct CallObject","components":[{"name":"amount","type":"uint256","internalType":"uint256"},{"name":"gas","type":"uint256","internalType":"uint256"},{"name":"addr","type":"address","internalType":"address"},{"name":"callvalue","type":"bytes","internalType":"bytes"}]},{"name":"","type":"tuple","internalType":"struct ReturnObject","components":[{"name":"returnvalue","type":"bytes","internalType":"bytes"}]}],"stateMutability":"view"},{"type":"function","name":"getReturnValue","inputs":[{"name":"index","type":"uint256","internalType":"uint256"}],"outputs":[{"name":"","type":"bytes","internalType":"bytes"}],"stateMutability":"view"},{"type":"function","name":"getReturnValue","inputs":[{"name":"input","type":"bytes","internalType":"bytes"}],"outputs":[{"name":"","type":"bytes","internalType":"bytes"}],"stateMutability":"view"},{"type":"function","name":"getReverseIndex","inputs":[{"name":"index","type":"uint256","internalType":"uint256"}],"outputs":[{"name":"","type":"uint256","internalType":"uint256"}],"stateMutability":"view"},{"type":"function","name":"hintdicesStore","inputs":[{"name":"","type":"bytes32","internalType":"bytes32"}],"outputs":[{"name":"set","type":"bool","internalType":"bool"}],"stateMutability":"view"},{"type":"function","name":"hintdicesStoreKeyList","inputs":[{"name":"","type":"uint256","internalType":"uint256"}],"outputs":[{"name":"","type":"bytes32","internalType":"bytes32"}],"stateMutability":"view"},{"type":"function","name":"isPortalOpen","inputs":[],"outputs":[{"name":"status","type":"bool","internalType":"bool"}],"stateMutability":"view"},{"type":"function","name":"returnStore","inputs":[{"name":"","type":"uint256","internalType":"uint256"}],"outputs":[{"name":"returnvalue","type":"bytes","internalType":"bytes"}],"stateMutability":"view"},{"type":"function","name":"verify","inputs":[{"name":"callsBytes","type":"bytes","internalType":"bytes"},{"name":"returnsBytes","type":"bytes","internalType":"bytes"},{"name":"associatedData","type":"bytes","internalType":"bytes"},{"name":"hintdices","type":"bytes","internalType":"bytes"}],"outputs":[],"stateMutability":"payable"},{"type":"event","name":"CallPopulated","inputs":[{"name":"callObj","type":"tuple","indexed":false,"internalType":"struct CallObject","components":[{"name":"amount","type":"uint256","internalType":"uint256"},{"name":"gas","type":"uint256","internalType":"uint256"},{"name":"addr","type":"address","internalType":"address"},{"name":"callvalue","type":"bytes","internalType":"bytes"}]},{"name":"index","type":"uint256","indexed":false,"internalType":"uint256"}],"anonymous":false},{"type":"event","name":"EnterPortal","inputs":[{"name":"callObj","type":"tuple","indexed":false,"internalType":"struct CallObject","components":[{"name":"amount","type":"uint256","internalType":"uint256"},{"name":"gas","type":"uint256","internalType":"uint256"},{"name":"addr","type":"address","internalType":"address"},{"name":"callvalue","type":"bytes","internalType":"bytes"}]},{"name":"returnvalue","type":"tuple","indexed":false,"internalType":"struct ReturnObject","components":[{"name":"returnvalue","type":"bytes","internalType":"bytes"}]},{"name":"index","type":"uint256","indexed":false,"internalType":"uint256"}],"anonymous":false},{"type":"event","name":"InsertIntoAssociatedDataStore","inputs":[{"name":"key","type":"bytes32","indexed":false,"internalType":"bytes32"},{"name":"value","type":"bytes","indexed":false,"internalType":"bytes"}],"anonymous":false},{"type":"event","name":"Tip","inputs":[{"name":"from","type":"address","indexed":true,"internalType":"address"},{"name":"to","type":"address","indexed":true,"internalType":"address"},{"name":"amount","type":"uint256","indexed":false,"internalType":"uint256"}],"anonymous":false},{"type":"event","name":"VerifyStxn","inputs":[],"anonymous":false},{"type":"error","name":"CallFailed","inputs":[]},{"type":"error","name":"CallPositionFailed","inputs":[{"name":"","type":"tuple","internalType":"struct CallObject","components":[{"name":"amount","type":"uint256","internalType":"uint256"},{"name":"gas","type":"uint256","internalType":"uint256"},{"name":"addr","type":"address","internalType":"address"},{"name":"callvalue","type":"bytes","internalType":"bytes"}]},{"name":"","type":"uint256","internalType":"uint256"}]},{"type":"error","name":"CallVerificationFailed","inputs":[]},{"type":"error","name":"EmptyCalldata","inputs":[]},{"type":"error","name":"IndexMismatch","inputs":[{"name":"","type":"uint256","internalType":"uint256"},{"name":"","type":"uint256","internalType":"uint256"}]},{"type":"error","name":"InvalidGas","inputs":[]},{"type":"error","name":"KeyAlreadyExists","inputs":[]},{"type":"error","name":"LengthMismatch","inputs":[]},{"type":"error","name":"MustBeEOA","inputs":[]},{"type":"error","name":"NonexistentKey","inputs":[]},{"type":"error","name":"OutOfEther","inputs":[]},{"type":"error","name":"OutOfReturnValues","inputs":[]},{"type":"error","name":"PortalClosed","inputs":[]},{"type":"error","name":"PortalOpen","inputs":[]},{"type":"error","name":"TimeImbalance","inputs":[]}],"bytecode":{"object":"0x6080604052348015600e575f80fd5b5060156019565b606f565b5f604360017f428da23f118e803bf8782d84723b15859880d3af9bc29a7d7c1b6990872a3510604b565b90505f815d50565b81810381811115606957634e487b7160e01b5f52601160045260245ffd5b92915050565b6125c88061007c5f395ff3fe60806040526004361061011e575f3560e01c8063872ace161161009d578063bf68928111610062578063bf68928114610492578063c63ac0c2146104a6578063c9affd7c146104c5578063e77b910a146104e4578063ff557675146104f8575f80fd5b8063872ace161461038f5780639986c181146103f4578063a2f8e44814610413578063b7b3d92614610427578063bdf391cc14610465575f80fd5b80633e50f00f116100e35780633e50f00f146102c4578063426c6f60146102e35780635d6ad2001461031d57806369e91994146103515780638437976414610370575f80fd5b8063067874cf146101fc57806321a0e1641461020f578063358aecdf1461024d57806335ce660a1461027957806339ca88ae14610298575f80fd5b366101f8576040516f3a34b82cb7bab92130b93a32b73232b960811b60208201525f906030016040516020818303038152906040528051906020012090505f6101668261050c565b90505f610172826119b6565b60601c9050806001600160a01b0316336001600160a01b03167fcbefbf6a902aa93a9aafdd30aefd16e61f6c015bbf5fcaccfdf1d29d0c84e7d0346040516101bc91815260200190565b60405180910390a36040516001600160a01b038216903480156108fc02915f818181858888f193505050501580156101f6573d5f803e3d5ffd5b005b5f80fd5b6101f661020a366004611a43565b61055c565b34801561021a575f80fd5b5061023a610229366004611b0d565b60036020525f908152604090205481565b6040519081526020015b60405180910390f35b348015610258575f80fd5b5061026c610267366004611b24565b6106e7565b6040516102449190611b61565b348015610284575f80fd5b5061026c610293366004611b24565b6107c1565b3480156102a3575f80fd5b506102b76102b2366004611b0d565b61050c565b6040516102449190611bd1565b3480156102cf575f80fd5b5061023a6102de366004611b0d565b6108f6565b3480156102ee575f80fd5b506103026102fd366004611b0d565b610915565b60408051825181526020928301519281019290925201610244565b348015610328575f80fd5b5061033c610337366004611b0d565b61096c565b60408051928352602083019190915201610244565b34801561035c575f80fd5b506102b761036b366004611b0d565b610998565b34801561037b575f80fd5b506102b761038a366004611b0d565b6109ac565b34801561039a575f80fd5b506103ae6103a9366004611b0d565b610a56565b6040805163ffffffff90961686526001600160401b0390941660208601526001600160a01b0390921692840192909252606083019190915251608082015260a001610244565b3480156103ff575f80fd5b506102b761040e366004611be3565b610abe565b34801561041e575f80fd5b5061023a610ae7565b348015610432575f80fd5b50610455610441366004611b0d565b60056020525f908152604090205460ff1681565b6040519015158152602001610244565b348015610470575f80fd5b5061048461047f366004611b0d565b610b1a565b604051610244929190611c77565b34801561049d575f80fd5b50610455610bfb565b3480156104b1575f80fd5b5061023a6104c0366004611b0d565b610c1c565b3480156104d0575f80fd5b5061023a6104df366004611b0d565b610c64565b3480156104ef575f80fd5b5061023a610c73565b348015610503575f80fd5b5061023a610c8e565b5f81815260036020526040902054606090600160ff1b166105405760405163f7c16a3760e01b815260040160405180910390fd5b5f82815260036020526040902061055690610cb9565b92915050565b610564610bfb565b156105825760405163332e4c0760e11b815260040160405180910390fd5b61058a610d33565b3332146105aa576040516309d1095b60e01b815260040160405180910390fd5b5f6105b7888a018a611e50565b90505f6105c687890189611eff565b905080518251146105ed576040516001621398b960e31b0319815260040160405180910390fd5b6105f78282610d55565b61063586868080601f0160208091040260200160405190810160405280939291908181526020018383808284375f92019190915250610e1d92505050565b61067384848080601f0160208091040260200160405190810160405280939291908181526020018383808284375f92019190915250610eb392505050565b61067b610f42565b81515f5b818110156106a15761069081611048565b6106998161107b565b60010161067f565b506106aa6111a8565b6106b26111c9565b6040517f4e7b26406bcc33a8d2611ef36c6bec73db957dc63f520880c9836d30c827973f905f90a15050505050505050505050565b60605f826040516020016106fb9190612080565b6040516020818303038152906040528051906020012090505f6006805490506001600160401b0381111561073157610731611ca4565b60405190808252806020026020018201604052801561075a578160200160208202803683370190505b5090505f5b6006548110156107b957826006828154811061077d5761077d612092565b905f5260205f2090600202015f0154036107b157808282815181106107a4576107a4612092565b6020026020010181815250505b60010161075f565b509392505050565b60605f826040516020016107d59190612080565b60408051601f1981840301815291815281516020928301205f8181526005909352908220909250600101905b81548110156108a2575f82828154811061081d5761081d612092565b905f5260205f20015490505f6006828154811061083c5761083c612092565b905f5260205f2090600202016040518060400160405290815f8201548152602001600182015481525050905084815f01511461089857868260405163069e4c0160e51b815260040161088f9291906120a6565b60405180910390fd5b5050600101610801565b508054604080516020808402820181019092528281529183918301828280156108e857602002820191905f5260205f20905b8154815260200190600101908083116108d4575b505050505092505050919050565b60028181548110610905575f80fd5b5f91825260209091200154905081565b604080518082019091525f80825260208201526006828154811061093b5761093b612092565b905f5260205f2090600202016040518060400160405290815f82015481526020016001820154815250509050919050565b6006818154811061097b575f80fd5b5f9182526020909120600290910201805460019091015490915082565b60605f6109a4836112d0565b519392505050565b600181815481106109bb575f80fd5b5f918252602090912001805490915081906109d5906120c7565b80601f0160208091040260200160405190810160405280929190818152602001828054610a01906120c7565b8015610a4c5780601f10610a2357610100808354040283529160200191610a4c565b820191905f5260205f20905b815481529060010190602001808311610a2f57829003601f168201915b5050505050905081565b5f8181548110610a64575f80fd5b5f9182526020918290206003919091020180546001820154604080519485019052600290920154835263ffffffff8116935064010000000081046001600160401b031692600160601b9091046001600160a01b0316919085565b60605f610acd838501856120ff565b90505f610add82602001516112d0565b5195945050505050565b5f610af0610bfb565b610b0d576040516359f0d70960e01b815260040160405180910390fd5b610b1561139b565b905090565b610b22611828565b604080516020810190915260608152610b3a836113cf565b60018481548110610b4d57610b4d612092565b905f5260205f2001806040518060200160405290815f82018054610b70906120c7565b80601f0160208091040260200160405190810160405280929190818152602001828054610b9c906120c7565b8015610be75780601f10610bbe57610100808354040283529160200191610be7565b820191905f5260205f20905b815481529060010190602001808311610bca57829003601f168201915b505050505081525050905091509150915091565b5f80610c1560015f80516020612573833981519152612192565b5c92915050565b5f80548210610c4b575f54604051634dd1399960e01b815261088f918491600401918252602082015260400190565b60018054610c5a908490612192565b6105569190612192565b60048181548110610905575f80fd5b610c8b60015f80516020612573833981519152612192565b81565b610c8b60017f3d58ae7810547e38261fea4758d581d120e8818c35472825fce002773f983a43612192565b80546040515f8152906001600160fe1b038116600160fe1b82168015610d1a5781601c850152845f5260205f20601c8501855180602088010190505b80821015610d125782548252600183019250602082019150610cf5565b505050610d21565b81601f8501525b50508151820160200160405250919050565b5f610d4c60015f80516020612573833981519152612192565b90506001815d50565b610d5f5f80611856565b610d6a60015f611877565b5f5b8251811015610e1857610dcc838281518110610d8a57610d8a612092565b60209081029190910101515f80546001810182559080526003027f290decd9548b62a8d60345a988386fc84ba6bc95484008f6362f93160ef3e56301906113fd565b6001828281518110610de057610de0612092565b60209081029190910181015182546001810184555f9384529190922082519101908190610e0d90826121f5565b505050600101610d6c565b505050565b5f8082806020019051810190610e339190612314565b915091508051825114610e5c576040516001621398b960e31b0319815260040160405180910390fd5b81515f5b81811015610eac57610ea4848281518110610e7d57610e7d612092565b6020026020010151848381518110610e9757610e97612092565b60200260200101516114ca565b600101610e60565b5050505050565b5f8082806020019051810190610ec9919061242f565b915091508051825114610ef2576040516001621398b960e31b0319815260040160405180910390fd5b81515f5b81811015610eac57610f3a848281518110610f1357610f13612092565b6020026020010151848381518110610f2d57610f2d612092565b6020026020010151611581565b600101610ef6565b5f8054905b81811015611044575f6040518060400160405280610f64846113cf565b604051602001610f7491906124eb565b60408051808303601f1901815291905280516020918201208252908101849052600680546001810182555f9190915282517ff652222313e28459528d920b65115c16c04f3efc82aaedc97be59f3f377c0d3f600290920291820155908201517ff652222313e28459528d920b65115c16c04f3efc82aaedc97be59f3f377c0d409091015590507f93f7eac98c0ac1bb844d6ddc1b6e1d0a67800fa72f4ea9f928a58265e0527eb3611024836113cf565b836040516110339291906124fd565b60405180910390a150600101610f47565b5050565b5f61107460017f3d58ae7810547e38261fea4758d581d120e8818c35472825fce002773f983a43612192565b9190915550565b5f8061108683610b1a565b9150915047825f015111156110ae576040516375483b5360e01b815260040160405180910390fd5b7f87f379e80770c445d2ebd0a3e88c817f277e2d087fac819e8b72ac370216efb28282856040516110e19392919061250f565b60405180910390a15f8083604001516001600160a01b03168460200151855f015186606001516040516111149190612544565b5f60405180830381858888f193505050503d805f811461114f576040519150601f19603f3d011682016040523d82523d5f602084013e611154565b606091505b50915091508161117757604051633204506f60e01b815260040160405180910390fd5b8080519060200120835f01518051906020012014610eac576040516366345c5d60e11b815260040160405180910390fd5b5f6111c160015f80516020612573833981519152612192565b90505f815d50565b6111d35f80611856565b6111de60015f611877565b6111e960065f611892565b5f5b6002548110156112315761122960035f6002848154811061120e5761120e612092565b905f5260205f20015481526020019081526020015f20611633565b6001016111eb565b5061123d60025f6118b0565b5f5b6004548110156112995760055f6004838154811061125f5761125f612092565b5f91825260208083209091015483528201929092526040018120805460ff191681559061128f60018301826118b0565b505060010161123f565b506112a560045f6118b0565b604051419081904780156108fc02915f818181858888f19350505050158015611044573d5f803e3d5ffd5b604080516020810190915260608152600182815481106112f2576112f2612092565b905f5260205f20016040518060200160405290815f82018054611314906120c7565b80601f0160208091040260200160405190810160405280929190818152602001828054611340906120c7565b801561138b5780601f106113625761010080835404028352916020019161138b565b820191905f5260205f20905b81548152906001019060200180831161136e57829003601f168201915b5050505050815250509050919050565b5f806113c860017f3d58ae7810547e38261fea4758d581d120e8818c35472825fce002773f983a43612192565b5492915050565b6113d7611828565b6105565f83815481106113ec576113ec612092565b905f5260205f20906003020161167d565b6020810151637fffffff81111561142757604051631483be6160e21b815260040160405180910390fd5b81515f81900361144957835463ffffffff191663ffffffff831617845561146a565b835463ffffffff19166380000000831763ffffffff16178455600184018190555b606083015161147d906002860190611705565b84546040909401516001600160a01b0316600160601b026001600160601b036001600160401b0392909216640100000000029190911663ffffffff90941693909317929092179092555050565b5f82815260036020526040902054600160ff1b16156114fc57604051631543745f60e31b815260040160405180910390fd5b7f261f625ce7de8c6ef032e44c49cc0b32638ff9bad51af6de93f484e47fe2d75d828260405161152d92919061255a565b60405180910390a15f82815260036020526040902061154c9082611752565b50600280546001810182555f919091527f405787fa12a823e0f2b7631cc41b3ba8828b3321ca811111fa75cd3aa3bb5ace0155565b5f8281526005602052604090205460ff1661160e575f828152600560208181526040808420805460ff191660019081178255825186815280850193849052958890529390925292516115d8939290910191906118cb565b50600480546001810182555f919091527f8a35acfbc15ff81a39ae7d344fd709f28e8600b4aa8c65c6b64bfe7fe36bd19b018290555b5f91825260056020908152604083206001908101805491820181558452922090910155565b80546001600160fe1b038116600160fe1b821615611676578060e01c835f5260205f20601c5b82811015611672575f8255600190910190602001611659565b5050505b50505f9055565b611685611828565b81546001600160a01b03600160601b820416604083015263ffffffff8116906001600160401b03640100000000820416906380000000165f036116ce57602083018290526116e2565b637fffffff82166020840152600184015483525b6116f86001600160401b038216600286016117d7565b6060840152509092915050565b5f6001600160401b036004830151169050825f5260205f2082516004602001840181602086010191505b81811015611749578051835560019092019160200161172f565b50505092915050565b8051600160ff1b90601f811180156117c5576340000000821061177c5763ece972c55f526004601cfd5b82600160fe1b17925082601c850151179250845f5260205f20601c85018360208701015b808210156117bd57815183556001830192506020820191506117a0565b5050506117cf565b82601f8501511792505b505090915550565b6040515f8082526001600160401b03841660048301528281526020908190208251909190830101602483015b8181101561181d5782548152600190920191602001611803565b506040525092915050565b60405180608001604052805f81526020015f81526020015f6001600160a01b03168152602001606081525090565b5080545f8255600302905f5260205f20908101906118749190611914565b50565b5080545f8255905f5260205f20908101906118749190611935565b5080545f8255600202905f5260205f20908101906118749190611951565b5080545f8255905f5260205f2090810190611874919061196b565b828054828255905f5260205f20908101928215611904579160200282015b828111156119045782518255916020019190600101906118e9565b5061191092915061196b565b5090565b5b80821115611910575f808255600182018190556002820155600301611915565b80821115611910575f611948828261197f565b50600101611935565b5b80821115611910575f8082556001820155600201611952565b5b80821115611910575f815560010161196c565b50805461198b906120c7565b5f825580601f1061199a575050565b601f0160209004905f5260205f2090810190611874919061196b565b805160208201516bffffffffffffffffffffffff198116919060148210156119f8576001600160601b03196001600160601b03198360140360031b1b82161692505b5050919050565b5f8083601f840112611a0f575f80fd5b5081356001600160401b03811115611a25575f80fd5b602083019150836020828501011115611a3c575f80fd5b9250929050565b5f805f805f805f806080898b031215611a5a575f80fd5b88356001600160401b03811115611a6f575f80fd5b611a7b8b828c016119ff565b90995097505060208901356001600160401b03811115611a99575f80fd5b611aa58b828c016119ff565b90975095505060408901356001600160401b03811115611ac3575f80fd5b611acf8b828c016119ff565b90955093505060608901356001600160401b03811115611aed575f80fd5b611af98b828c016119ff565b999c989b5096995094979396929594505050565b5f60208284031215611b1d575f80fd5b5035919050565b5f60208284031215611b34575f80fd5b81356001600160401b03811115611b49575f80fd5b820160808185031215611b5a575f80fd5b9392505050565b602080825282518282018190525f918401906040840190835b81811015611b98578351835260209384019390920191600101611b7a565b509095945050505050565b5f81518084528060208401602086015e5f602082860101526020601f19601f83011685010191505092915050565b602081525f611b5a6020830184611ba3565b5f8060208385031215611bf4575f80fd5b82356001600160401b03811115611c09575f80fd5b611c15858286016119ff565b90969095509350505050565b805182526020810151602083015260018060a01b0360408201511660408301525f606082015160806060850152611c5b6080850182611ba3565b949350505050565b5f815160208452611c5b6020850182611ba3565b604081525f611c896040830185611c21565b8281036020840152611c9b8185611c63565b95945050505050565b634e487b7160e01b5f52604160045260245ffd5b604051602081016001600160401b0381118282101715611cda57611cda611ca4565b60405290565b604051601f8201601f191681016001600160401b0381118282101715611d0857611d08611ca4565b604052919050565b5f6001600160401b03821115611d2857611d28611ca4565b5060051b60200190565b80356001600160a01b0381168114611d48575f80fd5b919050565b5f6001600160401b03821115611d6557611d65611ca4565b50601f01601f191660200190565b5f82601f830112611d82575f80fd5b8135611d95611d9082611d4d565b611ce0565b818152846020838601011115611da9575f80fd5b816020850160208301375f918101602001919091529392505050565b5f60808284031215611dd5575f80fd5b604051608081016001600160401b0381118282101715611df757611df7611ca4565b604090815283358252602080850135908301529091508190611e1a908401611d32565b604082015260608301356001600160401b03811115611e37575f80fd5b611e4385828601611d73565b6060830152505092915050565b5f60208284031215611e60575f80fd5b81356001600160401b03811115611e75575f80fd5b8201601f81018413611e85575f80fd5b8035611e93611d9082611d10565b8082825260208201915060208360051b850101925086831115611eb4575f80fd5b602084015b83811015611ef45780356001600160401b03811115611ed6575f80fd5b611ee589602083890101611dc5565b84525060209283019201611eb9565b509695505050505050565b5f60208284031215611f0f575f80fd5b81356001600160401b03811115611f24575f80fd5b8201601f81018413611f34575f80fd5b8035611f42611d9082611d10565b8082825260208201915060208360051b850101925086831115611f63575f80fd5b602084015b83811015611ef45780356001600160401b03811115611f85575f80fd5b85016020818a03601f19011215611f9a575f80fd5b611fa2611cb8565b60208201356001600160401b03811115611fba575f80fd5b611fc98b602083860101611d73565b82525084525060209283019201611f68565b81835281816020850137505f828201602090810191909152601f909101601f19169091010190565b80358252602080820135908301525f6001600160a01b0361202660408401611d32565b1660408401526060820135601e19833603018112612042575f80fd5b82016020810190356001600160401b0381111561205d575f80fd5b80360382131561206b575f80fd5b60806060860152611c9b608086018284611fdb565b602081525f611b5a6020830184612003565b634e487b7160e01b5f52603260045260245ffd5b604081525f6120b86040830185612003565b90508260208301529392505050565b600181811c908216806120db57607f821691505b6020821081036120f957634e487b7160e01b5f52602260045260245ffd5b50919050565b5f6020828403121561210f575f80fd5b81356001600160401b03811115612124575f80fd5b820160408185031215612135575f80fd5b604080519081016001600160401b038111828210171561215757612157611ca4565b60405281356001600160401b0381111561216f575f80fd5b61217b86828501611dc5565b825250602091820135918101919091529392505050565b8181038181111561055657634e487b7160e01b5f52601160045260245ffd5b601f821115610e1857805f5260205f20601f840160051c810160208510156121d65750805b601f840160051c820191505b81811015610eac575f81556001016121e2565b81516001600160401b0381111561220e5761220e611ca4565b6122228161221c84546120c7565b846121b1565b6020601f821160018114612254575f831561223d5750848201515b5f19600385901b1c1916600184901b178455610eac565b5f84815260208120601f198516915b828110156122835787850151825560209485019460019092019101612263565b50848210156122a057868401515f19600387901b60f8161c191681555b50505050600190811b01905550565b5f82601f8301126122be575f80fd5b81516122cc611d9082611d10565b8082825260208201915060208360051b8601019250858311156122ed575f80fd5b602085015b8381101561230a5780518352602092830192016122f2565b5095945050505050565b5f8060408385031215612325575f80fd5b82516001600160401b0381111561233a575f80fd5b612346858286016122af565b92505060208301516001600160401b03811115612361575f80fd5b8301601f81018513612371575f80fd5b805161237f611d9082611d10565b8082825260208201915060208360051b8501019250878311156123a0575f80fd5b602084015b838110156124205780516001600160401b038111156123c2575f80fd5b8501603f81018a136123d2575f80fd5b60208101516123e3611d9082611d4d565b8181526040838301018c10156123f7575f80fd5b8160408401602083015e5f602083830101528086525050506020830192506020810190506123a5565b50809450505050509250929050565b5f8060408385031215612440575f80fd5b82516001600160401b03811115612455575f80fd5b612461858286016122af565b92505060208301516001600160401b0381111561247c575f80fd5b8301601f8101851361248c575f80fd5b805161249a611d9082611d10565b8082825260208201915060208360051b8501019250878311156124bb575f80fd5b6020840193505b828410156124dd5783518252602093840193909101906124c2565b809450505050509250929050565b602081525f611b5a6020830184611c21565b604081525f6120b86040830185611c21565b606081525f6125216060830186611c21565b82810360208401526125338186611c63565b915050826040830152949350505050565b5f82518060208501845e5f920191825250919050565b828152604060208201525f611c5b6040830184611ba356fe428da23f118e803bf8782d84723b15859880d3af9bc29a7d7c1b6990872a3510a2646970667358221220ddd7c6b1c0e75f409c0d69e2ef4bebfc4463a362f294d48828b7f0c6ff7295cc64736f6c634300081a0033","linkReferences":{}},"methodIdentifiers":{"EXECUTING_CALL_INDEX_SLOT()":"ff557675","PORTAL_SLOT()":"e77b910a","associatedDataKeyList(uint256)":"3e50f00f","associatedDataStore(bytes32)":"21a0e164","callList(uint256)":"5d6ad200","callStore(uint256)":"872ace16","fetchFromAssociatedDataStore(bytes32)":"39ca88ae","getCallIndex((uint256,uint256,address,bytes))":"35ce660a","getCallListAt(uint256)":"426c6f60","getCompleteCallIndexList((uint256,uint256,address,bytes))":"358aecdf","getCurrentlyExecuting()":"a2f8e448","getPair(uint256)":"bdf391cc","getReturnValue(bytes)":"9986c181","getReturnValue(uint256)":"69e91994","getReverseIndex(uint256)":"c63ac0c2","hintdicesStore(bytes32)":"b7b3d926","hintdicesStoreKeyList(uint256)":"c9affd7c","isPortalOpen()":"bf689281","returnStore(uint256)":"84379764","verify(bytes,bytes,bytes,bytes)":"067874cf"},"storageLayout":{"storage":[{"astId":64534,"contract":"src/timetravel/CallBreaker.sol:CallBreaker","label":"callStore","offset":0,"slot":"0","type":"t_array(t_struct(CallObjectStorage)61520_storage)dyn_storage"},{"astId":64538,"contract":"src/timetravel/CallBreaker.sol:CallBreaker","label":"returnStore","offset":0,"slot":"1","type":"t_array(t_struct(ReturnObject)61531_storage)dyn_storage"},{"astId":64541,"contract":"src/timetravel/CallBreaker.sol:CallBreaker","label":"associatedDataKeyList","offset":0,"slot":"2","type":"t_array(t_bytes32)dyn_storage"},{"astId":64546,"contract":"src/timetravel/CallBreaker.sol:CallBreaker","label":"associatedDataStore","offset":0,"slot":"3","type":"t_mapping(t_bytes32,t_struct(AssociatedDataStorage)61355_storage)"},{"astId":64549,"contract":"src/timetravel/CallBreaker.sol:CallBreaker","label":"hintdicesStoreKeyList","offset":0,"slot":"4","type":"t_array(t_bytes32)dyn_storage"},{"astId":64554,"contract":"src/timetravel/CallBreaker.sol:CallBreaker","label":"hintdicesStore","offset":0,"slot":"5","type":"t_mapping(t_bytes32,t_struct(Hintdex)61475_storage)"},{"astId":64558,"contract":"src/timetravel/CallBreaker.sol:CallBreaker","label":"callList","offset":0,"slot":"6","type":"t_array(t_struct(Call)61481_storage)dyn_storage"}],"types":{"t_address":{"encoding":"inplace","label":"address","numberOfBytes":"20"},"t_array(t_bytes32)dyn_storage":{"encoding":"dynamic_array","label":"bytes32[]","numberOfBytes":"32","base":"t_bytes32"},"t_array(t_struct(Call)61481_storage)dyn_storage":{"encoding":"dynamic_array","label":"struct Call[]","numberOfBytes":"32","base":"t_struct(Call)61481_storage"},"t_array(t_struct(CallObjectStorage)61520_storage)dyn_storage":{"encoding":"dynamic_array","label":"struct CallObjectStorage[]","numberOfBytes":"32","base":"t_struct(CallObjectStorage)61520_storage"},"t_array(t_struct(ReturnObject)61531_storage)dyn_storage":{"encoding":"dynamic_array","label":"struct ReturnObject[]","numberOfBytes":"32","base":"t_struct(ReturnObject)61531_storage"},"t_array(t_uint256)dyn_storage":{"encoding":"dynamic_array","label":"uint256[]","numberOfBytes":"32","base":"t_uint256"},"t_bool":{"encoding":"inplace","label":"bool","numberOfBytes":"1"},"t_bytes32":{"encoding":"inplace","label":"bytes32","numberOfBytes":"32"},"t_bytes_storage":{"encoding":"bytes","label":"bytes","numberOfBytes":"32"},"t_mapping(t_bytes32,t_struct(AssociatedDataStorage)61355_storage)":{"encoding":"mapping","key":"t_bytes32","label":"mapping(bytes32 => struct AssociatedDataStorage)","numberOfBytes":"32","value":"t_struct(AssociatedDataStorage)61355_storage"},"t_mapping(t_bytes32,t_struct(Hintdex)61475_storage)":{"encoding":"mapping","key":"t_bytes32","label":"mapping(bytes32 => struct Hintdex)","numberOfBytes":"32","value":"t_struct(Hintdex)61475_storage"},"t_struct(AssociatedDataStorage)61355_storage":{"encoding":"inplace","label":"struct AssociatedDataStorage","numberOfBytes":"32","members":[{"astId":61354,"contract":"src/timetravel/CallBreaker.sol:CallBreaker","label":"_head","offset":0,"slot":"0","type":"t_uint256"}]},"t_struct(Call)61481_storage":{"encoding":"inplace","label":"struct Call","numberOfBytes":"64","members":[{"astId":61478,"contract":"src/timetravel/CallBreaker.sol:CallBreaker","label":"callId","offset":0,"slot":"0","type":"t_bytes32"},{"astId":61480,"contract":"src/timetravel/CallBreaker.sol:CallBreaker","label":"index","offset":0,"slot":"1","type":"t_uint256"}]},"t_struct(CallObjectStorage)61520_storage":{"encoding":"inplace","label":"struct CallObjectStorage","numberOfBytes":"96","members":[{"astId":61509,"contract":"src/timetravel/CallBreaker.sol:CallBreaker","label":"flagAndGas","offset":0,"slot":"0","type":"t_uint32"},{"astId":61512,"contract":"src/timetravel/CallBreaker.sol:CallBreaker","label":"cdHead","offset":4,"slot":"0","type":"t_userDefinedValueType(compactCdHead)63550"},{"astId":61514,"contract":"src/timetravel/CallBreaker.sol:CallBreaker","label":"addr","offset":12,"slot":"0","type":"t_address"},{"astId":61516,"contract":"src/timetravel/CallBreaker.sol:CallBreaker","label":"amount","offset":0,"slot":"1","type":"t_uint256"},{"astId":61519,"contract":"src/timetravel/CallBreaker.sol:CallBreaker","label":"cdTail","offset":0,"slot":"2","type":"t_struct(compactCdTailSlot)63554_storage"}]},"t_struct(Hintdex)61475_storage":{"encoding":"inplace","label":"struct Hintdex","numberOfBytes":"64","members":[{"astId":61471,"contract":"src/timetravel/CallBreaker.sol:CallBreaker","label":"set","offset":0,"slot":"0","type":"t_bool"},{"astId":61474,"contract":"src/timetravel/CallBreaker.sol:CallBreaker","label":"indices","offset":0,"slot":"1","type":"t_array(t_uint256)dyn_storage"}]},"t_struct(ReturnObject)61531_storage":{"encoding":"inplace","label":"struct ReturnObject","numberOfBytes":"32","members":[{"astId":61530,"contract":"src/timetravel/CallBreaker.sol:CallBreaker","label":"returnvalue","offset":0,"slot":"0","type":"t_bytes_storage"}]},"t_struct(compactCdTailSlot)63554_storage":{"encoding":"inplace","label":"struct compactCdTailSlot","numberOfBytes":"32","members":[{"astId":63553,"contract":"src/timetravel/CallBreaker.sol:CallBreaker","label":"___mass","offset":0,"slot":"0","type":"t_uint256"}]},"t_uint256":{"encoding":"inplace","label":"uint256","numberOfBytes":"32"},"t_uint32":{"encoding":"inplace","label":"uint32","numberOfBytes":"4"},"t_userDefinedValueType(compactCdHead)63550":{"encoding":"inplace","label":"compactCdHead","numberOfBytes":"8"}}},"id":84}