{"abi":[{"type":"constructor","inputs":[{"name":"_callbreaker","type":"address","internalType":"address"},{"name":"_dai","type":"address","internalType":"address"},{"name":"_weth","type":"address","internalType":"address"}],"stateMutability":"nonpayable"},{"type":"function","name":"DECIMAL","inputs":[],"outputs":[{"name":"","type":"uint256","internalType":"uint256"}],"stateMutability":"view"},{"type":"function","name":"assertFutureCallTo","inputs":[{"name":"callObj","type":"tuple","internalType":"struct CallObject","components":[{"name":"amount","type":"uint256","internalType":"uint256"},{"name":"gas","type":"uint256","internalType":"uint256"},{"name":"addr","type":"address","internalType":"address"},{"name":"callvalue","type":"bytes","internalType":"bytes"}]},{"name":"hintdex","type":"uint256","internalType":"uint256"}],"outputs":[],"stateMutability":"view"},{"type":"function","name":"assertFutureCallTo","inputs":[{"name":"callObj","type":"tuple","internalType":"struct CallObject","components":[{"name":"amount","type":"uint256","internalType":"uint256"},{"name":"gas","type":"uint256","internalType":"uint256"},{"name":"addr","type":"address","internalType":"address"},{"name":"callvalue","type":"bytes","internalType":"bytes"}]}],"outputs":[],"stateMutability":"view"},{"type":"function","name":"assertNextCallTo","inputs":[{"name":"callObj","type":"tuple","internalType":"struct CallObject","components":[{"name":"amount","type":"uint256","internalType":"uint256"},{"name":"gas","type":"uint256","internalType":"uint256"},{"name":"addr","type":"address","internalType":"address"},{"name":"callvalue","type":"bytes","internalType":"bytes"}]}],"outputs":[],"stateMutability":"view"},{"type":"function","name":"backrunBlocker","inputs":[],"outputs":[],"stateMutability":"view"},{"type":"function","name":"callbreaker","inputs":[],"outputs":[{"name":"","type":"address","internalType":"contract CallBreaker"}],"stateMutability":"view"},{"type":"function","name":"checkSlippage","inputs":[{"name":"maxDeviationPercentage","type":"uint256","internalType":"uint256"}],"outputs":[],"stateMutability":"view"},{"type":"function","name":"dai","inputs":[],"outputs":[{"name":"","type":"address","internalType":"contract IMintableERC20"}],"stateMutability":"view"},{"type":"function","name":"frontrunBlocker","inputs":[],"outputs":[],"stateMutability":"view"},{"type":"function","name":"getCurrentExecutingPair","inputs":[],"outputs":[{"name":"","type":"tuple","internalType":"struct CallObject","components":[{"name":"amount","type":"uint256","internalType":"uint256"},{"name":"gas","type":"uint256","internalType":"uint256"},{"name":"addr","type":"address","internalType":"address"},{"name":"callvalue","type":"bytes","internalType":"bytes"}]},{"name":"","type":"tuple","internalType":"struct ReturnObject","components":[{"name":"returnvalue","type":"bytes","internalType":"bytes"}]}],"stateMutability":"view"},{"type":"function","name":"getPriceOfDai","inputs":[],"outputs":[{"name":"","type":"uint256","internalType":"uint256"}],"stateMutability":"view"},{"type":"function","name":"mintInitialLiquidity","inputs":[],"outputs":[],"stateMutability":"nonpayable"},{"type":"function","name":"owner","inputs":[],"outputs":[{"name":"","type":"address","internalType":"address"}],"stateMutability":"view"},{"type":"function","name":"provideLiquidityToDAIETHPool","inputs":[{"name":"provider","type":"address","internalType":"address"},{"name":"_amount0In","type":"uint256","internalType":"uint256"},{"name":"_amount1In","type":"uint256","internalType":"uint256"}],"outputs":[],"stateMutability":"nonpayable"},{"type":"function","name":"setExactLiquidity","inputs":[{"name":"amount0","type":"uint256","internalType":"uint256"},{"name":"amount1","type":"uint256","internalType":"uint256"}],"outputs":[],"stateMutability":"nonpayable"},{"type":"function","name":"soloExecuteBlocker","inputs":[],"outputs":[],"stateMutability":"view"},{"type":"function","name":"swapDAIForWETH","inputs":[{"name":"_amountIn","type":"uint256","internalType":"uint256"},{"name":"slippagePercent","type":"uint256","internalType":"uint256"}],"outputs":[],"stateMutability":"nonpayable"},{"type":"function","name":"weth","inputs":[],"outputs":[{"name":"","type":"address","internalType":"contract IMintableERC20"}],"stateMutability":"view"},{"type":"function","name":"withdrawLiquidityFromDAIETHPool","inputs":[{"name":"provider","type":"address","internalType":"address"},{"name":"_amount0Out","type":"uint256","internalType":"uint256"},{"name":"_amount1Out","type":"uint256","internalType":"uint256"}],"outputs":[],"stateMutability":"nonpayable"},{"type":"event","name":"LiquiditySetForPriceTest","inputs":[],"anonymous":false},{"type":"error","name":"AddressZero","inputs":[]},{"type":"error","name":"CallMismatch","inputs":[]},{"type":"error","name":"FutureCallExpected","inputs":[]},{"type":"error","name":"IllegalBackrun","inputs":[]},{"type":"error","name":"IllegalFrontrun","inputs":[]},{"type":"error","name":"InvalidPriceLimit","inputs":[]},{"type":"error","name":"NotApproved","inputs":[]},{"type":"error","name":"PortalClosed","inputs":[]},{"type":"error","name":"Unaudited","inputs":[]}],"bytecode":{"object":"0x608060405234801561000f575f80fd5b50604051611b3c380380611b3c83398101604081905261002e916100c2565b826001600160a01b03811661005657604051639fabe1c160e01b815260040160405180910390fd5b5f80546001600160a01b039283166001600160a01b03199182161790915560058054948316948216949094179093556004805492909116918316919091179055600380549091163317905550610102565b80516001600160a01b03811681146100bd575f80fd5b919050565b5f805f606084860312156100d4575f80fd5b6100dd846100a7565b92506100eb602085016100a7565b91506100f9604085016100a7565b90509250925092565b611a2d8061010f5f395ff3fe608060405234801561000f575f80fd5b506004361061011b575f3560e01c8063801e0f42116100a9578063b5ba43621161006e578063b5ba436214610238578063b64841a814610240578063d3ce2fab14610248578063f320d0a91461025b578063f4b9fa751461026d575f80fd5b8063801e0f42146101e45780638da5cb5b146101f7578063921a62e21461020a578063b12fee661461021d578063b210252314610225575f80fd5b806347c62bfb116100ef57806347c62bfb146101915780635075e4b2146101a45780635dccf4c4146101ac578063670053c8146101b45780636ab55fd9146101c7575f80fd5b806236945f1461011f5780631db72bc91461013457806325b1af12146101535780633fc8cef314610166575b5f80fd5b61013261012d3660046113e1565b610280565b005b61013c6104d6565b60405161014a929190611471565b60405180910390f35b6101326101613660046113e1565b6105f5565b600454610179906001600160a01b031681565b6040516001600160a01b03909116815260200161014a565b61013261019f3660046114bf565b6108d4565b610132610ab5565b610132610ac7565b6101326101c23660046114f1565b610bd0565b6101d6670de0b6b3a764000081565b60405190815260200161014a565b6101326101f2366004611645565b610c61565b600354610179906001600160a01b031681565b610132610218366004611686565b610db0565b6101d6610eed565b610132610233366004611686565b610f03565b610132611042565b6101326110d2565b6101326102563660046114bf565b611200565b5f54610179906001600160a01b031681565b600554610179906001600160a01b031681565b5f61029383670de0b6b3a76400006116cb565b90505f6102a883670de0b6b3a76400006116cb565b9050600254821115610329575f600254836102c391906116e8565b6005546040516340c10f1960e01b8152306004820152602481018390529192506001600160a01b0316906340c10f19906044015f604051808303815f87803b15801561030d575f80fd5b505af115801561031f573d5f803e3d5ffd5b50505050506103a4565b6002548210156103a4575f8260025461034291906116e8565b600554604051632770a7eb60e21b8152306004820152602481018390529192506001600160a01b031690639dc29fac906044015f604051808303815f87803b15801561038c575f80fd5b505af115801561039e573d5f803e3d5ffd5b50505050505b600154811115610428575f600154826103bd91906116e8565b600480546040516340c10f1960e01b81523092810192909252602482018390529192506001600160a01b03909116906340c10f19906044015f604051808303815f87803b15801561040c575f80fd5b505af115801561041e573d5f803e3d5ffd5b50505050506104a8565b6001548110156104a8575f8160015461044191906116e8565b60048054604051632770a7eb60e21b81523092810192909252602482018390529192506001600160a01b0390911690639dc29fac906044015f604051808303815f87803b158015610490575f80fd5b505af11580156104a2573d5f803e3d5ffd5b50505050505b6040517f4a4b7ed1ecd14fd8561085ca39e8e6adf07076a6c9100ece315516d18ae44513905f90a150505050565b61050760405180608001604052805f81526020015f81526020015f6001600160a01b03168152602001606081525090565b6040805160208082018352606082525f8054845163145f1c8960e31b81529451939491936001600160a01b039091169263a2f8e44892600480820193918290030181865afa15801561055b573d5f803e3d5ffd5b505050506040513d601f19601f8201168201806040525081019061057f91906116fb565b5f54604051632f7ce47360e21b8152600481018390529192506001600160a01b03169063bdf391cc906024015f60405180830381865afa1580156105c5573d5f803e3d5ffd5b505050506040513d5f823e601f3d908101601f191682016040526105ec91908101906117c4565b92509250509091565b5f61060883670de0b6b3a76400006116cb565b6005546040516323b872dd60e01b8152336004820152306024820152604481018390529192506001600160a01b0316906323b872dd906064016020604051808303815f875af115801561065d573d5f803e3d5ffd5b505050506040513d601f19601f820116820180604052508101906106819190611881565b6106c95760405162461bcd60e51b81526020600482015260146024820152733a3930b739b332b9233937b6903330b4b632b21760611b60448201526064015b60405180910390fd5b8060025f8282546106da91906118a7565b90915550506002546001545f91906106f290846116cb565b6106fc91906118ba565b90508060015f82825461070f91906116e8565b90915550506004805460405163a9059cbb60e01b81523392810192909252602482018390526001600160a01b03169063a9059cbb906044016020604051808303815f875af1158015610763573d5f803e3d5ffd5b505050506040513d601f19601f820116820180604052508101906107879190611881565b6107ca5760405162461bcd60e51b81526020600482015260146024820152733a3930b739b332b9233937b6903330b4b632b21760611b60448201526064016106c0565b6040805160018082528183019092525f91816020015b61081160405180608001604052805f81526020015f81526020015f6001600160a01b03168152602001606081525090565b8152602001906001900390816107e057905050905060405180608001604052805f8152602001629896808152602001306001600160a01b031681526020018560405160240161086291815260200190565b60408051601f198184030181529190526020810180516001600160e01b0316630ce00a7960e31b1790529052815182905f906108a0576108a06118d9565b60200260200101819052506108cd815f815181106108c0576108c06118d9565b6020026020010151610db0565b5050505050565b5f6108e783670de0b6b3a76400006116cb565b90505f6108fc83670de0b6b3a76400006116cb565b60055460405163a9059cbb60e01b81526001600160a01b0388811660048301526024820186905292935091169063a9059cbb906044016020604051808303815f875af115801561094e573d5f803e3d5ffd5b505050506040513d601f19601f820116820180604052508101906109729190611881565b6109be5760405162461bcd60e51b815260206004820181905260248201527f7472616e7366657246726f6d205f616d6f756e74304f7574206661696c65642e60448201526064016106c0565b6004805460405163a9059cbb60e01b81526001600160a01b03888116938201939093526024810184905291169063a9059cbb906044016020604051808303815f875af1158015610a10573d5f803e3d5ffd5b505050506040513d601f19601f82011682018060405250810190610a349190611881565b610a805760405162461bcd60e51b815260206004820181905260248201527f7472616e7366657246726f6d205f616d6f756e74314f7574206661696c65642e60448201526064016106c0565b8160025f828254610a9191906116e8565b925050819055508060015f828254610aa991906116e8565b90915550505050505050565b610abd611042565b610ac5610ac7565b565b5f805f9054906101000a90046001600160a01b03166001600160a01b031663a2f8e4486040518163ffffffff1660e01b8152600401602060405180830381865afa158015610b17573d5f803e3d5ffd5b505050506040513d601f19601f82011682018060405250810190610b3b91906116fb565b5f805460405163631d606160e11b81526004810184905292935090916001600160a01b039091169063c63ac0c290602401602060405180830381865afa158015610b87573d5f803e3d5ffd5b505050506040513d601f19601f82011682018060405250810190610bab91906116fb565b90508015610bcc5760405163d1cb360d60e01b815260040160405180910390fd5b5050565b5f600154670de0b6b3a7640000600254610bea91906116cb565b610bf491906118ba565b90505f610c0a670de0b6b3a7640000600a6116cb565b90505f81828411610c2457610c1f84846116e8565b610c2e565b610c2e83856116e8565b610c3891906118ba565b905083811115610c5b57604051632d4eeeb360e21b815260040160405180910390fd5b50505050565b5f805f9054906101000a90046001600160a01b03166001600160a01b031663a2f8e4486040518163ffffffff1660e01b8152600401602060405180830381865afa158015610cb1573d5f803e3d5ffd5b505050506040513d601f19601f82011682018060405250810190610cd591906116fb565b90505f83604051602001610ce991906118ed565b60408051808303601f190181529082905280516020909101205f8054630213637b60e51b845260048401879052919350916001600160a01b039091169063426c6f60906024016040805180830381865afa158015610d49573d5f803e3d5ffd5b505050506040513d601f19601f82011682018060405250810190610d6d91906118ff565b519050828411610d905760405163ab63c58360e01b815260040160405180910390fd5b8181146108cd5760405163a7ee168560e01b815260040160405180910390fd5b5f8054604051631ae7330560e11b81526001600160a01b03909116906335ce660a90610de09085906004016118ed565b5f60405180830381865afa158015610dfa573d5f803e3d5ffd5b505050506040513d5f823e601f3d908101601f19168201604052610e21919081019061194d565b90505f805f9054906101000a90046001600160a01b03166001600160a01b031663a2f8e4486040518163ffffffff1660e01b8152600401602060405180830381865afa158015610e73573d5f803e3d5ffd5b505050506040513d601f19601f82011682018060405250810190610e9791906116fb565b90505f5b8251811015610ed35781838281518110610eb757610eb76118d9565b60200260200101511115610ecb5750505050565b600101610e9b565b5060405163ab63c58360e01b815260040160405180910390fd5b5f600154600254610efe91906118ba565b905090565b5f805f9054906101000a90046001600160a01b03166001600160a01b031663a2f8e4486040518163ffffffff1660e01b8152600401602060405180830381865afa158015610f53573d5f803e3d5ffd5b505050506040513d601f19601f82011682018060405250810190610f7791906116fb565b90505f82604051602001610f8b91906118ed565b60408051601f1981840301815291905280516020909101205f8054919250906001600160a01b031663426c6f60610fc38560016118a7565b6040518263ffffffff1660e01b8152600401610fe191815260200190565b6040805180830381865afa158015610ffb573d5f803e3d5ffd5b505050506040513d601f19601f8201168201806040525081019061101f91906118ff565b519050818114610c5b5760405163a7ee168560e01b815260040160405180910390fd5b5f8054906101000a90046001600160a01b03166001600160a01b031663a2f8e4486040518163ffffffff1660e01b8152600401602060405180830381865afa158015611090573d5f803e3d5ffd5b505050506040513d601f19601f820116820180604052508101906110b491906116fb565b15610ac557604051631efbf1ab60e11b815260040160405180910390fd5b6005546001600160a01b03166340c10f19306110f7670de0b6b3a764000060646116cb565b6040516001600160e01b031960e085901b1681526001600160a01b03909216600483015260248201526044015f604051808303815f87803b15801561113a575f80fd5b505af115801561114c573d5f803e3d5ffd5b50506004546001600160a01b031691506340c10f19905030611177670de0b6b3a7640000600a6116cb565b6040516001600160e01b031960e085901b1681526001600160a01b03909216600483015260248201526044015f604051808303815f87803b1580156111ba575f80fd5b505af11580156111cc573d5f803e3d5ffd5b50505050670de0b6b3a7640000600a6111e591906116cb565b6001556111fb670de0b6b3a764000060646116cb565b600255565b5f61121383670de0b6b3a76400006116cb565b90505f61122883670de0b6b3a76400006116cb565b6005546040516323b872dd60e01b81526001600160a01b038881166004830152306024830152604482018690529293509116906323b872dd906064016020604051808303815f875af1158015611280573d5f803e3d5ffd5b505050506040513d601f19601f820116820180604052508101906112a49190611881565b6112f05760405162461bcd60e51b815260206004820152601f60248201527f7472616e7366657246726f6d205f616d6f756e7430496e206661696c65642e0060448201526064016106c0565b600480546040516323b872dd60e01b81526001600160a01b0388811693820193909352306024820152604481018490529116906323b872dd906064016020604051808303815f875af1158015611348573d5f803e3d5ffd5b505050506040513d601f19601f8201168201806040525081019061136c9190611881565b6113b85760405162461bcd60e51b815260206004820152601f60248201527f7472616e7366657246726f6d205f616d6f756e7431496e206661696c65642e0060448201526064016106c0565b8160025f8282546113c991906118a7565b925050819055508060015f828254610aa991906118a7565b5f80604083850312156113f2575f80fd5b50508035926020909101359150565b5f81518084528060208401602086015e5f602082860101526020601f19601f83011685010191505092915050565b805182526020810151602083015260018060a01b0360408201511660408301525f6060820151608060608501526114696080850182611401565b949350505050565b604081525f611483604083018561142f565b828103602084015283516020825261149e6020830182611401565b9695505050505050565b6001600160a01b03811681146114bc575f80fd5b50565b5f805f606084860312156114d1575f80fd5b83356114dc816114a8565b95602085013595506040909401359392505050565b5f60208284031215611501575f80fd5b5035919050565b634e487b7160e01b5f52604160045260245ffd5b604051608081016001600160401b038111828210171561153e5761153e611508565b60405290565b604051601f8201601f191681016001600160401b038111828210171561156c5761156c611508565b604052919050565b5f6001600160401b0382111561158c5761158c611508565b50601f01601f191660200190565b5f608082840312156115aa575f80fd5b6115b261151c565b8235815260208084013590820152905060408201356115d0816114a8565b604082015260608201356001600160401b038111156115ed575f80fd5b8201601f810184136115fd575f80fd5b803561161061160b82611574565b611544565b818152856020838501011115611624575f80fd5b816020840160208301375f6020838301015280606085015250505092915050565b5f8060408385031215611656575f80fd5b82356001600160401b0381111561166b575f80fd5b6116778582860161159a565b95602094909401359450505050565b5f60208284031215611696575f80fd5b81356001600160401b038111156116ab575f80fd5b6114698482850161159a565b634e487b7160e01b5f52601160045260245ffd5b80820281158282048414176116e2576116e26116b7565b92915050565b818103818111156116e2576116e26116b7565b5f6020828403121561170b575f80fd5b5051919050565b5f82601f830112611721575f80fd5b815161172f61160b82611574565b818152846020838601011115611743575f80fd5b8160208501602083015e5f918101602001919091529392505050565b5f6020828403121561176f575f80fd5b604051602081016001600160401b038111828210171561179157611791611508565b806040525080915082516001600160401b038111156117ae575f80fd5b6117ba85828601611712565b8252505092915050565b5f80604083850312156117d5575f80fd5b82516001600160401b038111156117ea575f80fd5b8301608081860312156117fb575f80fd5b61180361151c565b8151815260208083015190820152604082015161181f816114a8565b604082015260608201516001600160401b0381111561183c575f80fd5b61184887828501611712565b606083015250809350505060208301516001600160401b0381111561186b575f80fd5b6118778582860161175f565b9150509250929050565b5f60208284031215611891575f80fd5b815180151581146118a0575f80fd5b9392505050565b808201808211156116e2576116e26116b7565b5f826118d457634e487b7160e01b5f52601260045260245ffd5b500490565b634e487b7160e01b5f52603260045260245ffd5b602081525f6118a0602083018461142f565b5f6040828403128015611910575f80fd5b50604080519081016001600160401b038111828210171561193357611933611508565b604052825181526020928301519281019290925250919050565b5f6020828403121561195d575f80fd5b81516001600160401b03811115611972575f80fd5b8201601f81018413611982575f80fd5b80516001600160401b0381111561199b5761199b611508565b8060051b6119ab60208201611544565b918252602081840181019290810190878411156119c6575f80fd5b6020850194505b838510156119ec578451808352602095860195909350909101906119cd565b97965050505050505056fea264697066735822122019bb0d0d33377d51fa67eb7ce766459bd704bcba5c2c208fa4ec73f669aa00e364736f6c634300081a0033","linkReferences":{}},"methodIdentifiers":{"DECIMAL()":"6ab55fd9","assertFutureCallTo((uint256,uint256,address,bytes))":"921a62e2","assertFutureCallTo((uint256,uint256,address,bytes),uint256)":"801e0f42","assertNextCallTo((uint256,uint256,address,bytes))":"b2102523","backrunBlocker()":"5dccf4c4","callbreaker()":"f320d0a9","checkSlippage(uint256)":"670053c8","dai()":"f4b9fa75","frontrunBlocker()":"b5ba4362","getCurrentExecutingPair()":"1db72bc9","getPriceOfDai()":"b12fee66","mintInitialLiquidity()":"b64841a8","owner()":"8da5cb5b","provideLiquidityToDAIETHPool(address,uint256,uint256)":"d3ce2fab","setExactLiquidity(uint256,uint256)":"0036945f","soloExecuteBlocker()":"5075e4b2","swapDAIForWETH(uint256,uint256)":"25b1af12","weth()":"3fc8cef3","withdrawLiquidityFromDAIETHPool(address,uint256,uint256)":"47c62bfb"},"storageLayout":{"storage":[{"astId":55271,"contract":"test/examples/DeFi/MockDaiWethPool.sol:MockDaiWethPool","label":"callbreaker","offset":0,"slot":"0","type":"t_contract(CallBreaker)54849"},{"astId":65242,"contract":"test/examples/DeFi/MockDaiWethPool.sol:MockDaiWethPool","label":"_balanceOfWeth","offset":0,"slot":"1","type":"t_uint256"},{"astId":65244,"contract":"test/examples/DeFi/MockDaiWethPool.sol:MockDaiWethPool","label":"_balanceOfDai","offset":0,"slot":"2","type":"t_uint256"},{"astId":65246,"contract":"test/examples/DeFi/MockDaiWethPool.sol:MockDaiWethPool","label":"owner","offset":0,"slot":"3","type":"t_address"},{"astId":65249,"contract":"test/examples/DeFi/MockDaiWethPool.sol:MockDaiWethPool","label":"weth","offset":0,"slot":"4","type":"t_contract(IMintableERC20)71150"},{"astId":65252,"contract":"test/examples/DeFi/MockDaiWethPool.sol:MockDaiWethPool","label":"dai","offset":0,"slot":"5","type":"t_contract(IMintableERC20)71150"}],"types":{"t_address":{"encoding":"inplace","label":"address","numberOfBytes":"20"},"t_contract(CallBreaker)54849":{"encoding":"inplace","label":"contract CallBreaker","numberOfBytes":"20"},"t_contract(IMintableERC20)71150":{"encoding":"inplace","label":"contract IMintableERC20","numberOfBytes":"20"},"t_uint256":{"encoding":"inplace","label":"uint256","numberOfBytes":"32"}}},"id":69}